:020000040800F2
:1000000030080020BD080008C3060008C506000827
:10001000C9060008CD060008D1060008000000004F
:10002000000000000000000000000000D5060008ED
:10003000D706000800000000D9060008DB0600080B
:10004000D7080008D7080008D7080008D708000814
:10005000D7080008D7080008D7080008D708000804
:10006000D7080008D7080008D7080008D7080008F4
:10007000D7080008BD050008D7080008D708000801
:10008000D7080008D7080008D7080008D7080008D4
:10009000C9050008D7080008D7080008D7080008D5
:1000A000D7080008D7080008D7080008D7080008B4
:1000B000FB0400082D0500085D050008D7080008AE
:1000C000D7080008D7080008D7080008D708000894
:1000D000D7080008D7080008D7080008D708000884
:1000E000D7080008D7080008D7080008D708000874
:1000F000D7080008D7080008D7080008D708000864
:10010000D7080008D70800088D050008D7080008A0
:10011000D7080008D7080008010200081F020008DD
:10012000D7080008D7080008D7080008D708000833
:1001300000F002F800F03CF80AA090E8000C8244BD
:100140008344AAF10107DA4501D100F031F8AFF29A
:10015000090EBAE80F0013F0010F18BFFB1A43F0A5
:10016000010318474849000068490000103A24BFBD
:1001700078C878C1FAD8520724BF30C830C144BF0C
:1001800004680C607047000000230024002500264E
:10019000103A28BF78C1FBD8520728BF30C148BFEA
:1001A0000B6070471FB504F0C4FB1FBD10B510BD38
:1001B00003F0D1FE1146FFF7F5FF00F009F803F058
:1001C000EFFE03B4FFF7F2FF03BC03F0F7FE0000FD
:1001D00000F0F4FA03F07FFB0EE0142003F0D2FAF3
:1001E0000648006808B9012000E0002003490860C3
:1001F0004FF0140003F0C6FAEFE70000B881214287
:1002000010B5FE48006808B9012000E00020FB4955
:1002100008604FF00101FA4802F050FC10BD2DE9D2
:10022000F04103F0A1FC03F061FE0020F5494861B4
:10023000F5494861F548407A002879D1F4480068CA
:10024000F4490968884202D10020F2490860F24866
:10025000007860B9F1480078EE4908600020EF4965
:100260000870EF480068401CED4908600CE0EB485E
:1002700000784042E74908600020E8490870E848F3
:100280000068401CE6490860E5480068002808DD71
:10029000E3480068962804DADE480068DC49086014
:1002A0000AE0DF480068FA2806DDDD4800681E28FD
:1002B00002DA0020DA490860D5480068D5490968A3
:1002C000884202D10020D3490860D6480069D1494C
:1002D000096801EB8101401AD2490861D2480068DF
:1002E000012813D1D148007828B90020D0490880CE
:1002F000091D08800AE0CD480078012806D10020B9
:10030000CB49088041F28830091D0880C94800782F
:10031000012811D1C8480068401CC7490860084638
:100320000068B0F5C87F04DD0020C449087003E010
:100330004EE00120C1490870BE48007810B9002085
:10034000BD490860BD48007890B94FF47A70BC4947
:1003500008800020B6490880BA48BB4908600020E0
:10036000BA490870B249091D0880AF49086096E093
:10037000B24800780128FAD1B448007870B9B24880
:10038000006804F0B9F804464FF06632B04B03F051
:100390004FFE064603F01AFEAB490860AA48006803
:1003A00004F0AAF804460022AA4B03F085FF05D208
:1003B000A948A54908600120A4490870A24800681E
:1003C00004F084F99E49088001209749086066E09E
:1003D0008E48407A022803D08C48407A03285ED1A8
:1003E0008A48407A032812D14FF47A7094490880E1
:1003F00000208F4908809348934908600020934962
:1004000008708B49091D0880874908602EE07F48E5
:10041000407A02282AD18D48007870B98A4800684D
:1004200004F06AF804464FF06632894B03F000FE90
:10043000064603F0CBFD844908608348006804F059
:100440005BF804460022834B03F036FF05D2824856
:100450007D49086001207D4908707B48006804F0F0
:1004600035F97749088001206F4908606E480068B7
:10047000012814D16548007A032805D100206C4971
:100480000880091D08800AE06048007A022806D129
:1004900000206749088041F28830091D08806F48B4
:1004A0000068C8280ADA6D480068401C6B4908607B
:1004B00000205F4908390880091D088067480068E6
:1004C000C82803D14FF496706449086063480068F7
:1004D000C82803DD5349086903F033FC604800680D
:1004E00008B9012000E000205D4908604FF00101DB
:1004F0005C4802F0E3FABDE8F08110B54FF08040AF
:10050000008810F0100F06D05748008A401E00B235
:100510005549088205E05448008A401C00B25249FF
:1005200008820121880702F0C9FA10BD10B54F48B2
:10053000008810F0100F06D04B48408A401E00B2D1
:100540004949488205E04848408A401C00B2464973
:1005500048820121454802F0B1FA10BD10B5444867
:10056000008810F0100F06D03F48808A401E00B26D
:100570003D49888205E03C48808A401C00B23A49E7
:10058000888201213A4802F099FA10BD10B5394825
:10059000008810F0100F06D03348C08A401E00B209
:1005A0003149C88205E03048C08A401C00B22E495B
:1005B000C88201212F4802F081FA10BD10B54FF416
:1005C000007000F0EBFF10BD10B52B4A00212B4846
:1005D00000F08DFC28480068B0F5007F6DD12648FA
:1005E000007A48B90120264908702348C07A0B498F
:1005F00008702148007B45E05FE00000B4812142A3
:10060000001000401001002038010020D20000201E
:100610001C000020180000201000002024000020F2
:1006200020000020B0010020000000202600002053
:100630003C3401402500002014000020110000205F
:10064000342C014000007A440400002008000020FF
:100650006666E63F00209C400000E1440C0000205C
:10066000BC81214200140040E8000020000400404A
:1006700000080040000C0040AC0000200064004076
:1006800080000020154908701548407B1549087006
:100690001348807B144908701148017CC07B41EAF3
:1006A0000020124948800E48407C08720C48807C2B
:1006B000487201200E49087002E000200C490870C1
:1006C00010BD704700BFFEE700BFFEE700BFFEE7BA
:1006D00000BFFEE77047704770477047100000206A
:1006E000AC0000202600002025000020D2000020C1
:1006F0008000002000210020674A126842F4803206
:10070000654B1A6000BF644A126802F40030491C4D
:1007100010B9B1F5A06FF6D15F4A126812F4003F2C
:1007200001D0012000E00020012842D15B4A12687C
:1007300042F01002594B1A601A46126822F0030266
:100740001A601A46126842F002021A60524A52684F
:10075000514B5A601A4652685A601A46526842F41F
:1007600080625A601A46526822F47C125A601A4615
:10077000526842F4E8125A601A46126842F08072D7
:100780001A6000BF444A126812F0007FFAD0424A51
:10079000526822F00302404B5A601A46526842F0F7
:1007A00002025A6000BF3C4A526802F00C02082A5A
:1007B000F9D1704710B5FFF79DFF10BD10B5364851
:1007C000006840F001003449086008464068344938
:1007D00008403149486008460068324908402E49BF
:1007E00008600846006820F48020086008464068D9
:1007F00020F4FE0048604FF41F008860FFF7DAFF26
:100800004FF000602849086010BD10B5002100209D
:100810000022214B5B6803F00C0121B1042906D0B2
:10082000082928D107E0214B214C236027E01F4BEA
:100830001F4C236023E0184B5B6803F47010164BC9
:100840005B6803F48032022303EB904022B9194B1A
:100850004343174C23600DE00F4B5B6813F4003FDC
:1008600004D0144B4343124C236003E00F4B43432B
:100870000F4C236003E00D4B0D4C236000BF00BF05
:10088000054B5B68C3F303130B4CE15C084B1B681F
:10089000CB40074C236010BD0010024000200240F6
:1008A0000000FFF8FFFFF6FE08ED00E000127A00FE
:1008B0002800002000093D002C0000200948804746
:1008C00009480047FEE7FEE7FEE7FEE7FEE7FEE732
:1008D000FEE7FEE7FEE7FEE704480549054A064B4A
:1008E00070470000BD0700083101000830020020F9
:1008F000300800203004002030040020314901433A
:10090000314A1160704770B5002100230F22C4786E
:100910000CB32D4C246804F4E064C4F5E064210AAF
:10092000C1F10403CA40447804FA03F18478144006
:1009300021430901254C0678A155047804F01F05D0
:100940000124AC4005786D114FF0E02606EB8505DB
:10095000C5F8004109E0047804F01F050124AC400B
:100960001B4D0678761145F8264070BD194A0A409D
:100970000243154B1B1F1A60704739B1124A121DF2
:1009800012680243104B1B1D1A6006E00E4A121D2E
:10099000126882430C4B1B1D1A607047042808D153
:1009A0004FF0E021096941F004014FF0E0221161AC
:1009B00007E04FF0E021096921F004014FF0E02247
:1009C000116170470000FA050CED00E000E400E062
:1009D00080E100E080FFFF1F10B50446FE4884421E
:1009E00009D10121480601F054F900214FF00070AF
:1009F00001F04FF908E00121880601F04AF90021D1
:100A00004FF0806001F045F910BD30B5024600207E
:100A10000023146824F002041460146844F00104F4
:100A2000146000E05B1C546804F00104012C03D046
:100A3000A3F57F44FF3CF5D1546804F00104012C78
:100A400001D000206EE08C79012C04D1146844F0B0
:100A50008004146003E0146824F080041460CC79EE
:100A6000012C04D1146844F04004146003E01468BD
:100A700024F0400414600C7A012C04D1146844F072
:100A80002004146003E0146824F0200414604C7AFD
:100A9000012C04D1146844F01004146003E01468BD
:100AA00024F0100414608C7A012C04D1146844F0F2
:100AB0000804146003E0146824F008041460CC7A7D
:100AC000012C04D1146844F00404146003E0146899
:100AD00024F0040414608C78A407CD7844EA0564FB
:100AE0000D7944EA05444D7944EA05540D886D1E9C
:100AF0002C43D461146824F001041460002300E046
:100B00005B1C546804F00104012C03D1A3F57F445D
:100B1000FF3CF5D1546804F00104012C01D1002000
:100B200000E0012030BD10B50021837A012202FAD5
:100B300003F1AA4A126842F00102A84B1A60A74AC0
:100B40001C3212688A43A54B1C331A60027BCAB957
:100B5000A24A0C3212688A43A04B0C331A604288B6
:100B6000C38842EA03439D4A4032847A42F83430D3
:100B70000288838842EA0343984A4032847A02EB2F
:100B8000C4025360027B012A19D1944A0C321268C4
:100B90000A43924B0C331A604288038842EA0343AB
:100BA0008E4A4032847A42F83430C288838842EADE
:100BB00003438A4A4032847A02EBC4025360C27A09
:100BC0003AB9864A121D12688A43844B1B1D1A606B
:100BD00006E0824A121D12680A43804B1B1D1A60F0
:100BE000028932B97D4A143212688A437B4B14332E
:100BF0001A600289012A06D1784A143212680A431F
:100C0000764B14331A60427B012A06D1734A1C3298
:100C100012680A43714B1C331A60704A126822F042
:100C200001026E4B1A6010BD00218171C171017209
:100C300041728172C1728170C17003210171022100
:100C400041710121018070476449096841F0010147
:100C5000624A11601146096843F60E7291435F4A79
:100C600011601146096841EA0021116011460968C6
:100C700021F001011160704721B1026842F4803215
:100C8000026003E0026822F4803202607047E1B142
:100C9000026842F0800202604FF4C272125842F4BD
:100CA00080734FF4C27213504FF4CA72125842F458
:100CB00080734FF4CA7213504FF4D272125842F438
:100CC00080734FF4D27213501BE0026822F080024E
:100CD00002604FF4C272125822F480734FF4C27251
:100CE00013504FF4CA72125822F480734FF4CA7230
:100CF00013504FF4D272125822F480734FF4D27210
:100D00001350704710B502460020936803F08063CB
:100D1000B3F1806F00D110E0936803F00063B3F18A
:100D2000006F01D1012008E0936803F08053B3F114
:100D3000805F01D1022000E00420042879D002F570
:100D4000C07303EB00131B6803F0010402F5C073CA
:100D500003EB00131C600B7A7BB94B7A0C6843EAF7
:100D6000445302F5C07404EB00142468234302F5D5
:100D7000C07404EB0014236010E00B7A4C6843EA63
:100D8000C4034C7A234302F5C07404EB00142468B6
:100D9000234302F5C07404EB001423608B7A03F044
:100DA0000F038B7202F5C07303EB00135B6823F033
:100DB0000F0402F5C07303EB00135C6002F5C0730F
:100DC00003EB00135B688C7A234302F5C07404EBD9
:100DD000001463608B7B03E0006400400066004009
:100DE0001C064B7B44EA03440B7B44EA0323CC7A86
:100DF000234302F5C07404EB0014A3608B7C1C0633
:100E00004B7C44EA03440B7C44EA0323CC7B23431E
:100E100002F5C07404EB0014E36002F5C07303EB49
:100E200000131B6843F0010402F5C07303EB0013C9
:100E30001C6010BD10B50246002321B1012907D066
:100E400002290FD109E09068F84C00EA04030BE096
:100E50009068F74C00EA040306E09068F54C00EA5D
:100E6000040301E0002300BF00BFF34C181BA342A2
:100E700016D007DC83B16FF0806018180ED00228FE
:100E800018D111E0B0F5007F10D0EC4C001909D05A
:100E9000B0F5003F0ED10BE002230DE000230BE084
:100EA000002309E0002307E0012305E0012303E01C
:100EB000012301E0002300BF00BFD8B210BD21B163
:100EC000012907D002290FD109E0826842F080028F
:100ED00082600AE0826842F40042826005E0826833
:100EE00042F40002826000E000BF00BF704710B50E
:100EF00000F5D87303EB01131B6803F004031372AE
:100F0000137A53B900F5D87303EB01131B6840F251
:100F1000FF7404EA5353136009E000F5D87303EB40
:100F200001131B686FF0604404EAD303536000F5BB
:100F3000D87303EB01131B6803F00203537200F52F
:100F4000D87303EB01135B6803F00F03937200F592
:100F5000D87303EB01135B681B0AD37400F5D873D5
:100F600003EB01139B68D37200F5D87303EB0113F5
:100F70009B681C0A147300F5D87303EB01139B687C
:100F80001C0C547300F5D87303EB01139B681B0E04
:100F9000937300F5D87303EB0113DB68D37300F58B
:100FA000D87303EB0113DB681C0A147400F5D873C3
:100FB00003EB0113DB681C0C547400F5D87303EBCE
:100FC0000113DB681B0E937421B9C36843F020033F
:100FD000C36003E0036943F02003036110BD21B93E
:100FE000C26842F02002C26003E0026942F02002BF
:100FF000026170470246002019B9D36803F003006C
:1010000006E0012903D1136903F0030000E000208A
:10101000704710B502460B4600204FF6FF71BBB972
:10102000146824F0020444F00104146000E0491E36
:10103000546804F00304012C01D00029F7D154684E
:1010400004F00304012C01D0002032E0012030E044
:10105000012B13D1146824F00304146000E0491E2E
:10106000546814F0030F01D00029F8D1546814F02B
:10107000030F01D000201CE001201AE0022B17D141
:10108000146824F0010444F00204146000E0491ED6
:10109000546804F00304022C01D00029F7D15468ED
:1010A00004F00304022C01D0002002E0012000E043
:1010B000002010BD014600200A6822F0010242F023
:1010C00002020A604A6802F00302022A00D10120EB
:1010D000704701464FF6FF7200200B6823F00203B1
:1010E0000B6000E0521E4B6803F00203022B01D19B
:1010F000002AF7D14B6803F00203022B00D0012035
:101100007047014600208A6902F07000704701466E
:1011100000208A69100E7047014600208A69C2F3D8
:10112000074070471AB143690B43436102E04369CA
:101130008B434361704710B50246002011F4700FD5
:1011400008D09369C1F31304234201D001202DE09C
:1011500000202BE011F0807F08D05368C1F3130406
:10116000234201D0012021E000201FE011F0006F98
:1011700008D09368C1F31304234201D0012015E085
:10118000002013E011F0007F08D0D368C1F31304EE
:10119000234201D0012009E0002007E01369C1F3D8
:1011A0001304234201D0012000E0002010BD0022E2
:1011B000234B994202D10023836111E0C1F3130252
:1011C00011F0007F01D0C2600AE011F0806F01D001
:1011D000026105E011F0006F01D0826000E0426022
:1011E0007047024600200A4201D0012000E00020A2
:1011F000704770B504460D4600266069284272D0DB
:10120000B5F5807F69D01DDC082D42D006DC012DAC
:101210002DD0022D31D0042D7FD134E0102D3ED0C1
:10122000202D42D0402D78D145E00000030000047D
:101230000003000800000310000100080001FFF790
:101240007000F030B5F5004F61D009DCB5F5007FD6
:101250004AD0B5F5806F4DD0B5F5006F5DD150E047
:10126000B5F5803F2DD0B5F5003F56D12FE0A068F1
:101270005549FFF7B6FF064651E0E0680321FFF746
:10128000B0FF06464BE0E0680821FFF7AAFF0646DC
:1012900045E0E0681021FFF7A4FF06463FE0206923
:1012A0000321FFF79EFF064639E020690821FFF77A
:1012B00098FF064633E020691021FFF792FF0646AB
:1012C0002DE060680821FFF78CFF064627E0606884
:1012D0001021FFF786FF064621E0A0690121FFF7F4
:1012E00080FF06461BE01BE0A0690221FFF779FFA3
:1012F000064614E0A0690421FFF773FF06460EE0DE
:101300000BE0A0697021FFF76CFF064607E06068FC
:101310000421FFF766FF064601E0002600BF00E05B
:101320000026304670BDB1F5007F3AD00FDC202991
:1013300028D006DC01291CD004291DD0082940D161
:101340001DE0402921D0B1F5807F3AD126E0B1F5EA
:10135000004F31D006DCB1F5806F25D0B1F5006FBC
:101360002FD124E0B1F5803F12D0B1F5003F28D154
:1013700011E0154A826025E00822C26022E01022B6
:10138000C2601FE0082202611CE01022026119E025
:101390000822426016E01022426013E004224260FC
:1013A00010E0042242600DE0042242600AE00022C4
:1013B00082610422426005E00022826104224260D0
:1013C00000E000BF00BF70470101010001684FF657
:1013D000FE72114001600021016041608160C160C6
:1013E0008C49884208D18B490839496841F00F017E
:1013F000884A083A51608AE086491431884208D107
:1014000084490839496841F0F001824A083A51603C
:101410007DE080492831884208D17E4908394968F1
:1014200041F470617B4A083A516070E079493C317F
:10143000884208D177490839496841F47041754AB2
:10144000083A516063E073495031884208D17149CC
:101450000839496841F470216E4A083A516056E0F3
:101460006C496431884208D16A490839496841F4B5
:101470007001684A083A516049E06649783188420B
:1014800008D164490839496841F07061614A083AF5
:1014900051603CE06049884206D1011F096841F073
:1014A0000F01021F116032E05B491431884208D1FC
:1014B0005949091F096841F0F001574A121F11608C
:1014C00025E055492831884208D15349091F096848
:1014D00041F47061504A121F116018E04E493C31CE
:1014E000884208D14C49091F096841F470414A4AB1
:1014F000121F11600BE048495031884207D146491C
:10150000091F096841F47021434A121F1160704796
:1015100010B50022026847F6F0739A430C6A8B6894
:1015200023430C6923434C6923438C692343CC69CF
:1015300023434C6A23438C6A23431A430260CB68DB
:1015400043600B6883604B68C36010BD002101607D
:1015500041608160C160016141618161C16101627D
:1015600041628162704721B1026842F0010202606B
:1015700004E002684FF6FE731A40026070471AB129
:1015800003680B43036002E003688B43036070470A
:10159000416070470146486880B2704701460020AC
:1015A000002211F0805F03D01B4B083B1A6802E059
:1015B000184B083B1A680A4201D0012000E00020C5
:1015C000704710F0805F03D01349091F086002E0E4
:1015D000104908394860704701460020002211F088
:1015E000805F03D00C4B083B1A6802E0094B083BB4
:1015F0001A680A4201D0012000E00020704710F074
:10160000805F03D00449091F086002E001490839DE
:1016100048607047080002400804024010B50446C4
:10162000CA48844208D10121042000F025FB002192
:10163000042000F021FB46E0C548844208D1012186
:10164000082000F019FB0021082000F015FB3AE00B
:10165000C048844208D10121102000F00DFB002178
:10166000102000F009FB2EE0BB48844208D1012184
:10167000202000F001FB0021202000F0FDFA22E0F4
:10168000B648844208D10121402000F0F5FA00213B
:10169000402000F0F1FA16E0B148844208D101215F
:1016A000802000F0E9FA0021802000F0E5FA0AE04D
:1016B000AC48844207D10121801500F0DDFA0021F9
:1016C000A01500F0D9FA10BD10B50121084600F0B0
:1016D000D3FA0021012000F0CFFA10BD2DE9F0412E
:1016E000024600250026002000230024002791F850
:1016F00003C00CF00F0591F803C01CF0100F03D0CD
:1017000091F802C04CEA0505B1F800C01CF0FF0FCB
:1017100031D0146800202BE04FF0010C0CFA00F3DC
:10172000B1F800C00CEA03069E4220D183004FF0BE
:101730000F0C0CFA03F7BC4305FA03FC4CEA040453
:1017400091F803C0BCF1280F06D14FF0010C0CFA40
:1017500000FCC2F814C00AE091F803C0BCF1480FC5
:1017600005D14FF0010C0CFA00FCC2F810C0401C6F
:101770000828D1D31460B1F800C0BCF1FF0F34DDEC
:10178000546800202EE000F1080C4FF0010808FA20
:101790000CF3B1F800C00CEA03069E4221D183008D
:1017A0004FF00F0C0CFA03F7BC4305FA03FC4CEAAC
:1017B000040491F803C0BCF1280F05D100F1080C16
:1017C00008FA0CF8C2F8148091F803C0BCF1480F75
:1017D00007D100F1080C4FF0010808FA0CF8C2F824
:1017E0001080401C0828CED35460BDE8F0814FF62D
:1017F000FF710180022181700421C170704702468F
:10180000002093680B4201D0012000E000207047C7
:101810000146886880B2704702460020D3680B42B8
:1018200001D0012000E0002070470146C86880B266
:10183000704701617047416170470AB1016100E082
:1018400041617047C16070474FF480320A43826142
:101850008161826182698269704702460020424B41
:1018600018684FF68073184040EA021008433E4B58
:10187000186070473D49C8617047F0B50A460023BB
:1018800000240021002500F00046B6F1004F02D1EF
:10189000354EF16901E0344E7168C0F3034583B2FF
:1018A00000F44016B6F5401F08D121F070612E4EAD
:1018B000766826F070662C4F7E6012E000F4801689
:1018C000B6F5801F06D1032606FA05F4A14341F0C0
:1018D000706106E0460D360103FA06F6B14341F0A9
:1018E000706122B1460D360103FA06F6314300F06D
:1018F0000046B6F1004F02D11B4EF16101E01A4ED5
:101900007160F0BD30B500228B071C0F0F2303FA66
:1019100004F2154B08338C1053F824309343124CC7
:1019200008348D1044F8253023468C1053F82430A9
:101930008C07240F00FA04F423430B4C08348D1059
:1019400044F8253030BD0A4908607047000801405E
:10195000000C01400010014000140140001801403B
:10196000001C014000200140000001400000204216
:10197000DC002042DC48006840F00100DA490860E1
:1019800008464068D9490840D74948600846006879
:10199000D7490840D44908600846006820F48020F0
:1019A00008600846406820F4FE0048604FF41F00BD
:1019B00088607047CC49096821F48031CA4A1160B7
:1019C0001146096821F480211160B0F5803F03D0F1
:1019D000B0F5802F0ED106E0C349096841F480318B
:1019E000C14A116007E0C049096841F4A021BE4A1C
:1019F000116000E000BF00BF704710B50146002233
:101A0000002300204A11012A02D1B74C236806E0C6
:101A1000022A02D1B44C236A01E0B34C636A01F09C
:101A20001F02012494401C4201D0012000E000204C
:101A300010BD70B500240025002600BF3120FFF73F
:101A4000DCFF0646641CB4F5A06F01D0002EF5D073
:101A50003120FFF7D2FF08B1012500E0002528461C
:101A600070BD01460020A04A106820F0F80040EA4E
:101A7000C100106070479F4908607047024600200F
:101A8000994B586820F47C1042EA01031843964BA6
:101A90005860704797490866704701460020924A8F
:101AA000506820F003000843506070478E4840683B
:101AB00000F00C007047014600208B4A506820F06F
:101AC000F00008435060704701460020864A506885
:101AD00020F4E06008435060704701460020824ACD
:101AE000506820F4605040EAC1005060704729B14E
:101AF0007D4A527A02437C4B5A7206E07A4A527A05
:101B0000C343DBB21A40784B5A7270477A49086077
:101B1000704701460020744A506820F44040084352
:101B2000506070470021754A11706F4A82F820108A
:101B3000012802D0042808D103E001216F4A117066
:101B400004E005216D4A117000E000BF00BF70473E
:101B50006B49086070476449096A0143624A11622F
:101B60007047674944390860704730B5002100224A
:101B7000002400235C4D6D6805F00C0121B104299F
:101B800005D0082923D105E05E4D056022E05D4DBA
:101B900005601FE0544D6D6805F47012524D6D687C
:101BA00005F48034022505EB92421CB9564D55438D
:101BB00005600BE04C4D6D6815F4003F03D0524DAD
:101BC0005543056002E04F4D5543056002E04D4D21
:101BD000056000BF00BF444D6D6805F0F0010909C4
:101BE0004A4D6B5C0568DD4045603F4D6D6805F40E
:101BF000E061090A454D6B5C4568DD4085603A4D02
:101C00006D6805F46051C90A404D6B5C4568DD4064
:101C1000C560354D6D6805F44041890B3C4D6B5CEA
:101C2000C568B5FBF3F5056130BD29B12E4A52698F
:101C300002432D4B5A6104E02B4A526982432A4BDE
:101C40005A61704729B1284A92690243264B9A612A
:101C500004E0254A92698243234B9A61704729B177
:101C6000214AD2690243204BDA6104E01E4AD2695C
:101C700082431D4BDA61704729B11B4AD268024387
:101C8000194BDA6004E0184AD2688243164BDA60D6
:101C9000704729B1144A12690243134B1A6104E0D8
:101CA000114A12698243104B1A6170471449403936
:101CB000086070470F49C86470470B49C871704786
:101CC0000948406A40F08070074948627047014601
:101CD0000020054A92680A4201D0012000E000205D
:101CE0007047014988727047001002400000FFF8F9
:101CF000FFFFF6FE00004242D800424220100240A0
:101D00008004424200127A0000093D003C0000209D
:101D10004C00002010B50446FE48844208D1012141
:101D2000C014FFF7A9FF0021E014FFF7A5FFC4E0EE
:101D3000B4F1804F08D101210846FFF7AAFF002126
:101D40000120FFF7A6FFB8E0F348844208D1012143
:101D50000220FFF79EFF00210220FFF79AFFACE070
:101D6000EE48844208D101210420FFF792FF0021B0
:101D70000420FFF78EFFA0E0E948844208D101214A
:101D80000820FFF786FF00210820FFF782FF94E07C
:101D9000E448844208D101211020FFF77AFF002196
:101DA0001020FFF776FF88E0DF48844208D1012148
:101DB0002020FFF76EFF00212020FFF76AFF7CE064
:101DC000DA48844208D101214014FFF755FF002171
:101DD0006014FFF751FF70E0D548844209D101211A
:101DE000C804FFF749FF00214FF40020FFF744FF2C
:101DF00063E0D048844209D101210805FFF73CFF88
:101E000000214FF48010FFF737FF56E0CA488442A4
:101E100009D101214805FFF72FFF00214FF40010E1
:101E2000FFF72AFF49E0C548844208D1012140203C
:101E3000FFF72FFF00214020FFF72BFF3DE0C048B8
:101E4000844208D101218020FFF723FF0021802058
:101E5000FFF71FFF31E0BB48844208D10121801504
:101E6000FFF717FF0021A015FFF713FF25E0B64885
:101E7000844209D101210804FFF7FEFE00214FF43E
:101E80008030FFF7F9FE18E0B048844209D1012103
:101E90004804FFF7F1FE00214FF40030FFF7ECFE9D
:101EA0000BE0AB48844208D101218804FFF7E4FE2F
:101EB00000214FF48020FFF7DFFE10BD00220288D2
:101EC000944B98420ED0994B98420BD0B0F1804F72
:101ED00008D0914B984205D0904B984202D0904B3D
:101EE000984204D14FF68F731A404B881A438D4B9A
:101EF000984207D08C4B984204D04FF6FF431A40CB
:101F0000CB881A4302808B8883850B880385814B9D
:101F100098420BD0854B984208D08B4B984205D005
:101F20008A4B984202D08A4B984201D10B7A0386A1
:101F300001238382704770B5002400220023058CA2
:101F40004FF6FE7635400584028C8388048B4FF66D
:101F50008F752C40B51E2C400D882C43751E2A40D1
:101F60000D892A434D882A436A4DA8420BD06F4DF4
:101F7000A84208D0744DA84205D0744DA84202D0A2
:101F8000734DA84213D14FF6F7752A404D892A4365
:101F90004FF6FB752A408D882A434FF6FF652B408C
:101FA0004FF6FF552B408D892B43CD892B438380E2
:101FB0000483CD888586028470BD70B5002400221C
:101FC0000023058C4FF6EF7635400584028C83881C
:101FD000048B48F6FF752C404FF6FF452C400D88CA
:101FE0002D0644EA15444FF6DF752A400D892D056C
:101FF00042EA15424D882D0542EA1542454DA84258
:1020000002D04A4DA8421BD14FF67F752A404D8918
:102010002D0542EA15424FF6BF752A408D882D05E1
:1020200042EA15424FF6FF352B404FF2FF752B4029
:102030008D89AD0443EA1543CD89AD0443EA1543C8
:1020400083800483CD880587028470BD70B5002429
:1020500000220023058C4FF6FF6635400584028C74
:102060008388848B4FF68F752C404FF6FC752C407F
:102070000D882C434FF6FF552A400D892D0642EA64
:1020800015424D882D0642EA1542224DA84202D043
:10209000264DA8421BD14FF2FF752A404D892D06CF
:1020A00042EA15424FF6FF352A408D882D0642EA56
:1020B00015424EF6FF752B404DF6FF752B408D896E
:1020C0002D0543EA1543CD892D0543EA1543838049
:1020D0008483CD888587028470BD70B5002200237B
:1020E0000024058C4EF6FF7635400584038C8488E9
:1020F000828B48F6FF752A404FF6FF452A400D882F
:102100002D0642EA15424DF6FF752B400D892D072D
:1021100020E00000002C01400004004000080040C6
:10212000000C00400010004000140040003401404A
:10213000004C014000500140005401400018004094
:10214000001C0040002000400040014000440140CD
:102150000048014043EA15434D882D0743EA1543E3
:10216000F84DA84202D0F84DA84206D14BF6FF75B3
:102170002C408D89AD0544EA154484808283CD8846
:10218000A0F84050038470BD828B4FF2FF331A4099
:102190008283828B0B0642EA134282837047F0B53A
:1021A0000C461546002200210026078C4EF6FF7CC7
:1021B00007EA0C070784828B018C27073E0C40F648
:1021C000FF473A402F0642EA17421F0742EA1742EA
:1021D000DC4FB8420ED0DC4FB8420BD0B0F1804F8C
:1021E00008D0DA4FB84205D0D94FB84202D0D94F03
:1021F000B84206D14DF6FF77394046F4805739434F
:1022000005E047F6FF57394044F48057394382834D
:102210000184F0BD828B4FF6F3731A408283828B68
:102220000A4382837047F0B50C4615460022002110
:102230000026078C4FF6FF6C07EA0C070784828B99
:10224000018C27063E0C4FF60C773A401F0545EAF5
:1022500017473A43BB4FB8420ED0BB4FB8420BD0E2
:10226000B0F1804F08D0B94FB84205D0B84FB8424E
:1022700002D0B84FB84206D14FF6FF57394046F466
:102280008077394305E04FF2FF57394044F48077B7
:10229000394382830184F0BD028B4FF2FF331A4031
:1022A0000283028B0B0642EA134202837047F0B5A9
:1022B0000C461546002200210026078C4FF6EF7CC5
:1022C00007EA0C070784028B018C27053E0C40F6B9
:1022D000FF473A401F0742EA17422F0642EA1742D9
:1022E000984FB8420ED0984FB8420BD0B0F1804F03
:1022F00008D0964FB84205D0954FB84202D0954FBE
:10230000B84206D14FF6DF77394046F0100739431F
:1023100005E04FF65F77394044F0100739430283F8
:102320000184F0BD028B4FF6F3731A400283028BD7
:102330000A4302837047F0B50C461546002200217F
:10234000068C4FF6FE773E400684028B018C4FF6DA
:102350000C7632401E0545EA16463243794EB042AD
:102360000ED0794EB0420BD0B0F1804F08D0774EEE
:10237000B04205D0764EB04202D0764EB04206D181
:102380004FF6FD76314044F00106314305E04FF64B
:10239000F576314044F00106314302830184F0BDFB
:1023A00070B505460C46674885420ED066488542A2
:1023B0000BD0B5F1804F08D06448854205D0644801
:1023C000854202D06348854200D100E000BF2088EA
:1023D00050B92389A28861882846FFF7ACFFE188BD
:1023E0002846FFF79FFF25E0208804280AD123898B
:1023F000A28861882846FFF75AFFE1882846FFF740
:102400004BFF17E0208808280AD12389A288618819
:102410002846FFF708FFE1882846FFF7FBFE09E0A2
:102420002389A28861882846FFF7B9FEE1882846FB
:10243000FFF7AAFE70BD2DE9F04105460C460026C7
:102440000127608808B9022600E00026A08801283C
:1024500001D1022700E001272088A0B92389A288A2
:1024600061882846FFF767FFE1882846FFF75AFF93
:1024700023893A4631462846FFF719FFE188284666
:10248000FFF70AFF13E02389A28861882846FFF737
:102490000EFFE1882846FFF7FFFE23893A463146C2
:1024A0002846FFF748FFE1882846FFF73BFFBDE8D5
:1024B000F0810A884B881A438B881A43CB881A43C9
:1024C0000B891A434B891A438B891A43A0F844207D
:1024D00070474FF6FF71818000210180C1804180EB
:1024E000017270470021018041808180C18001819B
:1024F00041818181C181704700210180418001219A
:1025000081800021C18001817047002101804180CC
:102510008180C180018141818181704721B1028820
:1025200042F00102028004E002884FF6FE731A4076
:102530000280704781B1B0F8442042F40042A0F814
:1025400044200FE0002C0140003401400004004012
:1025500000080040000C0040B0F84420C2F30E0216
:10256000A0F84420704710B51AB183890B438381CA
:1025700004E08389CC43A4B22340838110BD8182CF
:10258000704741EA0203A0F84830704710B51AB10D
:1025900083890B43838104E08389CC43A4B2234025
:1025A000838110BD01894FF6F87211400181704797
:1025B0000A46002101894FF68F73194011430181AA
:1025C000704730B504460D4629462046FFF7F0FF18
:1025D000208940F00700208130BD2DE9F0410446FC
:1025E0000D4616461F46602D06D13B460122314658
:1025F0002046FFF75CFE05E03B46012231462046BF
:10260000FFF799FE29462046FFF7D2FF208940F0C8
:1026100007002081BDE8F08130B50C46002101891A
:10262000C9B21D0642EA154525432943018130BD43
:102630002DE9F04105460E461746984600244346CC
:102640003A4631462846FFF7E7FF2C894FF6F870E7
:10265000044044F007044FF68F70044044F07004C7
:102660002C81BDE8F081F0B504460D4616461F46A4
:102670003B46324629462046FFF7CEFF208940F4EC
:1026800080402081F0BD0185828270470A4600218A
:1026900001884FF68F731940114301807047F0B5E0
:1026A0000C4615461E460021002200230189028B9C
:1026B000038C4FF6F877394021434FF6FC473A40F8
:1026C00040F201173A434FF6DD773B40370545EAC4
:1026D00017473B43018102830384F0BD0A46002172
:1026E000018B4FF68F7319401143018370470A46DF
:1026F0000021018B48F6FF731940130641EA13418C
:10270000018370470A460021818B4FF68F73194071
:102710001143818370470A460021818B48F6FF737D
:102720001940130641EA13418183704721B10288A1
:1027300042F08002028004E002884FF67F731A4064
:102740000280704721B1828842F00402828004E056
:1027500082884FF6FB731A408280704721B18288CD
:1027600042F00802828004E082884FF6F7731A4034
:102770008280704721B1828842F00102828004E0A9
:1027800082884FF6FE731A40828070470A46002105
:10279000018B4FF6F77319401143018370470A46C6
:1027A0000021018B4FF2FF731940130641EA1341D8
:1027B000018370470A460021818B4FF6F773194059
:1027C0001143818370470A460021818B4FF2FF73CA
:1027D0001940130641EA1341818370470A460021DC
:1027E000018B4FF6FB7319401143018370470A4672
:1027F0000021018B4FF6FF331940130641EA1341C4
:10280000018370470A460021818B4FF6FB73194004
:102810001143818370470A460021818B4FF6FF33B5
:102820001940130641EA1341818370470A4600218B
:10283000018B4FF67F7319401143018370470A469D
:102840000021018BC1F30E01130641EA13410183FC
:1028500070470A460021818B4FF67F731940114360
:10286000818370470A460021818BC1F30E01130654
:1028700041EA1341818370470A460021018C4FF6DB
:10288000FD7319401143018470470A460021018CF1
:102890004FF6F77319401143018470470A4600212F
:1028A000018C4FF6DF731940130541EA134101848F
:1028B00070470A460021018C4FF67F7319401305BB
:1028C00041EA1341018470470A460021018C4FF60A
:1028D000FF531940130641EA1341018470470A4629
:1028E0000021018C4FF2FF731940130641EA134196
:1028F000018470470A460021018C4DF6FF73194090
:10290000130741EA13410184704730B500230124C5
:102910008C40A3B2048CDD43ADB22C400484048C03
:1029200002FA01F5ADB22C43048430BD30B500236A
:1029300004248C40A3B2048CDD43ADB22C4004844B
:10294000048C02FA01F5ADB22C43048430BD70B59D
:102950000346002000241846183001258D40ACB2F3
:102960001D8CE643B6B235401D8409B1082909D152
:1029700000EB6100056825F07005056005681543EA
:1029800005600CE00D1FADB200EB6500056825F495
:10299000E04505600568160645EA1645056070BD08
:1029A00021B1028842F00202028004E002884FF660
:1029B000FD731A400280704721B1028842F0040280
:1029C000028004E002884FF6FB731A4002807047D1
:1029D00021B1828842F08002828004E082884FF632
:1029E0007F731A408280704702884FF6F7731A404F
:1029F000028002880A430280704782884FF68F73F4
:102A00001A40828082880A438280704702894FF68A
:102A1000F8731A40028102890A43028170470289D1
:102A20004FF67F731A40028102890A430281704780
:102A30008184704781857047818670470187704720
:102A400081877047A0F84010704702884FF6FF4317
:102A50001A40028002880A43028070470146888E2D
:102A600070470146088F70470146888F70470146BE
:102A7000B1F8400070470146888C70470146088DC8
:102A8000704702460020138A0B4201D0012000E06B
:102A900000207047CA430282704730B502460020CA
:102AA00000230024158A05EA0103958905EA01043B
:102AB00013B10CB1012000E0002030BDCA430282F6
:102AC0007047000010B50446FC48844209D101213A
:102AD0008803FFF7D1F800214FF48040FFF7CCF8CE
:102AE00032E0F748844209D101214804FFF7D1F8C8
:102AF00000214FF40030FFF7CCF825E0F148844284
:102B000009D101218804FFF7C4F800214FF4802087
:102B1000FFF7BFF818E0EC48844209D10121C8044E
:102B2000FFF7B7F800214FF40020FFF7B2F80BE0F1
:102B3000E648844208D101210805FFF7AAF80021E0
:102B40004FF48010FFF7A5F810BD2DE9F04786B0CF
:102B500005460E460024A24600BFA1460027B089C4
:102B600000B100BF2F462C8A4CF6FF700440F0885D
:102B700004432C82AC894EF6F3100440B0883189AE
:102B80000843718908430443AC81AC8A4FF6FF4087
:102B90000440B0890443AC8201A8FEF7E6FFC748B1
:102BA000874202D1DDF810A001E0DDF80CA0A88971
:102BB00010F4004F08D00AEBCA0000EB0A1031688D
:102BC0004900B0FBF1F807E00AEBCA0000EB0A107D
:102BD00031688900B0FBF1F86420B8FBF0F0040123
:102BE0002009642101FB1089A88910F4004F08D046
:102BF000322000EBC900B0FBF1F000F00700044305
:102C000008E0322000EB09106421B0FBF1F000F085
:102C10000F0004432C8106B0BDE8F0874FF4165135
:102C2000016000218180C18001810C21418100214E
:102C30008181704710B502460020108A4FF2FF03D1
:102C400018400B884C8823438C882343CC8823432B
:102C50001843108210BD0021018041808180C18015
:102C6000704721B1828942F40052828104E0828956
:102C70004DF6FF731A4082817047F0B50346002479
:102C8000002600250020A1F510676A3F00D100BF93
:102C90001846C1F3421401F01F06012707FA06F592
:102CA000012C01D10C3004E0022C01D1103000E0E5
:102CB00014301AB107682F43076002E00768AF437A
:102CC0000760F0BD10B51AB1838A0B43838204E01C
:102CD000838ACC43A4B22340838210BD028A4FF67C
:102CE000F0731A400282028A0A4302827047828984
:102CF0004FF2FF731A40828182890A4382817047B2
:102D000021B1828942F00202828104E082894FF679
:102D1000FD731A4082817047028A4FF6DF731A40B2
:102D20000282028A0A430282704721B1028A42F477
:102D30008042028204E0028A4BF6FF731A4002824C
:102D40007047C1F308028280704701468888C0F34B
:102D500008007047818941F0010181817047028B31
:102D6000D2B20283028B42EA012202837047028BB5
:102D700002F47F420283028B0A430283704721B12F
:102D8000828A42F02002828204E0828A4FF6DF7358
:102D90001A408282704721B1828A42F010028282F8
:102DA00004E0828A4FF6EF731A408282704721B1A5
:102DB000828A42F00802828204E0828A4FF6F77328
:102DC0001A408282704721B1828942F40042828196
:102DD00003E08289C2F30E028281704721B1828AA8
:102DE00042F40062828204E0828A4FF2FF731A404A
:102DF00082827047828A4FF6FB731A408282828AEF
:102E00000A438282704721B1828A42F002028282A2
:102E100004E0828A4FF6FD731A40828270470246B0
:102E20000020B1F5007F00D100BF13880B4201D014
:102E3000012000E00020704701F40072B2F5007F2D
:102E400000D100BFCA430280704770B5024600241B
:102E5000002300250020A1F510666A3E00D100BFC6
:102E6000C1F3421501F01F03012606FA03F3012DF9
:102E700002D19689334006E0022D02D1168A3340F2
:102E800001E0968A33400C12012606FA04F41688F3
:102E9000344013B10CB1012000E0002070BD10B52A
:102EA00000220023A1F510646A3C00D100BF0A1281
:102EB00001249440A3B2DC43048010BD00380140DB
:102EC0000044004000480040004C004000500040DA
:102ED00008B54FF4A060FDF711FD0D208DF800003E
:102EE00000208DF801008DF8020001208DF803000C
:102EF0006846FDF708FD1C208DF8000001208DF8C4
:102F0000010000208DF8020001208DF803006846C2
:102F1000FDF7F9FC1D208DF8000001208DF801005F
:102F20008DF802008DF803006846FDF7ECFC1E20CA
:102F30008DF8000001208DF8010002208DF80200BC
:102F400001208DF803006846FDF7DDFC32208DF886
:102F5000000001208DF8010003208DF802000120FF
:102F60008DF803006846FDF7CEFC36208DF8000092
:102F700003208DF801008DF8020001208DF8030078
:102F80006846FDF7C0FC37208DF8000002208DF860
:102F9000010000208DF8020001208DF80300684632
:102FA000FDF7B1FC08BD08B501210920FEF74AFE76
:102FB00001214806FEF753FE01214FF4EA10FEF707
:102FC0005CFC4FF48070ADF8000048208DF80300E1
:102FD00003208DF802006946FE48FEF77FFB4FF4A0
:102FE0000070ADF8000018208DF8030003208DF864
:102FF00002006946F748FEF771FB08BD08B51420CA
:103000008DF8000000208DF8010001208DF80200ED
:103010008DF803006846FDF776FC08BD0EB5EE4856
:10302000FDF7DAFC6846FDF7FFFD00208DF806008D
:1030300001208DF807008DF8080000208DF80900A8
:103040008DF80A008DF80B008DF802008DF8030052
:1030500004208DF8040002208DF805000420ADF84E
:1030600000006946DC48FDF7D0FC0EBD1FB500200E
:103070008DF80A008DF80B0001208DF80C0000205F
:10308000ADF80000ADF80200ADF80400ADF80600A0
:10309000ADF8080001208DF80D006846FDF743FDEE
:1030A00001220221CC48FEF73DF801221146CA4810
:1030B000FEF738F81FBD10B5FFF775FFFFF79EFF4D
:1030C000FFF7ACFFFFF7D2FF10BD00B589B00121BB
:1030D0000846FEF7B7FD0121C802FEF7B3FD012146
:1030E0000420FEF7AFFD4FF47060ADF82000032020
:1030F0008DF8220018208DF8230008A9B748FEF7A4
:10310000EDFA4820ADF814000020ADF8160044F6A2
:103110002060ADF818000020ADF81A008DF81C00F2
:1031200005A9AF48FEF7CAFE7020ADF804000120E3
:10313000ADF806000020ADF808000220ADF80C0044
:103140000020ADF80E004FF48070ADF810000020A4
:10315000ADF8120001A9A248FEF7EDFE01A9A048B2
:10316000FEF72BFF01A99E48FEF770FF01A99C48BE
:10317000FEF7B3FF00209A4934310880091D08800A
:10318000091D0880091D088001219548FFF7C6F92F
:1031900001219348FFF7CEF909B000BD00B589B011
:1031A00001210846FEF74EFD01214803FEF74AFDC6
:1031B00001211020FEF746FD4FF47070ADF820009D
:1031C00003208DF8220018208DF8230008A98548D7
:1031D000FEF784FA0020ADF81400ADF816004FF4A5
:1031E000E150ADF818000020ADF81A008DF81C0071
:1031F00005A97D48FEF762FE7020ADF804000120AD
:10320000ADF806000020ADF808000220ADF80C0073
:103210000020ADF80E004FF48070ADF810000020D3
:10322000ADF8120001A97048FEF785FE01A96E48AD
:10323000FEF7C3FE01A96C48FEF708FF01A96A4822
:10324000FEF74BFF0020684934310880091D0880D3
:10325000091D0880091D088001216348FFF75EF9F8
:1032600001216148FFF766F909B000BD00B587B0DC
:1032700001215E48FEF701FB01210846FEF7E2FC52
:1032800001210846FEF7EBFC01210420FEF7DAFCE1
:1032900001210820FEF7D6FC01215548FEF7EDFA82
:1032A0004FF40040ADF8180048208DF81B000320B3
:1032B0008DF81A0006A94948FEF710FA0122D10339
:1032C0004648FEF7BAFA0820ADF8180048208DF8F5
:1032D0001B0003208DF81A0006A93E48FEF7FEF9F0
:1032E000012208213B48FEF7A8FA44F62060ADF819
:1032F00010000020ADF80C00ADF81200ADF80E0083
:1033000003A94FF08040FEF7D9FD0A231A46032196
:103310005807FFF7C4F96846FFF7EEF80620ADF846
:10332000080069464FF08040FFF73AF8012188070E
:10333000FFF7B0FB012211469007FFF714F90020B8
:103340004FF08041888401218807FFF7E7F807B034
:1033500000BD00B587B001210846FEF773FC0121CE
:103360000220FEF77CFC01210420FEF76BFCC0204C
:10337000ADF8180048208DF81B0003208DF81A00C6
:1033800006A91648FEF7AAF9012240211348FEF7C4
:1033900054FA012280211148FEF74FFA44F62060CA
:1033A000ADF810000020ADF80C00ADF81200ADF83B
:1033B0000E0003A90F48FEF781FD0A231A460321D8
:1033C0000C48FFF76CF96846FFF796F80620ADF851
:1033D000080011E0000C01400064004000080140BA
:1033E000002C014000100140003401400002300078
:1033F00000031800000400406946FE48FEF7D0FFB5
:103400000121FC48FFF746FB01221146F948FFF76E
:10341000AAF80020F749243108800121F548FFF778
:103420007DF807B000BD00B587B001210846FEF762
:1034300009FC01210420FEF712FC01210820FEF7FF
:1034400001FCC020ADF8180048208DF81B000320B7
:103450008DF81A0006A9E848FEF740F9012240213C
:10346000E548FEF7EAF901228021E348FEF7E5F995
:1034700044F62060ADF810000020ADF80C00ADF867
:103480001200ADF80E0003A9DC48FEF717FD0A2371
:103490001A460321D948FFF702F96846FFF72CF8CE
:1034A0000620ADF808006946D448FEF779FF0121EF
:1034B000D248FFF7EFFA01221146D048FFF753F840
:1034C0000020CE49243108800121CC48FFF726F89E
:1034D00007B000BD00B587B001210846FEF7B2FB7A
:1034E00001210820FEF7BBFB01210420FEF7AAFB07
:1034F0000320ADF8180048208DF81B0003208DF83C
:103500001A0006A9BE48FEF7E9F801221146BC4898
:10351000FEF793F901220221B948FEF78EF944F62D
:103520002060ADF810000020ADF80C00ADF81200DE
:10353000ADF80E0003A9B348FEF7C0FC0A231A46F3
:103540000321B048FFF7ABF86846FEF7D5FF062029
:10355000ADF808006946AB48FEF722FF0121A948F3
:10356000FFF798FA01221146A648FEF7FCFF00205B
:10357000A449243108800121A248FEF7CFFF07B0FB
:1035800000BD0EB501211020FEF769FB41F2873026
:10359000ADF804004720ADF800000020ADF80600AB
:1035A000ADF802008DF8080069469748FEF786FCE2
:1035B00001219548FFF700FA012211469248FEF7D3
:1035C000D2FF01219048FEF7A9FF0EBD0EB50121E3
:1035D0002020FEF744FB41F28730ADF8040047207D
:1035E000ADF800000020ADF80600ADF802008DF83F
:1035F000080069468548FEF761FC01218348FFF712
:10360000DBF9012211468148FEF7ADFF01217F4819
:10361000FEF784FF0EBD10B5FFF757FDFFF7BEFDA7
:10362000FFF724FEFFF795FEFFF7FDFEFFF752FFC1
:10363000FFF7A7FFFFF7CAFF10BD10B541F62C2317
:10364000984200DD1846724B984200DA184600286E
:1036500002DA4142012201E0014600222AB10023A0
:103660006C4C2380241D218004E06A4C21800023BF
:10367000241D238010BD10B541F62C23984200DD97
:103680001846634B984200DA1846002802DA414295
:10369000012201E00146002232B100235D4C0834D2
:1036A0002380241D218005E05A4C0834218000230A
:1036B000241D238010BD10B541F62C23984200DD57
:1036C0001846534B984200DA1846002802DA414265
:1036D000012201E0014600222AB100234E4C238042
:1036E000241D218004E04C4C21800023241D2380D4
:1036F00010BD10B541F62C23984200DD1846444B0E
:10370000984200DA1846002802DA4142012201E01C
:103710000146002232B100233F4C08342380241D8F
:10372000218005E03C4C083421800023241D2380A7
:1037300010BD08B501214820FEF784FA4FF460401F
:10374000ADF8000010208DF8030003208DF8020072
:1037500069462948FDF7C2FF4FF400412648FEF7AD
:103760006AF84FF480412448FEF765F84FF40051A1
:103770002148FEF760F808BD10B56FF00400FDF7B2
:103780000DF910BD014601EBC10222F060424FF479
:103790007A735A434FF0E0235A6100229A61012262
:1037A0001A6100BF4FF0E022106910F0010F02D043
:1037B00010F4803FF6D000224FF0E0231A619A61A6
:1037C0007047014601EBC10222F060424FF0E02356
:1037D0005A6100229A6101221A6100BF4FF0E02273
:1037E000106910F0010F02D010F4803FF6D00022D3
:1037F00014E0000000040040000C014000080040FC
:1038000000080140000C004000100040001400407F
:10381000D4E5FFFF342C0140343401404FF0E02365
:103820001A619A61704700B585B00121D348FEF74F
:1038300016FA4FF40060ADF8100004208DF8130064
:1038400004A9CF48FDF74AFFCE4800900020ADF80C
:103850000400ADF806004FF48060ADF808000020C9
:10386000ADF80C000420ADF80A006946C648FFF721
:103870006CF90121C448FFF7F4F905B000BD00B5AB
:103880008BB001210846FEF7D0F9BF48001D00901B
:10389000BE48019000200290122003900020049066
:1038A00080200590002006900790202008904FF47B
:1038B0004050099000200A906946B548FDF728FE5F
:1038C0000121B348FDF74FFE01220221B048FDF768
:1038D00056FE0BB000BD10B5FFF7FAFAFFF79BFEDE
:1038E000FFF727FFFFF748FFFFF7E5FB10BD10B517
:1038F0004FF08042928C12B2A64B1A811A469169FF
:10390000B2F90830B2F9102040F27124624303EB9F
:103910004210421A12B29F4B1A8013E09D4A128A3B
:10392000521E12B29B4B1A821A46B2F90830B2F9F3
:10393000102040F27124624303EB4210421A12B28B
:10394000944B1A80934AB2F9002042F210739A42C3
:10395000E4DC13E08F4A128A521C12B28D4B1A8299
:103960001A46B2F90830B2F9102040F271246243CD
:1039700003EB4210421A12B2864B1A80854AB2F902
:103980000020854B9A42E5DB824A906110BD10B55C
:10399000824A128812B27F4B5A811A46D169B2F913
:1039A0000A30B2F9122040F27124624303EB421054
:1039B000421A12B2774B5A8013E0764A528A521E4C
:1039C00012B2744B5A821A46B2F90A30B2F9122076
:1039D00040F27124624303EB4210421A12B26D4B63
:1039E0005A806C4AB2F9022042F210739A42E4DC27
:1039F00013E0684A528A521C12B2664B5A821A4627
:103A0000B2F90A30B2F9122040F27124624303EB9A
:103A10004210421A12B25F4B5A805E4AB2F902203B
:103A20005D4B9A42E5DB5B4AD06110BD10B55C4A44
:103A3000128812B2574B9A811A46116AB2F90C30A9
:103A4000B2F9142040F27124624303EB4210421A8F
:103A500012B2504B9A8013E04E4A928A521E12B212
:103A60004C4B9A821A46B2F90C30B2F9142040F24B
:103A70007124624303EB4210421A12B2454B9A8002
:103A8000444AB2F9042042F210739A42E4DC13E093
:103A9000404A928A521C12B23E4B9A821A46B2F99E
:103AA0000C30B2F9142040F27124624303EB42104F
:103AB000421A12B2374B9A80364AB2F90420364B7A
:103AC0009A42E5DB334A106210BD10B5354A1288C0
:103AD00012B2304BDA811A46516AB2F90E30B2F99D
:103AE000162040F27124624303EB4210421A12B2D4
:103AF000284BDA8013E0274AD28A521E12B2254B95
:103B0000DA821A46B2F90E30B2F9162040F2712468
:103B1000624303EB4210421A12B21E4BDA801D4A76
:103B2000B2F9062042F210739A42E4DC13E0194A1B
:103B3000D28A521C12B2174BDA821A46B2F90E30F0
:103B4000B2F9162040F27124624303EB4210421A8C
:103B500012B2104BDA800F4AB2F906200E4B9A428D
:103B6000E5DB0C4A506210BD00B5FFF7C0FEFFF761
:103B70000EFFFFF75BFFFFF7A8FF00BD0800040082
:103B8000000C0140A086010000480040C000002059
:103B900030000240E8000020F0D8FFFF240400407D
:103BA00024080040240C00402DE9F0410446002187
:103BB000206800F0C3FD03D2206880F00040206040
:103BC0000021606800F0BAFD03D2606880F0004018
:103BD00060600021A06800F0B1FD03D2A06880F011
:103BE0000040A0600021E06800F0A8FD03D2E0687A
:103BF00080F00040E0602069E0612169206A00F007
:103C0000A7FC20620021E06800F010FD13D0E168FD
:103C1000206A00F09AFE02D2E06820620BE0E068C1
:103C200080F000452846216A00F08FFE03D2E0684C
:103C300080F000402062A169206900F0C1FE60624E
:103C40002069A061616AA06800F0ACFD0646216AA7
:103C5000606800F0A7FD0746E169206800F0A2FD5A
:103C60008046394600F074FC0546314600F070FC91
:103C70006061BDE8F0812DE9F05F04460021206815
:103C800000F05CFD03D2206880F00040206000213D
:103C9000606800F053FD03D2606880F0004060600F
:103CA0000021A06800F04AFD03D2A06880F0004027
:103CB000A060A169E06800F083FE8046E5684FF0EF
:103CC0008040A16900F06EFD8146E16800F06EFE63
:103CD0000746E16900F03CFC0646A069E061E06847
:103CE000A0613146A06800F05DFD8146294660680C
:103CF00000F058FD82464146206800F053FD83469F
:103D0000514600F025FC0746494600F021FC2061A1
:103D10000021206800F08AFC0CD10021606800F0CE
:103D200085FC07D10021A06800F080FC02D10020B2
:103D3000606104E0D4E9041000F00AFC6061BDE8B1
:103D4000F09F10B504465548C0695549086055486C
:103D5000046001460968524A1268881A00F0D6FCCD
:103D600051490861514800680860504840684860FF
:103D70004E48806888604D48C068C8600846FFF7B4
:103D800013FF4949486900F085FC49490860084625
:103D90000068FFF790FC10BD10B504463F48B0F92D
:103DA0000600444908604448046001460968414AE5
:103DB0001268881A00F0AAFC40490861404808606F
:103DC00040484860002088603848C068C86008469D
:103DD000FFF7EAFE3949486900F05CFC3A4908609F
:103DE00008460068FFF785FC10BD10B504462B4857
:103DF000B0F900003549086035480460014609689B
:103E0000324A1268881A00F081FC3249086127485A
:103E100000680860254840684860244880688860D9
:103E20002248C068C8600846FFF7BEFE29494869B5
:103E300000F030FC284908601D480068FFF7FDFBD2
:103E400010BD10B504461548B0F9040023490860B8
:103E50002348046001460968204A1268881A00F065
:103E600055FC204908611148006808600F48406807
:103E700048600E48806888600C48C068C860084682
:103E8000FFF792FE1749486900F004FC16490860E4
:103E90000D480068FFF7EFFB10BD0000E8000020B0
:103EA000540000205000002010010020B00100202C
:103EB00058000020600000205C0000203801002035
:103EC00000008C4200004842640000206C0000208A
:103ED00068000020600100207000002078000020B1
:103EE00074000020880100207C0000204FF08040FA
:103EF000124908604FF07C504860002088601048EC
:103F0000C8601048407A022803D00E48407A03283F
:103F10000CD10C484088C0F58060C0EB00108000D8
:103F200009490860084600680449086107480078A4
:103F300010B900200149086170470000B00100205D
:103F400000007A44D2000020880000208000002079
:103F5000704770477047754600F028F8AE46050078
:103F60006946534620F00700854618B020B5FCF797
:103F7000B3FCBDE820404FF000064FF000074FF0C3
:103F800000084FF0000B21F00701AC46ACE8C00977
:103F9000ACE8C009ACE8C009ACE8C0098D46704780
:103FA0000446AFF300802046FCF70BF90048704749
:103FB000D001002000487047D4010020014918209A
:103FC000ABBEFEE7260002007047000021F0004271
:103FD000A2F16052B2F5801F01F0004328BFD2F178
:103FE0007F6C0BD95FEA001C43EAC20242EB5070BF
:103FF00018BF704728BF20F001007047B2F5801F3E
:10400000BCBF184670474FEA410C1CF5001F02D296
:10401000084600F095BC70B500F0FAF80000008981
:10402000FFF7F6BF4FF00040A0F58000704700009A
:1040300010B591EA030F48BF83F0004300F17A8185
:10404000841A71EB030C05D2121943EB0C03001B0D
:1040500061EB0C01DFF824E14FEA1154A4EB135C8F
:104060001EEA430F18BF9EEA445F73D023EA0E0393
:10407000DCF1200E21EA045143F4801332D322FAFA
:104080000CFE10EB0E0023FA0CFE41EB0E01CCF1FE
:10409000200E03FA0EFE10EB0E0051F10001B1F5F7
:1040A000801FCCF1200E32D201EB045112FA0EF235
:1040B000BDE8104058BF7047401C38BF5FEA42025D
:1040C00018BF7047002814BF20F0010041F1000123
:1040D0004FEA410313F5001F38BF7047A1F1C041FB
:1040E00000F0E4B8012A43EB0302ACF1200CDCF150
:1040F0001F0E32BF4FF0000E23FA0CF310EB03003B
:1041000041EB0451B4EB115FD0D0A1EB045101F5A8
:10411000801149085FEA300001EB04510ED350F1E1
:10412000000038BF12FA0EFE08D1BDE81040C9E702
:10413000401C38BF5FEA4202CAD1C3E7BDE8104065
:104140004FEA410313F5001F38BF7047A1F1C0418A
:1041500000F0ACB89EEA445F08D011EA5E0FBDE8FB
:10416000104004BF01F0004100207047BDE810403E
:1041700070B500F04DF800BF64FBBE3E0000E0FFEC
:10418000491058BFC1F140415B1058BFC3F14043D3
:104190008B42EFF30080704751EA030C17D41CF5F3
:1041A000801F58BFBCF5801F00F10680994218BFE0
:1041B000704708BF9042704707D711F5801F58BF5E
:1041C00013F5801F19D499427047894270471CF536
:1041D000801F08D5BCF5801FF7D58B4218BF7047EC
:1041E00008BF824270474FF4001C1CEB410F38BFE0
:1041F0001CEB430F01D28B42704770B500F008F8FA
:10420000922449004FF000514FF08053FFF7B8BFA0
:104210000EF1020E2EF0030E5EF8046B364205D44A
:10422000012A43EB030515F5001F12D8012841EBC5
:10423000010C1CF5001F0CD80ED14FEAD17C15F5EE
:10424000001F0CEB4C0C0CF1020C08BF4CEBD37CA8
:1042500004E04FF0080C01E04FEAD37C0CEB4C0576
:1042600026FA05F606F00706B6F1040C06D20EEBA8
:10427000860CBDE870404CF0010C6047DFE80CF0A4
:10428000090B02024FF000414FF00000A1F50021A0
:1042900070BD19461046012851EB010418BFD4F532
:1042A000001484BF002001F0004170BD0808A0F593
:1042B00000114FEA3101704753EA010C17D41CF585
:1042C000801F58BFBCF5801F00F106808B4218BFCD
:1042D000704708BF8242704707D713F5801F58BF49
:1042E00011F5801F19D48B4270479B4270471CF513
:1042F000801F08D5BCF5801FF7D5994218BF7047BD
:1043000008BF904270474FF4001C1CEB430F38BFAE
:104310001CEB410F01D2994270470FB40CBC03BC97
:10432000FFF76BBF10B591EA030F48BF83F000435E
:104330003FF586AE841A71EB030C07D212198CF08C
:10434000004C43EB0C03001B61EB0C01DFF8A4E114
:104350004FEA1154A4EB135C1EEA430F18BF9EEA08
:10436000445F00F0B08023EA6E03524221EA045118
:10437000C3EB6E0338BF5B1EDCF1200E25D322FA9F
:104380000CFE10EB0E0043FA0CFE41EB0E01CCF1DB
:10439000200E03FA0EFE10EB0E0051F10001CCF1DD
:1043A000200E29D412FA0EF201EB0451BDE81040A0
:1043B00058BF7047401C1CBFB2F1004F7047002827
:1043C0000CBF491C20F00100704712EB020E43EBBA
:1043D000030218BF4FF0010E4EEA4202ACF1200C6E
:1043E000DCF11E0E54D943FA0CFE10EB0E0051F115
:1043F000FF31CCF11E0ED5D50EF1010E12FA0EFED4
:10440000404141EB010101EB445C5FEA5C5C10D987
:1044100010EBDE7001EB045138BFBEF1004FBDE878
:10442000104018BF704700280CBF491C20F0010045
:10443000704730D24FEAD42C11F5001124F40064F7
:104440001BD0B1FA81F20B3AA41AA41ED2F12003B8
:10445000914030FA03F31943904001EBCC71002CEA
:1044600001EB0451BDE81040A8BF704701F1C04105
:104470004FF0000001F000417047B0FA80F310FAED
:1044800003F100D110BDE41A173C4805C90AE4E75E
:1044900001EB045110BD491001EB0451BDE810407F
:1044A0004FEA300002E04FF0000170474A0008BFB9
:1044B0000042F8D0B2F5001F28BF704701F000415C
:1044C0004FF0000070479EEA445F07D011EA5E0F8C
:1044D000BDE8104004BF002100207047BDE8104037
:1044E00070B5FFF795FE00BF40DFF63E83F0004158
:1044F000104670470000E0FF43004FEAD30C4FEA3C
:104500003C0C43401FBF40070CF1605113F0FE4FBD
:1045100070471CF0006F03D100200CF00041704781
:104520000CF0004343EA507010B540EACC0000F0B4
:10453000BAF900BF000000924FEA0001FFF7B6BED3
:104540004FF000414FF00000A1F50021704700003E
:1045500090EA010F48BF81F0004100F13882421A11
:104560003CBF801A89184FEAD0524FF07F4C1CEAAA
:10457000410FA2EBD15318BF9CEA026F00F03B80C1
:104580004FF0004C4CEA00204CEA012121FA03FCD8
:1045900010EB0C0C1ED202F1FF325FEA1C2040EB44
:1045A000C25038BF70471CF07F0F4FEA400C18BF55
:1045B000BCF17F4F38BF7047C3F12003994008BF5B
:1045C00020F00100BCF17F4F38BF7047A0F1C04020
:1045D00000F0B6B94FEA3C00000A40EBC25028BFD9
:1045E0001CF0FF0F4FEA400CE6D018BFBCF17F4F24
:1045F00038BF7047EAE79CEA026F05D010EA5C0F0B
:1046000008BF00F00040704710B500F04CF900BF43
:1046100064FBBE3E401058BFC0F14040491058BF37
:10462000C1F140418142EFF30080704750EA010C34
:1046300000F113801CF5000F58BFBCF5000F01D42A
:104640008842704707D710F5000F58BF11F5000FCB
:1046500015D488427047894270471CF5000F04D575
:10466000BCF5000FF7D5814270474FF0807C1CEB02
:10467000400F38BF1CEB410F01D28142704710B58B
:1046800000F011F9922449004FF000504FF0805192
:10469000FFF7C0BF41000B0ED3F19E0208D950F4C2
:1046A00000034FEA032323FA02F048BF4042704759
:1046B00010B500F0F8F800BF499224800020704740
:1046C0006FF0004282EA200070470000C10DD1F176
:1046D0009E0206DB4FEA002343F0004323FA02F078
:1046E0007047004207D54FEA4001B1F1FE4F02D2B8
:1046F0004FF00000704710B500F0D5F849922480C3
:10470000002070476FEA20007047000010F0004161
:1047100048BF4042B0FA80F310FA03F2C3F19D03A0
:104720000BD051EAC35101EB1220530638BF70473A
:1047300000F1010008BF20F00100704750EA010CB1
:1047400000F113801CF5000F58BFBCF5000F01D419
:104750008842704707D710F5000F58BF11F5000FBA
:1047600015D488427047894270471CF5000F04D564
:10477000BCF5000FF7D5814270474FF0807C1CEBF1
:10478000400F38BF1CEB410F01D28142704710B57A
:1047900000F089F8922449004FF000504FF080510A
:1047A000FFF738BF4FF47F0C1CEAD0121EBF1CEA83
:1047B000D11392EA0C0F93EA0C0F00F0478090EAB5
:1047C000010F48BF42F480724FF0004C4CEA0020C9
:1047D0004CEA012102EB0302A0FB0113A2F5000247
:1047E000002918BF43F001035B0028BF4FEA3303E1
:1047F00042EB22425FEA132C4CEBC2502EBFBCEBC3
:10480000436FB2F57C0F70474FEA036CBCF1004F69
:1048100008BF20F00100B2F57C0F38BF70470BD500
:1048200082F0FF0212F5803FC8BF704700F1C04020
:10483000D8BF00F00040704700F5000C5FEA4C0C58
:1048400048BF7047B0F1C04000F07AB890EA010F5D
:104850000CEAD11348BF42F48072624538BF634509
:1048600004D280EA010000F00040704710B500F06B
:104870001AF800BF8900013E00F007B800F009B83F
:104880005FEA410C5FEA1C6C08D080EA010000F08E
:1048900057B85FEA400C5FEA1C6CF6D14FF000405D
:1048A000A0F5800070470EF1020E2EF0030E5EF8A8
:1048B000044B244204D44FEA4102B2F17F4F11D895
:1048C0004FEA4003B3F17F4F0CD80ED14FEAD07CB2
:1048D000B2F17F4F0CEB4C0C0CF1020C08BF4CEB0F
:1048E000D17C04E04FF0080C01E04FEAD17C0CEBE6
:1048F0004C0324FA03F404F00704B4F1040C06D2C8
:104900000EEB840CBDE810404CF0010C6047DFE872
:104910000CF0070802024FF00040A0F5800010BD27
:104920000846420018BFD2F1807288BF00F00040F4
:1049300010BD10B5FFF73EFB4FF00001016010BD48
:10494000FF2141EAD050C005704751EA000C00F148
:1049500013801CF5000F58BFBCF5000F01D4814235
:10496000704707D711F5000F58BF10F5000F15D489
:1049700081427047894270471CF5000F04D5BCF591
:10498000000FF7D5884270474FF0807C1CEB410F39
:1049900038BF1CEB400F01D28842704780EA01000B
:1049A00081EA000180EA0100FFF7F1BE80F00040DB
:1049B00090EA010F7FF5D3AD81F0004100F007B818
:1049C00090EA010F48BF81F000413FF5C8AD421A9F
:1049D00004D882F00042A0EB020011444FEAD0520A
:1049E0004FF07F4C1CEA410FA2EBD15318BF9CEA59
:1049F000026F4AD04FF0004C4CEA00204CEA0121F3
:104A000021FA03FCB0EB0C0C0FD412F0FE0F36D0E1
:104A10005FEA4C001DD5001240EBC25038BF704712
:104A20001CF03F0F18BF70470BE0A2F101025FEAD4
:104A30001C2040EBC25038BF70471CF07F0F18BFDE
:104A40007047C3F12003994014BF401E20F00100BD
:104A5000704780084FEA122308BF7047B0FA80FC05
:104A6000A2EB0C02CCF1280C60FA0CF093EA122FA6
:104A700004BF00EBC25070474FEAC3707047130A7F
:104A80005FEADC1008BF7047F6E79CEA026F04D0CB
:104A900010EA5C0F08BF0020704710B5FFF703FF56
:104AA00040DFF63E81F0004070470000CC4A00082D
:104AB00000000020AC0000006C010008784B0008EA
:104AC000AC000020840700008801000800000000FE
:104AD00000007A4400000000000000000000000018
:104AE00000000000000000000000000000000000C6
:104AF0000000000000A24A040000000000000000C6
:104B00000102030406070809000000000102030473
:104B10000102030406070809020406080000000059
:104B20000000000000000000000000000000000085
:104B30000000000000000000000000000000000075
:104B40000000000000000000000000000000000065
:104B50000000000000000000000000000000000055
:104B60000000000000000000000000000000000045
:084B700000000000000000003D
:0400000508000131BD
:00000001FF
