:020000040800F2
:10000000708400209D140008A1120008A3120008AB
:10001000A7120008AB120008AF1200080000000091
:10002000000000000000000000000000B312000803
:10003000B512000800000000B7120008B91200084D
:10004000B7140008B7140008B7140008B714000864
:10005000B7140008B7140008B7140008B714000854
:10006000B7140008B7140008B7140008D501000839
:10007000B7140008B7140008B7140008B714000834
:10008000B7140008B7140008B7140008B714000824
:10009000B7140008B7140008B7140008B714000814
:1000A000B7140008B7140008B7140008B714000804
:1000B000B7140008B7140008B7140008B7140008F4
:1000C000B7140008B7140008B7140008B7140008E4
:1000D000B714000811370008B7140008B714000857
:1000E000B7140008B7140008B7140008B7140008C4
:1000F000B7140008B7140008B7140008B7140008B4
:10010000B7140008B7140008B7140008B7140008A3
:10011000B7140008B7140008B7140008B714000893
:10012000B7140008B7140008B7140008B714000883
:1001300000F002F800F03FF80AA090E8000C8244BA
:100140008344AAF10107DA4501D100F034F8AFF297
:10015000090EBAE80F0013F0010F18BFFB1A43F0A5
:1001600001031847045F0000245F0000103A24BF19
:1001700078C878C1FAD8520724BF30C830C144BF0C
:1001800004680C607047000000230024002500264E
:10019000103A28BF78C1FBD8520728BF30C148BFEA
:1001A0000B607047642903F09D84002070471FB5E1
:1001B0001FBD10B510BD03F073FD1146FFF7F7FF2B
:1001C00000F06FFC03F091FD03B4FFF7F2FF03BCF6
:1001D00003F040FA10B5022001F0FEFC012804D122
:1001E000FE490870022001F02AFD10BD2DE9FE4FE6
:1001F000044689462068029001255AE054F825609B
:100200003046029905F03AFD824605F075FA074638
:10021000F34AF44B05F05EF817D2691E54F821003A
:10022000314605F095FA0090029905F027FD0190FE
:1002300005F062FA0746EA4AEB4B05F073F982468D
:1002400004F06EFC44F8250030E03046029905F0D9
:1002500015FD824605F050FA0746E14AE34B04F0EB
:10026000FFFE17D2691E54F82100314605F070FADE
:100270000090029905F002FD019005F03DFA074655
:10028000D74AD94B04F07EFC824604F049FC44F87E
:1002900025000BE0691E54F82100314605F058FA9C
:1002A0000746029905F0EAFC44F825000296681C0E
:1002B00085B24D45A2DBBDE8FE8F07B5E6B0002054
:1002C0006490659062906390559022E0559966988D
:1002D00030F82100139004F0AFFECDE91401659BC6
:1002E000649A04F04FFC659164905599669800EB10
:1002F00081004088139004F09FFECDE91401639BB8
:10030000629A04F03FFC639162905598401C80B261
:100310005590689955988842D8DB689804F08CFE0F
:1003200002460B46CDE914016599649804F0E6FC99
:1003300065916490689804F07FFE02460B46CDE913
:1003400014016399629804F0D9FC639162900020D3
:10035000559020E0002216AB559903EBC1010A60CD
:100360004A60002054900FE00021559A02EB82026F
:1003700020AB03EBC203549A03EBC202116051603D
:100380005498401C80B2549054980528ECDB559842
:10039000401C80B2559055980528DBDB0020539017
:1003A0004AE15399669830F82100139004F044FE16
:1003B000CDE91401659B649A05F0B4F861916090F1
:1003C0005399669800EB81004088139004F034FE46
:1003D000CDE91401639B629A05F0A4F85F915E90E9
:1003E000609A1046619B194604F076FE5D915C9020
:1003F0005E9A10465F9B194604F06EFE5B915A9020
:100400005B9B5A9A5D995C9804F066FECDE91401F5
:10041000DDE92001CDE91201DDE9142304F0B2FB8E
:10042000CDE920015B9B5A9A6199609804F054FED3
:10043000CDE912015F9B5E9A04F04EFECDE91401F6
:10044000DDE92201CDE91201DDE9142304F09AFB74
:10045000CDE922015CA80FC804F03EFECDE91401ED
:10046000DDE92401CDE91201DDE9142304F08AFB62
:10047000CDE924015B9B5A9A6199609804F02CFEA7
:10048000CDE91401DDE92601CDE91201DDE91423EE
:1004900004F078FBCDE926015F9B5E9A6199609834
:1004A00004F01AFECDE91401DDE92801CDE91201BD
:1004B000DDE9142304F066FBCDE928015A9A1046C1
:1004C0005B9B194604F008FECDE9140120A9D1E98F
:1004D0000C01CDE91201DDE9142304F053FB20AA3D
:1004E000C2E90C015F9B5E9A5B995A9804F0F4FD97
:1004F000CDE9140120A9D1E91001CDE91201DDE90E
:10050000142304F03FFB20AAC2E9100120A9D1E97D
:100510001201CDE914015B9B5A9A04F033FB20AA27
:10052000C2E9120120A9D1E91801CDE914015D9BAE
:100530005C9A04F027FB20AAC2E9180134A9D1E98A
:100540000801CDE91401619B609A04F01BFB20AA0D
:10055000C2E91C013EA9D1E90801CDE914015F9B64
:100560005E9A04F00FFB3EAAC2E90801619B609A03
:100570005D995C9804F0B0FDCDE912015F9B5E9A35
:1005800004F0AAFDCDE91401DDE91601CDE912015F
:10059000DDE9142304F0C6FFCDE916015B9B5A9AEE
:1005A0005D995C9804F098FDCDE91401DDE918012E
:1005B000CDE91201DDE9142304F0B4FFCDE91801FF
:1005C000619B609A5D995C9804F086FDCDE9140109
:1005D000DDE91A01CDE912010AE000000000002067
:1005E000182D4454FB210940FB211940FB2109C06F
:1005F000DDE9142304F096FFCDE91A015CA80FC8C9
:1006000004F06AFDCDE91401DDE91C01CDE9120118
:10061000DDE9142304F086FFCDE91C01DDE91E01AC
:10062000CDE914015D9B5C9A04F07CFFCDE91E01CD
:100630005398401C80B25390689953988842FFF6B3
:10064000B0AE20A8D0E912103EAAC2E9061020A937
:10065000DDE92620C1E90E20DDE92820C1E91A20C4
:10066000689804F0E9FC48AAC2E908010120559005
:1006700022E00020549017E0549800EB800020A95D
:1006800001EBC001559801EBC00103C9559A02EB7B
:10069000820220AB03EBC203549A03EBC20203C2F3
:1006A0005498401C80B25490559954988842E3DB8A
:1006B0005598401C80B2559055980528D9DB0020EC
:1006C0005590B0E0559800EB800020A901EBC001E7
:1006D000559801EBC00003C85991589000205390E1
:1006E0001DE0559800EB800020A901EBC001539854
:1006F00001EBC00103C9CDE91401599B589A04F0DC
:10070000FDFA559A02EB820220AB03EBC203539A27
:1007100003EBC20203C25398401C80B2539053981B
:100720000528DEDB16A9559801EBC00103C9CDE908
:100730001401599B589A04F0E1FA16AB559A03EB51
:10074000C20203C20020549066E0549800EB80007F
:1007500020A901EBC001559801EBC00003C85791D7
:10076000569055995498884252D0559853902FE0FE
:10077000559800EB800020A901EBC001539801EBD4
:10078000C00103C9CDE91201579B569A04F0A4FC9D
:10079000CDE91401549800EB800020A901EBC001C1
:1007A000539801EBC00103C9CDE91201DDE914231F
:1007B00004F0B8FE549A02EB820220AB03EBC203B2
:1007C000539A03EBC20203C25398401C80B2539069
:1007D00053980528CCDB16A9559801EBC00103C935
:1007E000CDE91201579B569A04F076FCCDE914012D
:1007F00016A9549801EBC00103C9CDE91201DDE946
:10080000142304F08FFE16AB549A03EBC20203C20A
:100810005498401C80B254905498052895DB559804
:10082000401C80B2559055980528FFF64BAF00202C
:1008300055900FE016A9559801EBC00103C981F04E
:10084000004116AB559A03EBC20203C25598401CF7
:1008500080B2559055980528ECDBDDE9180181F050
:100860000041CDE9140104F035F961916090002058
:100870004FF08041619B609A04F02EFCCDE912019B
:10088000DDE91601CDE91001DDE9122304F036FAA5
:10089000CDE9140103F05AFD679AC2E90801DDE9C8
:1008A0001601CDE90C0102460B46CDE90A0104F020
:1008B00013FCCDE91001DDE9180102460B46CDE934
:1008C0000C010020FE4904F007FCCDE90E01DDE932
:1008D000102304F027FECDE91401DDE91C010246D6
:1008E0000B46CDE90C0100204FF0804104F0F4FBF1
:1008F000CDE91001DDE91A01CDE90C01DDE91601B0
:10090000CDE90A01DDE90C2304F0E6FBCDE90E0197
:10091000DDE9102304F036F9CDE91201DDE91423F5
:1009200004F0ECF9679AC2E906016798C169806929
:10093000CDE90E01DDE91601CDE90C01DDE90E235B
:1009400004F0CAFB00224FF08043CDE9100104F00F
:10095000D5F9CDE91401DDE91A0100224FF08043F9
:10096000CDE9100104F0CAF9CDE91201DDE9142343
:1009700004F008F9679AC2E904016798D0E90812FF
:1009800008461146CDE9100204F04CF8CDE91401F7
:100990006799D1E90401CDE90601DDE91601CDE948
:1009A0000401DDE9062304F097FBCDE9080167990E
:1009B000D1E90601CDE90601DDE9082304F08CFB4D
:1009C000CDE90C016799D1E90601CDE90201DDE924
:1009D0001801CDE90001DDE9022304F07DFBCDE93A
:1009E00004016799D1E90601CDE90201DDE904239B
:1009F00004F072FBCDE908016799D1E90401CDE962
:100A000004016799D1E90401CDE90201DDE904237C
:100A100004F062FBCDE90601DDE9082304F082FD64
:100A2000CDE90A01DDE90C2304F07CFDCDE90E01DE
:100A3000DDE91E01CDE90C01DDE90E2304F0A2F889
:100A4000CDE9100104F046F8CDE91201DDE91423E7
:100A500004F054F9679A03C2679903C9CDE91401F8
:100A6000619B609A04F04AF9679AC2E902016799AA
:100A7000D1E90401CDE91401659B649A04F082F880
:100A8000679AC2E904016799D1E90601CDE9140129
:100A9000639B629A04F076F8679AC2E9060169B02E
:100AA00000BDBEB04FF4C8708649088002F068FDF2
:100AB0004FF4E13002F0DDFD02F070FE02F06CFF59
:100AC0004FF47A63804A8149814802F01FFF02F0A7
:100AD00077FF00BF7F48007801287CD1002022905A
:100AE0002AE07949229831F82000C0F30B017A4AB4
:100AF000229822F820107449229851F82000C0F35F
:100B00000B41229802EB800041801146229801EBB4
:100B1000800040880A90229831F82000099002460F
:100B20006EA125A80A9B02F095FF25A802F086FF7A
:100B30002298401C80B222902298B0F57A6FD0DBC8
:100B400069A125A802F086FF25A802F077FF002002
:100B50000D9022901EE001215C484C3800F083FE8D
:100B600000BF042159484C3800F02AFF0028F8D073
:100B7000042156484C3800F02CFF142153484C38BF
:100B800000F0DDFE0D99084480B20D902298401CC3
:100B900080B2229022980A28DDDB0A210D9890FB72
:100BA000F1F080B20D9000204A490870484802F0E8
:100BB000DEFEDDE90E01CDE9080103F0B1FF0B9087
:100BC000DDE91201CDE9080103F0AAFF0C90002035
:100BD000219022903AE058E33F49229831F82000D2
:100BE000099004F005FF0A900C9905F015F80CD255
:100BF00039492298401C31F82000099004F0F8FE91
:100C00000A900C9904F008FF18D33349229831F860
:100C10002000099004F0ECFE0A900C9904F0FCFE10
:100C200010D22D492298401C31F82000099004F080
:100C3000DFFE0A900C9904F0EFFF03D22198401CCC
:100C400080B221902298401C80B222902298C8281D
:100C5000C2DB40F6B831219888427DDA4FF47A62DF
:100C60000EA91D48FFF729FBDDE91601CDE90601B4
:100C700003F082FECDE9080103F052FF1E90DDE98A
:100C80001601CDE9060103F0CDFECDE9080103F020
:100C900047FF1D900020229094E00F49229831F8E0
:100CA00020000A9004F0A4FE1C901C9804F024FD7F
:100CB000CDE90401DDE91201CDE902011EE00000E9
:100CC000000010C002000020C43E00204C2401405F
:100CD000080002400000002044000020256420207D
:100CE00025640D0A00000000202020204F564552A8
:100CF0002020200D0A0A0A0A0A000000DDE9042368
:100D000004F01EFBCDE90601DDE90E0102460B46AB
:100D1000CDE90401DDE9060103F0F0FFCDE90801AA
:100D200003F0FEFE1C90FB49229801EB80004088F6
:100D30000A9004F05DFE1B901B9804F0DDFCCDE9E9
:100D40000401DDE91401CDE90201DDE9042304F029
:100D5000F7FACDE9060100E03FE0DDE910010246C7
:100D60000B46CDE90401DDE9060103F0C7FFCDE93B
:100D7000080103F0D5FE1B901C9804F0BDFCCDE9E2
:100D800006011E991C9804F07BFE01901B9904F04B
:100D900075FF02901D9904F049FD039004F0ACFC2E
:100DA000CDE90401DDE9062303F026FDCDE90801C4
:100DB00003F0B6FED74A229942F821002298401C3F
:100DC00080B222902298B0F57A6FFFF666AF4FF4AA
:100DD0007A61D048FFF70AFA4DE100202190209077
:100DE0001A90229041E1CB49229831F820000990D5
:100DF00004F0FEFD0A900C9904F00EFF0CD2C549D8
:100E00002298401C31F82000099004F0F1FD0A906E
:100E10000C9904F001FE18D3BE49229831F8200045
:100E2000099004F0E5FD0A900C9904F0F5FD10D24C
:100E3000B8492298401C31F82000099004F0D8FDF0
:100E40000A900C9904F0E8FE03D22198401C80B26D
:100E500021902198062807D040F69E71229888425A
:100E60007ED1219802287BDD0020219020992298B4
:100E7000401A401C80B2A7490A90209801EB8000DC
:100E800009900EA90A9AFFF718FAA249229831F898
:100E900020000A9004F0ACFD19909E49229801EBC5
:100EA000800040880A9004F0A3FD1890DDE9160147
:100EB000CDE9060103F060FDCDE9080103F030FE45
:100EC0001E90DDE91601CDE9060103F0ABFDCDE989
:100ED000080103F025FE1D9020981F9074E08D49B5
:100EE0001F9831F820000A9004F082FD1C901C9895
:100EF00004F002FCCDE90401DDE91201CDE90201B3
:100F0000DDE9042304F01CFACDE90601DDE90E0158
:100F100002460B46CDE90401DDE9060103F0EEFED1
:100F2000CDE9080103F0FCFD1C907A491F9801EB04
:100F3000800040880A9004F05BFD1B901B9804F031
:100F4000DBFBCDE90401DDE91401CDE90201DDE9B6
:100F5000042304F0F5F9CDE90601DDE9100100E014
:100F60007FE002460B46CDE90401DDE9060103F00E
:100F7000C5FECDE9080103F0D3FD1B901C9804F0D9
:100F8000BBFBCDE906011E991C9804F079FD019088
:100F90001B9904F073FE02901D9904F047FC039026
:100FA00004F0AAFBCDE90401DDE9062303F024FCEB
:100FB000CDE9080103F0B4FD564A1F9942F821001B
:100FC0001F98401C80B21F902298401C1F9981429C
:100FD00085DB20992298401A401C80B24D490A9026
:100FE000209801EB800009900A99FFF7FFF8494922
:100FF000209851F8200001460A901A9804F03EFE0D
:101000001C9020981F900FE042491F9851F8200033
:101010000A901C9904F09CFB3E4A1F9942F821005B
:101020001F98401C80B21F902298401C1F9981423B
:10103000EADB3849229851F820001A902298209033
:10104000199804F0B5FC81B2324A229822F8201097
:10105000189804F0ADFC81B22E4A229802EB800071
:1010600041802298401C80B2229040F69F712298C5
:101070008842FFF6B8AE0020229014E0254922985D
:1010800051F820000A902298C83051F820000990A9
:101090000A9904F0F3FD1F4A229942F82100229890
:1010A000401C80B2229040F6D86122988842E5DB4D
:1010B0000020229014E01749229851F820000A904D
:1010C0002298C83051F8200009900A9904F0D6FD02
:1010D000104A229942F821002298401C80B22290A6
:1010E0002298B0F5616FE6DB00201C901B902290E7
:1010F00025E00849229851F8200001460A901C98E2
:1011000004F08AFD08D20349229851F820001C906F
:1011100011E00000440000205C49229851F82000B2
:1011200001460A901B9804F077FC04D25749229894
:1011300051F820001B902298401C80B222902298E7
:10114000B0F5C87FD5DB00202490DDE91B0104F059
:1011500095FD4FF080410A9004F068FB0B90012050
:1011600022902AE00B9804F0C7FA494A494BCDE98E
:10117000040103F0B1FFCDE908012298401E434964
:1011800051F820000490229851F82000039004990F
:1011900004F074FD059004F0AFFA21F00041CDE9B0
:1011A0000601DDE9082304F095F802D2012024901D
:1011B00007E02298401C80B222902298B0F5616F1F
:1011C000D0DB00BF249800285CD12390012022901E
:1011D0001AE02E49229851F8200009902298401ECA
:1011E00051F820000890099904F04AFC00210A9067
:1011F00004F012FC04D82298401E80B2239007E02D
:101200002298401C80B222902298B0F5C87FE0DB83
:1012100000BF0020204908602049086023982290E0
:101220002AE01A49229851F82000039004F064FA49
:1012300021F00041CDE906011748006804F05CFA8E
:10124000CDE90401DDE9062303F09CFCCDE90801AA
:1012500003F066FC104908600C49229851F8200000
:1012600001460A900D48006804F072FA0B490860C4
:101270002298401C80B22290239800F54860229961
:101280008842CEDC0A2002F0B8F923E444000020B2
:10129000A6BA225B9F20C83F04000020080000205F
:1012A000704700BFFEE700BFFEE700BFFEE700BFDC
:1012B000FEE7704770477047704700000CB500208C
:1012C000019000906C48006840F480306A490860E2
:1012D00000BF6948006800F4003000900198401C8D
:1012E0000190009818B90198B0F5A06FF1D162484B
:1012F000006800F4003010B10120009001E00020EF
:1013000000900098012843D15C48006840F010002C
:101310005A4908600846006820F003000860084643
:10132000006840F002000860534840685249486035
:101330000846406848600846406840F4806048605D
:101340000846406820F47C1048600846406840F435
:10135000E81048600846006840F08070086000BFF0
:101360004548006800F000700028F9D04248406805
:1013700020F00300404948600846406840F0020001
:10138000486000BF3C48406800F00C000828F9D1D4
:101390000CBD10B5FFF792FF10BD10B536480068C0
:1013A00040F001003449086008464068344908406C
:1013B0003149486008460068324908402E490860B3
:1013C0000846006820F4802008600846406820F441
:1013D000FE0048604FF41F008860FFF7DAFF4FF00F
:1013E00000602949086010BD10B5002100200022CE
:1013F000214B5B6803F00C0121B1042906D00829B8
:1014000028D107E0214B224C236027E01F4B204CC2
:10141000236023E0184B5B6803F47010164B5B6885
:1014200003F48032022303EB904022B9194B43436B
:10143000174C23600DE0104B5B6803F4003323B1BD
:10144000144B4343124C236003E0104B4343104CB6
:10145000236003E00D4B0E4C236000BF00BF064B22
:101460005B68C3F303130C4CE15C094B1B68CB4076
:10147000074C236010BD0000001002400020024015
:101480000000FFF8FFFFF6FE08ED00E000127A0012
:101490001000002000093D0014000020094880478A
:1014A00009480047FEE7FEE7FEE7FEE7FEE7FEE746
:1014B000FEE7FEE7FEE7FEE704480549054A064B5E
:1014C000704700009B13000831010008707E002067
:1014D000708400207080002070800020314901431A
:1014E000314A1160704770B5002100230F22C47883
:1014F00004B32D4C246804F4E064C4F5E064210ACC
:10150000C1F10403CA40447804FA03F1847814401A
:1015100021430901254C0678A155047804F01F05E4
:101520000124AC4005786D11AD0005F1E025C5F84A
:10153000004109E0047804F01F050124AC401C4D73
:101540000678761145F8264070BD1A4A0A400243D3
:10155000154B1B1F1A60704739B1134A121D1268D0
:101560000243114B1B1D1A6006E00F4A121D126840
:1015700082430D4B1B1D1A607047042808D14FF0A1
:10158000E021096941F004014FF0E022116107E018
:101590004FF0E021096921F004014FF0E0221161D0
:1015A000704700000000FA050CED00E000E400E0E8
:1015B00080E100E080FFFF1F10B50446FA48844236
:1015C00008D10121401500F07FFE0021601500F0D8
:1015D0007BFE17E0F548844208D10121001500F098
:1015E00073FE0021201500F06FFE0BE0F0488442EE
:1015F00008D10121C80300F067FE00214FF400402C
:1016000000F062FE10BD30B5024600200023506895
:10161000E84C20400D790C6844EA052420435060D2
:101620009068E54C2040D1E902542C434D7944EABE
:10163000450420439060D06A20F470000C7C641E46
:10164000E4B2234340EA0350D06230BD0021016080
:10165000017141718160C16001210174704721B144
:10166000826842F00102826003E0826822F0010297
:101670008260704721B1826842F48072826003E028
:10168000826822F480728260704710B50023CBB26A
:101690001AB144681C43446002E044689C434460BF
:1016A00010BD816841F0080181607047014600204B
:1016B0008A6802F008020AB1012000E000207047A9
:1016C000816841F0040181607047014600208A680A
:1016D00002F004020AB1012000E00020704721B1AD
:1016E000826842F4A002826003E0826822F4A002D1
:1016F00082607047014600208A6802F480020AB1C5
:10170000012000E00020704710B50A4600210023A8
:10171000416821F46041531E41EA4331416010BDEC
:1017200021B1426842F40062426003E0426822F460
:10173000006242607047F0B504460D46002000216B
:10174000092D11DDE068A5F10A0606EB460707261C
:1017500006FA07F18843A5F10A0606EB460603FAE6
:1017600006F10843E0600CE0206905EB4507072619
:1017700006FA07F1884305EB450603FA06F108432C
:101780002061072A0FDA606B561E06EB86071F26BC
:1017900006FA07F18843561E06EB860605FA06F19F
:1017A0000843606322E00D2A0FDA206BD61F06EB98
:1017B00086071F2606FA07F18843D61F06EB860622
:1017C00005FA06F10843206310E0E06AA2F10D0675
:1017D00006EB86071F2606FA07F18843A2F10D06DD
:1017E00006EB860605FA06F10843E062F0BD21B17A
:1017F000826842F48012826003E0826822F48012E0
:10180000826070470146C86C80B2704766484C30B1
:101810000068704721B1426842F48062426003E090
:10182000426822F480624260704721B1426842F40B
:101830008052426003E0426822F480524260704766
:101840000A460021816821F4E0411143816070471C
:1018500021B1826842F40042826003E0826822F48F
:1018600000428260704721B1826842F402128260B5
:1018700003E0826822F40212826070470146002071
:101880008A6802F400120AB1012000E000207047CB
:10189000F0B504461546002000220026092911DD76
:1018A000E068A1F10A0707EB470C072707FA0CF2DB
:1018B0009043A1F10A0707EB470703FA07F2104329
:1018C000E0600CE0206901EB410C072707FA0CF2FD
:1018D000904301EB410703FA07F210432061A06B2C
:1018E000C0F30156EF1C06F1010CA7EB0C0707EB48
:1018F000870C1F2707FA0CF29043EF1C06F1010C2E
:10190000A7EB0C0707EB870701FA07F21043A06368
:10191000F0BD10B50A4600210023816B21F440116F
:10192000531E41EA0351816310BD08B500230093A3
:101930000090009B0B440093009B1A6008BD08B503
:10194000024600200090009201F12800009B1844FC
:1019500000900098006880B208BD0A4600214168E6
:10196000164B1940114341607047416282627047D3
:101970000A460021416821F01F0111434160704770
:1019800040B109490831096841F40001064A0832AA
:10199000116007E004490831096821F40001024A96
:1019A0000832116070470000002401400028014007
:1019B000003C0140FFFEF0FFFDF7F1FFFFFD3FFFA0
:1019C0000246002013680B400BB1012000E000200C
:1019D0007047CA430260704770B50246002000237A
:1019E00000240B125568CEB205EA060415681D40A6
:1019F00015B10CB1012000E0002070BD00220A12D8
:101A0000D34303607047000001684FF6FE72114037
:101A100001600021016041608160C1608D498842A0
:101A200008D18C490839496841F00F01894A083AC0
:101A300051608AE087491431884208D185490839C4
:101A4000496841F0F001834A083A51607DE08149DC
:101A50002831884208D17F490839496841F47061CA
:101A60007C4A083A516070E07A493C31884208D19A
:101A700078490839496841F47041764A083A51601A
:101A800063E074495031884208D172490839496885
:101A900041F470216F4A083A516056E06D49643153
:101AA000884208D16B490839496841F47001694A94
:101AB000083A516049E067497831884208D1654960
:101AC0000839496841F07061624A083A51603CE067
:101AD0006149884206D1011F096841F00F01021FC8
:101AE000116032E05C491431884208D15A49091F1B
:101AF000096841F0F001584A121F116025E056496B
:101B00002831884208D15449091F096841F470619D
:101B1000514A121F116018E04F493C31884208D1E8
:101B20004D49091F096841F470414B4A121F116069
:101B30000BE049495031884207D14749091F0968DC
:101B400041F47021444A121F1160704710B5002201
:101B5000026847F6F0739A430C6A8B6823430C695A
:101B600023434C6923438C692343CC6923434C6A48
:101B700023438C6A23431A430260CB6843600B689B
:101B800083604B68C36010BD0021016041608160CB
:101B9000C160016141618161C16101624162816233
:101BA000704721B1026842F00102026004E002685D
:101BB0004FF6FE731A40026070471AB103680B4378
:101BC000036002E003688B43036070474160704725
:101BD0000146486880B2704701460020002201F0AB
:101BE00080531BB11C4B083B1A6802E0194B083BA1
:101BF0001A6802EA01030BB1012000E000207047DF
:101C000000F0805119B11449091F086002E0114920
:101C100008394860704701460020002201F08053D7
:101C20001BB10D4B083B1A6802E00A4B083B1A68CF
:101C300002EA01030BB1012000E00020704700F030
:101C4000805119B10449091F086002E001490839AF
:101C500048607047080002400804024010B504467E
:101C6000CC48844208D10121042000F02DFB002142
:101C7000042000F029FB46E0C748844208D1012136
:101C8000082000F021FB0021082000F01DFB3AE0B5
:101C9000C248844208D10121102000F015FB002128
:101CA000102000F011FB2EE0BD48844208D1012134
:101CB000202000F009FB0021202000F005FB22E09D
:101CC000B848844208D10121402000F0FDFA0021EB
:101CD000402000F0F9FA16E0B348844208D101210F
:101CE000802000F0F1FA0021802000F0EDFA0AE0F7
:101CF000AE48844207D10121801500F0E5FA0021A9
:101D0000A01500F0E1FA10BD10B50121084600F061
:101D1000DBFA0021012000F0D7FA10BD2DE9F041D7
:101D2000024600250026002000230024002791F809
:101D300003C00CF00F0591F803C00CF0100CBCF1BF
:101D4000000F03D091F802C04CEA050591F800C0DD
:101D5000BCF1000F31D0146800202BE04FF0010CD3
:101D60000CFA00F3B1F800C00CEA03069E4220D141
:101D700083004FF00F0C0CFA03F7BC4305FA03FC89
:101D80004CEA040491F803C0BCF1280F06D14FF0CF
:101D9000010C0CFA00FCC2F814C00AE091F803C070
:101DA000BCF1480F05D14FF0010C0CFA00FCC2F851
:101DB00010C0401C0828D1D31460B1F800C0BCF199
:101DC000FF0F34DD546800202EE000F1080C4FF0C6
:101DD000010808FA0CF3B1F800C00CEA03069E42B1
:101DE00021D183004FF00F0C0CFA03F7BC4305FA26
:101DF00003FC4CEA040491F803C0BCF1280F05D1A0
:101E000000F1080C08FA0CF8C2F8148091F803C02D
:101E1000BCF1480F07D100F1080C4FF0010808FA97
:101E20000CF8C2F81080401C0828CED35460BDE8DE
:101E3000F0814FF6FF710180022181700421C17091
:101E400070470246002093680B400BB1012000E070
:101E5000002070470146886880B270470246002023
:101E6000D3680B400BB1012000E000207047014611
:101E7000C86880B2704701617047416170470AB11C
:101E8000016100E041617047C16070474FF48032EA
:101E90000A43826181618261826982697047024678
:101EA0000020434B18684FF68073184040EA021038
:101EB00008433F4B186070473E49C8617047F0B512
:101EC0000A46002300240021002500F00046B6F158
:101ED000004F02D1364EF16901E0354E7168C0F312
:101EE000034583B200F44016B6F5401F08D121F037
:101EF00070612F4E766826F070662D4F7E6012E07E
:101F000000F48016B6F5801F06D1032606FA05F404
:101F1000A14341F0706106E0460D360103FA06F672
:101F2000B14341F0706122B1460D360103FA06F665
:101F3000314300F00046B6F1004F02D11C4EF16172
:101F400001E01B4E7160F0BD30B500228B071C0F05
:101F50000F2303FA04F2164B08338C1053F8243085
:101F60009343134C08348D1044F8253023468C10CD
:101F700053F824308C07240F00FA04F423430C4C4C
:101F800008348D1044F8253030BD0A49DC31086032
:101F90007047000000080140000C014000100140A3
:101FA0000014014000180140001C014000200140C5
:101FB0000000014000002042DF48006840F00100BE
:101FC000DD49086008464068DC490840DA49486055
:101FD00008460068DA490840D749086008460068A2
:101FE00020F4802008600846406820F4FE00486025
:101FF0004FF41F0088607047CF49096821F4803191
:10200000CD4A11601146096821F480211160B0F5B4
:10201000803F03D0B0F5802F0ED106E0C649096895
:1020200041F48031C44A116007E0C349096841F4B2
:10203000A021C14A116000E000BF00BF704710B589
:1020400001460022002300204A11012A02D1BA4C85
:10205000236806E0022A02D1B74C236A01E0B64C9D
:10206000636A01F01F02012494401C400CB101205E
:1020700000E0002010BD38B50020009000240025AD
:1020800000BF3120FFF7DBFF05460098401C0090A1
:102090000098B0F5A06F01D0002DF2D03120FFF7ED
:1020A000CEFF08B1012400E00024204638BD0146DF
:1020B0000020A14A106820F0F80040EAC10010603A
:1020C0007047A04908607047024600209A4B586844
:1020D00020F47C1042EA01031843974B5860704784
:1020E00098490866704701460020934A506820F0DE
:1020F00003000843506070478F48406800F00C00B0
:102100007047014600208C4A506820F0F0000843D8
:102110005060704701460020874A506820F4E06014
:1021200008435060704701460020834A506820F4FD
:10213000605040EAC1005060704729B17E4A527A2F
:1021400002437D4B5A7204E07B4A527A82437A4BB7
:102150005A7270477B49D8310860704701460020A9
:10216000754A506820F44040084350607047002191
:10217000714A20321170704A82F82010012802D072
:1021800004280AD104E001216B4A2032117005E0D5
:102190000521694A2032117000E000BF00BF70477E
:1021A0006949086070476449096A0143624A1162DB
:1021B0007047654944390860704730B500210022F6
:1021C000002400235C4D6D6805F00C0121B1042949
:1021D00005D0082923D105E05C4D056022E05B4D68
:1021E00005601FE0544D6D6805F47012524D6D6826
:1021F00005F48034022505EB92421CB9544D554339
:1022000005600BE04C4D6D6805F400351DB1504D77
:102210005543056002E04D4D5543056002E04B4DCE
:10222000056000BF00BF444D6D6805F0F00109096D
:10223000484D6B5C0568DD4045603F4D6D6805F4B9
:10224000E061090A434D6B5C4568DD4085603A4DAD
:102250006D6805F46051C90A3E4D6B5C4568DD4010
:10226000C560354D6D6805F44041890B3A4D6B5C96
:10227000C568B5FBF3F5056130BD29B12E4A526939
:1022800002432D4B5A6104E02B4A526982432A4B88
:102290005A61704729B1284A92690243264B9A61D4
:1022A00004E0254A92698243234B9A61704729B121
:1022B000214AD2690243204BDA6104E01E4AD26906
:1022C00082431D4BDA61704729B11B4AD268024331
:1022D000194BDA6004E0184AD2688243164BDA6080
:1022E000704729B1144A12690243134B1A6104E082
:1022F000114A12698243104B1A61704712494039E2
:10230000086070470F49C86470470B49C87170472F
:102310000948406A40F080700749486270470146AA
:102320000020054A92680A400AB1012000E000201E
:102330007047014988727047001002400000FFF8A2
:10234000FFFFF6FE000042428004424200127A0083
:1023500000093D00240000203400002010B5044690
:10236000FE48844208D10121C014FFF7ADFF0021CF
:10237000E014FFF7A9FFC4E0B4F1804F08D10121B8
:102380000846FFF7AEFF00210120FFF7AAFFB8E0E3
:10239000F348844208D101210220FFF7A2FF002167
:1023A0000220FFF79EFFACE0EE48844208D10121F5
:1023B0000420FFF796FF00210420FFF792FFA0E022
:1023C000E948844208D101210820FFF78AFF002153
:1023D0000820FFF786FF94E0E448844208D10121F9
:1023E0001020FFF77EFF00211020FFF77AFF88E022
:1023F000DF48844208D101212020FFF772FF00212D
:102400002020FFF76EFF7CE0DA48844208D10121EA
:102410004014FFF759FF00216014FFF755FF70E0EB
:10242000D548844209D10121C804FFF74DFF00219E
:102430004FF40020FFF748FF63E0D048844209D101
:1024400001210805FFF740FF00214FF48010FFF73E
:102450003BFF56E0CA48844209D101214805FFF7F5
:1024600033FF00214FF40010FFF72EFF49E0C5486D
:10247000844208D101214020FFF733FF0021402092
:10248000FFF72FFF3DE0C048844208D101218020A2
:10249000FFF727FF00218020FFF723FF31E0BB4833
:1024A000844208D101218015FFF71BFF0021A015F0
:1024B000FFF717FF25E0B648844209D1012108043F
:1024C000FFF702FF00214FF48030FFF7FDFE18E018
:1024D000B048844209D101214804FFF7F5FE0021EC
:1024E0004FF40030FFF7F0FE0BE0AB48844208D118
:1024F00001218804FFF7E8FE00214FF48020FFF758
:10250000E3FE10BD00220288944B98420ED0994BF6
:1025100098420BD0B0F1804F08D0914B984205D033
:10252000904B984202D0904B984204D14FF68F7353
:102530001A404B881A438D4B984207D08C4B9842D7
:1025400004D04FF6FF431A40CB881A4302808B8891
:1025500083850B880385814B98420BD0854B98422D
:1025600008D08B4B984205D08A4B984202D08A4BB8
:10257000984201D10B7A038601238382704770B59C
:10258000002400220023058C4FF6FE76354005849A
:10259000028C8388048B4FF68F752C40B51E2C401F
:1025A0000D882C43751E2A400D892A434D882A43E5
:1025B0006A4DA8420BD06F4DA84208D0744DA84276
:1025C00005D0744DA84202D0734DA84213D14FF6E6
:1025D000F7752A404D892A434FF6FB752A408D88AE
:1025E0002A434FF6FF652B404FF6FF552B408D8950
:1025F0002B43CD892B4383800483CD888586028439
:1026000070BD70B5002400220023058C4FF6EF76D4
:1026100035400584028C8388048B48F6FF752C4076
:102620004FF6FF452C400D884FF6FF7606EA05254C
:102630002C434FF6DF752A400D8906EA05152A431B
:102640004D8806EA05152A43444DA84202D0494D5B
:10265000A8421DD14FF67F752A404D894FF6FF766F
:1026600006EA05152A434FF6BF752A408D8806EA0B
:1026700005152A434FF6FF352B404FF2FF752B40CF
:102680008D8906EA85052B43CD8906EA85052B430E
:1026900083800483CD880587028470BD70B50024D3
:1026A00000220023058C4FF6FF6635400584028C1E
:1026B0008388848B4FF68F752C404FF6FC752C4029
:1026C0000D882C434FF6FF552A400D894FF6FF76B3
:1026D00006EA05252A434D8806EA05252A431F4DAB
:1026E000A84202D0234DA8421DD14FF2FF752A40C7
:1026F0004D894FF6FF7606EA05252A434FF6FF354A
:102700002A408D8806EA05252A434EF6FF752B40A0
:102710004DF6FF752B408D8906EA05152B43CD89B3
:1027200006EA05152B4383808483CD888587028440
:1027300070BD70B5002200230024058C4EF6FF7694
:1027400035400584038C8488828B48F6FF752A40C7
:102750004FF6FF452A400D8820E00000002C014084
:102760000004004000080040000C00400010004041
:102770000014004000340140004C01400050014072
:102780000054014000180040001C004000200040A0
:102790000040014000440140004801404FF6FF76F0
:1027A00006EA05252A434DF6FF752B400D8906EAFA
:1027B00005352B434D8806EA05352B43FA4DA842D3
:1027C00002D0FA4DA84208D14BF6FF752C408D89F6
:1027D0004FF6FF7606EA85152C4384808283CD88E8
:1027E000A0F84050038470BD828B4FF2FF331A4033
:1027F0008283828B4FF6FF7303EA01231A4382839D
:102800007047F0B50C461546002200210026078CC3
:102810004EF6FF7C07EA0C070784828B018C4FF68B
:10282000FF7707EA043640F6FF473A404FF6FF7756
:1028300007EA05273A434FF6FF7707EA03373A439B
:10284000D94FB8420ED0D94FB8420BD0B0F1804F1B
:1028500008D0D74FB84205D0D64FB84202D0D64F95
:10286000B84206D14DF6FF77394046F480573943D8
:1028700005E047F6FF57394044F4805739438283D7
:102880000184F0BD828B4FF6F3731A408283828BF2
:102890000A4382837047F0B50C461546002200219A
:1028A0000026078C4FF6FF6C07EA0C070784828B23
:1028B000018C4FF6FF7707EA04264FF60C773A4073
:1028C0004FF6FF7707EA03172F433A43B64FB84254
:1028D0000ED0B64FB8420BD0B0F1804F08D0B44FF5
:1028E000B84205D0B34FB84202D0B34FB84206D178
:1028F0004FF6FF57394046F48077394305E04FF2F1
:10290000FF57394044F48077394382830184F0BD16
:10291000028B4FF2FF331A400283028B4FF6FF7394
:1029200003EA01231A4302837047F0B50C461546AB
:10293000002200210026078C4FF6EF7C07EA0C07E7
:102940000784028B018C4FF6FF7707EA041640F6E6
:10295000FF473A404FF6FF7707EA03373A434FF60F
:10296000FF7707EA05273A438F4FB8420ED08F4FC3
:10297000B8420BD0B0F1804F08D08D4FB84205D08F
:102980008C4FB84202D08C4FB84206D14FF6DF7759
:10299000394046F01007394305E04FF65F7739407C
:1029A00044F01007394302830184F0BD028B4FF6D7
:1029B000F3731A400283028B0A4302837047F0B517
:1029C0000C46154600220021068C4FF6FE773E404D
:1029D0000684028B018C4FF60C7632407E1C06EA90
:1029E00003162E433243704EB0420ED06F4EB042AB
:1029F0000BD0B0F1804F08D06D4EB04205D06D4E77
:102A0000B04202D06C4EB04206D14FF6FD76314056
:102A100044F00106314305E04FF6F576314044F0CD
:102A20000106314302830184F0BD70B505460C46B2
:102A30005D4885420ED05D4885420BD0B5F1804F90
:102A400008D05B48854205D05A48854202D05A4892
:102A5000854200D100E000BF208850B92389A288B8
:102A600061882846FFF7ABFFE1882846FFF79EFF05
:102A700025E0208804280AD12389A2886188284675
:102A8000FFF753FFE1882846FFF742FF17E0208851
:102A900008280AD12389A28861882846FFF7FBFE0F
:102AA000E1882846FFF7EEFE09E02389A2886188C5
:102AB0002846FFF7A6FEE1882846FFF795FE70BD81
:102AC0002DE9F04105460C4600260127608808B92B
:102AD000022600E00026A088012801D1022700E09C
:102AE00001272088A0B92389A28861882846FFF79A
:102AF00066FFE1882846FFF759FF23893A463146A9
:102B00002846FFF712FFE1882846FFF701FF13E090
:102B10002389A28861882846FFF707FFE1882846B5
:102B2000FFF7F6FE23893A4631462846FFF747FF6E
:102B3000E1882846FFF73AFFBDE8F0810A884B8814
:102B40001A438B881A43CB881A430B891A434B8943
:102B50001A438B891A43A0F8442070474FF6FF713F
:102B6000818000210180C180418001727047002175
:102B7000018041808180C180018141818181C18149
:102B80007047002101804180012181800021C180A6
:102B9000018170470021018041808180C1800181D5
:102BA0004181818170470000002C014000340140C8
:102BB0000004004000080040000C004021B10288E1
:102BC00042F00102028004E002884FF6FE731A40D0
:102BD0000280704731B1B0F8442042F40042A0F8BE
:102BE000442005E0B0F84420C2F30E02A0F84420CF
:102BF00070471AB183890B43838102E083898B4339
:102C0000838170478182704741EA0203A0F848300F
:102C100070471AB183890B43838102E083898B4318
:102C20008381704701894FF6F87211400181704726
:102C30000A46002101894FF68F7319401143018123
:102C4000704730B504460D4629462046FFF7F0FF91
:102C5000208940F00700208130BD2DE9F041044675
:102C60000D4616461F46602D06D13B4601223146D1
:102C70002046FFF75AFE05E03B460122314620463A
:102C8000FFF79DFE29462046FFF7D2FF208940F03E
:102C900007002081BDE8F08130B50C460021018994
:102CA000C9B24FF6FF7505EA0325154325432943AD
:102CB000018130BD2DE9F04105460E461746984684
:102CC000002443463A4631462846FFF7E5FF2C8963
:102CD0004FF6F870044044F007044FF68F7004403C
:102CE00044F070042C81BDE8F081F0B504460D4637
:102CF00016461F463B46324629462046FFF7CCFF84
:102D0000208940F480402081F0BD01858282704797
:102D10000A46002101884FF68F7319401143018044
:102D20007047F0B50C4615461E46002100220023D0
:102D30000189028B038C4FF6F877394021434FF617
:102D4000FC473A4040F201173A434FF6DD773B40EB
:102D50004FF6FF7707EA06172F433B4301810283B3
:102D60000384F0BD0A460021018B4FF68F73194092
:102D70001143018370470A460021018B48F6FF7317
:102D800019404FF6FF7303EA02231943018370478A
:102D90000A460021818B4FF68F73194011438183BE
:102DA00070470A460021818B48F6FF7319404FF6A1
:102DB000FF7303EA022319438183704721B102881C
:102DC00042F08002028004E002884FF67F731A40CE
:102DD0000280704721B1828842F00402828004E0C0
:102DE00082884FF6FB731A408280704721B1828837
:102DF00042F00802828004E082884FF6F7731A409E
:102E00008280704721B1828842F00102828004E012
:102E100082884FF6FE731A40828070470A4600216E
:102E2000018B4FF6F77319401143018370470A462F
:102E30000021018B4FF2FF7319404FF6FF7303EA35
:102E400002231943018370470A460021818B4FF604
:102E5000F77319401143818370470A460021818B23
:102E60004FF2FF7319404FF6FF7303EA0223194331
:102E7000818370470A460021018B4FF6FB7319408E
:102E80001143018370470A460021018B4FF6FF333F
:102E900019404FF6FF7303EA022319430183704779
:102EA0000A460021818B4FF6FB7319401143818341
:102EB00070470A460021818B4FF6FF3319404FF6C9
:102EC000FF7303EA02231943818370470A460021F6
:102ED000018B4FF67F7319401143018370470A46F7
:102EE0000021018BC1F30E014FF6FF7303EA0223A9
:102EF0001943018370470A460021818B4FF67F7387
:102F000019401143818370470A460021818BC1F328
:102F10000E014FF6FF7303EA0223194381837047C2
:102F20000A460021018C4FF6FD73194011430184BC
:102F300070470A460021018C4FF6F7731940114380
:102F4000018470470A460021018C4FF6DF73194057
:102F50004FF6FF7303EA02131943018470470A46D0
:102F60000021018C4FF67F7319404FF6FF7303EA7F
:102F700002131943018470470A460021018C4FF661
:102F8000FF5319404FF6FF7303EA022319430184EC
:102F900070470A460021018C4FF2FF7319404FF62B
:102FA000FF7303EA02231943018470470A46002194
:102FB000018C4DF6FF7319404FF6FF7303EA02339D
:102FC00019430184704730B5002301248C40A3B21B
:102FD000048C9C430484048C02FA01F5ADB22C43AA
:102FE000048430BD30B5002304248C40A3B2048C8B
:102FF0009C430484048C02FA01F5ADB22C43048492
:1030000030BD70B503460020002418461830012555
:103010008D40ACB21D8CA5431D8409B1082909D18E
:1030200000EB6100056825F0700505600568154333
:1030300005600EE00D1FC5F34E052844056825F414
:10304000E045056005684FF6FF7606EA022635433F
:10305000056070BD21B1028842F00202028004E0E6
:1030600002884FF6FD731A400280704721B1028832
:1030700042F00402028004E002884FF6FB731A401B
:103080000280704721B1828842F08002828004E091
:1030900082884FF67F731A408280704702884FF60D
:1030A000F7731A40028002880A43028070478288C0
:1030B0004FF68F731A40828082880A43828070475D
:1030C00002894FF6F8731A40028102890A4302818D
:1030D000704702894FF67F731A40028102890A43C2
:1030E000028170478184704781857047818670476F
:1030F0000187704781877047A0F8401070470288A9
:103100004FF6FF431A40028002880A43028070474C
:103110000146888E70470146088F70470146888FA8
:1031200070470146B1F8400070470146888C7047EF
:103130000146088D704702460020138A0B400BB1F0
:10314000012000E000207047CA430282704730B57A
:103150000246002000230024158A05EA0103958910
:1031600005EA010413B10CB1012000E0002030BDDC
:10317000CA4302827047000010B50446FB488442EF
:1031800009D101218803FFF79FF800214FF4804007
:10319000FFF79AF832E0F648844209D10121480449
:1031A000FFF79FF800214FF40030FFF79AF825E071
:1031B000F048844209D101218804FFF792F80021E8
:1031C0004FF48020FFF78DF818E0EB48844209D1D6
:1031D0000121C804FFF785F800214FF40020FFF714
:1031E00080F80BE0E548844208D101210805FFF78B
:1031F00078F800214FF48010FFF773F810BD2DE927
:10320000F04786B005460E460024A24600BFA14600
:103210000027B08900B100BF2F462C8A4CF6FF7002
:103220000440F08804432C82AC894EF6F31004402D
:10323000B08831890843718908430443AC81AC8A62
:103240004FF6FF400440B0890443AC8201A8FEF76A
:10325000B4FFC648874202D1DDF810A001E0DDF8D6
:103260000CA0A88900F4004040B10AEBCA0000EBB2
:103270000A1031684900B0FBF1F807E00AEBCA0018
:1032800000EB0A1031688900B0FBF1F86420B8FB4C
:10329000F0F004012009642101FB1089A88900F4E1
:1032A000004040B1322000EBC900B0FBF1F000F06B
:1032B0000700044308E0322000EB09106421B0FB52
:1032C000F1F000F00F0004432C8106B0BDE8F08758
:1032D0004FF41651016000218180C18001810C21D1
:1032E000418100218181704710B502460020108A7B
:1032F0004FF2FF0318400B884C8823438C882343EC
:10330000CC8823431843108210BD002101804180E6
:103310008180C180704721B1828942F4005282814C
:1033200004E082894DF6FF731A4082817047F0B540
:103330000346002400260025002040F66A17B94203
:1033400000D100BF1846C1F3421401F01F06012747
:1033500007FA06F5012C01D10C3004E0022C01D152
:10336000103000E014301AB107682F43076002E004
:103370000768AF430760F0BD1AB1838A0B438382AD
:1033800002E0838A8B4383827047028A4FF6F07390
:103390001A400282028A0A430282704782894FF2EF
:1033A000FF731A40828182890A438281704721B16A
:1033B000828942F00202828104E082894FF6FD7325
:1033C0001A4082817047028A4FF6DF731A400282E8
:1033D000028A0A430282704721B1028A42F4804283
:1033E000028204E0028A4BF6FF731A4002827047A1
:1033F000C1F308028280704701468888C0F3080044
:103400007047818941F0010181817047028BD2B2FE
:103410000283028B42EA012202837047028B02F48C
:103420007F420283028B0A430283704721B1828A62
:1034300042F02002828204E0828A4FF6DF731A4053
:103440008282704721B1828A42F01002828204E0B7
:10345000828A4FF6EF731A408282704721B1828AC6
:1034600042F00802828204E0828A4FF6F7731A4023
:103470008282704721B1828942F40042828103E056
:103480008289C2F30E028281704721B1828A42F49E
:103490000062828204E0828A4FF2FF731A408282C5
:1034A0007047828A4FF6FB731A408282828A0A43EF
:1034B0008282704721B1828A42F00202828204E055
:1034C000828A4FF6FD731A408282704702460020BE
:1034D000B1F5007F00D100BF13880B400BB1012074
:1034E00000E00020704701F40072B2F5007F00D1C7
:1034F00000BFCA430280704770B502460024002313
:103500000025002040F66A16B14200D100BFC1F389
:10351000421501F01F03012606FA03F3012D02D123
:103520009689334006E0022D02D1168A334001E02D
:10353000968A33400C12012606FA04F416883440A9
:1035400013B10CB1012000E0002070BD10B50022C5
:10355000002340F66A14A14200D100BF0A120124E0
:103560009440A3B2DC43048010BD00000038014049
:103570000044004000480040004C00400050004023
:1035800010B56FF00400FDF7F8FF2E4800682E49D3
:10359000B0FBF1F02D4908700846007800EB4001BF
:1035A000C1EBC0104FF6FF7101EAC0002849088046
:1035B00010BD0146254A12784A434FF0E0235A6174
:1035C00000229A611A46126942F001021A6100BF94
:1035D0004FF0E022106900F001021AB100F48032CD
:1035E000002AF5D04FF0E022126922F001024FF0DC
:1035F000E0231A6100229A6170470146144A12883A
:103600004A434FF0E0235A6100229A611A46126938
:1036100042F001021A6100BF4FF0E022106900F091
:1036200001021AB100F48032002AF5D04FF0E022F6
:10363000126922F001024FF0E0231A6100229A6120
:10364000704700001000002000127A0038000020AF
:103650003A000020014600BF704700BF4B4A128865
:1036600002F04002002AF9D0C2B2484B1B1D1A805A
:10367000704710B586B00446012144F20400FEF7FD
:1036800009FE4248FFF778FD4FF40070ADF81400D2
:1036900003208DF8160018208DF8170005A93C4866
:1036A000FEF73CFB4FF48060ADF8140004208DF869
:1036B000170005A93648FEF731FB25208DF80000DC
:1036C00003208DF801008DF8020001208DF8030021
:1036D0006846FDF708FF01940020ADF80800ADF83A
:1036E0000A00ADF80C00ADF810000C20ADF80E008B
:1036F00001A92648FFF783FD012240F22551234806
:10370000FFF715FE01212148FFF705FE06B010BDA9
:1037100010B540F225511D48FFF7EEFE10B31B48CF
:10372000FFF76AFEC4B21B48008800F40040C8B925
:103730001848008800F4804060B10A2C03D00020B3
:103740001449088020E01348008840F400401149E3
:10375000088019E00D2C06D10E48008840F4804006
:103760000C49088010E00B480088C0F30D000A499E
:103770000C5408480088401C064908800846008808
:10378000C72801DD0020088010BD0000003801407E
:103790000008014040000020447D002000B587B0B3
:1037A000012140F21460FEF775FD0C20ADF8040015
:1037B00000208DF8070003208DF8060001A94F486E
:1037C000FEF7ACFA3020ADF8040000208DF80700B9
:1037D00003208DF8060001A94948FEF79FFA4FF42F
:1037E0000040FEF7BBFC4748FDF7E6FE4FF4803093
:1037F000029000208DF80C008DF80D004FF4202071
:1038000004900020059001208DF8180002A93D4881
:10381000FDF7F9FE0723012202213A48FDF78BFF4D
:103820003948FDF7C9FE4FF48030029000208DF832
:103830000C008DF80D004FF46020049000200590DE
:1038400001208DF8180002A92F48FDF7DCFE0723A0
:10385000012203212C48FDF76EFF01212948FDF7C5
:10386000C6FF01212848FDF7C2FF4FF4E04125487B
:10387000FDF7E6FF01212348FEF74BF8072301225D
:1038800010212048FEF704F80120FEF779F8002205
:1038900014211C48FEF749F801211B48FDF7DFFE03
:1038A0001948FDF7FEFE00BF1748FDF7FFFE002890
:1038B000FAD11548FDF704FF00BF1348FDF705FFD7
:1038C0000028FAD101210F48FDF7C9FE0D48FDF788
:1038D000E8FE00BF0B48FDF7E9FE0028FAD10948D1
:1038E000FDF7EEFE00BF0748FDF7EFFE0028FAD116
:1038F00001210448FDF7BEFE07B000BD00080140ED
:10390000001001400024014000280140F0B58BB0B8
:1039100007460D4616461C4601210846FEF7ADFC3B
:103920001B4804803846FEF76FF80095019600208A
:1039300002900394049080200590800006908000FF
:103940000790002008904FF40050099000200A9042
:1039500069463846FEF7FAF8012202213846FEF79A
:103960002CF901213846FEF71CF90BB0F0BD10B55B
:10397000044600212046FEF714F905480188054851
:10398000FEF724F901212046FEF70BF910BD0000D7
:10399000420000200800024008B54FF4A060FDF787
:1039A0009DFD0B208DF8000002208DF801008DF8A0
:1039B000020001208DF803006846FDF794FD08BD64
:1039C00000B587B001210420FEF771FC01210846F3
:1039D000FEF760FC6420ADF81400B320ADF81000D1
:1039E0000020ADF81600ADF8120004A91148FEF74A
:1039F00089FD6020ADF800000120ADF80200322002
:103A0000ADF806000220ADF8080069460948FEF747
:103A100090FE01210748FFF7D1F80648FFF702F9A9
:103A200008210448FFF719FA00210248FFF712FBAA
:103A300007B000BD00080040704700000FB4044903
:103A400010B503AA029800F00DF910BC5DF814FB44
:103A50003C0000200FB41CB5074B06AA7B44694606
:103A60000090059800F0E5F80020694600F0F4F8B1
:103A70001CBC5DF814FB0000F90100002DE9F041C9
:103A80000E460446002020622046E168884730B395
:103A9000252805D0D4E901219047206A401CF2E78F
:103AA000E168204600278847050018D0A5F14100AD
:103AB000192802D820354FF400673246294620469F
:103AC0002760FCF76FFB40B1012804D0F61D26F0FB
:103AD00007060836D8E7361DD6E72846DAE7206A13
:103AE000BDE8F0812DE9F0410646002410687529F3
:103AF000314615A510D0AFF30080002802DA40420D
:103B000012A507E031688A0701D511A502E049072F
:103B100004D510A5012401E0AFF3008000210A23A1
:103B200006F1240707E0B0FBF3F203FB120030308C
:103B300078541046491C0028F5D123462A463046C1
:103B4000BDE8F04100F017B8000000002D000000B3
:103B50002B0000002000000070477047704770473E
:103B600010B500F091F8006810BD10B5044600F0E3
:103B70008BF8046010BD2DE9F0470D46994692463A
:103B8000044600F124080168880604D5E06921F0A4
:103B90001001216000E00120A84201DD471B00E088
:103BA0000027A1697A1902EB0900081AA0612078A0
:103BB000C00602D42046AFF30080002608E0D4E916
:103BC00001211AF806009047206A401C761C2062EA
:103BD0004E45F4DB2078C0060AD52046AFF30080BE
:103BE00006E0D4E9012130209047206A401C206281
:103BF000381EA7F10107F4DC07E0D4E9012118F829
:103C000005009047206A401C2062281EA5F101058E
:103C1000F3DC2046AFF300802078000602D50220B6
:103C2000BDE8F0870120FBE701694A1C02610878C2
:103C3000704700B58FB0CDE90131002105910549EC
:103C40007944CDE9031011466846FFF717FF0FB01E
:103C500000BD0000E5FFFFFF0A6802F8010B0A60E3
:103C600070470000074B70B50D467B44FFF7E1FF3E
:103C70000446284600F00CF810B14FF0FF3070BD3C
:103C8000204670BDEDF9FFFF004870470C7E002014
:103C9000007B00F080007047004870470C7E0020D9
:103CA0007546FFF7F9FFAE4605006946534620F01A
:103CB0000700854618B020B5FDF7FEFBBDE82040A3
:103CC0004FF000064FF000074FF000084FF0000BD8
:103CD00021F00701AC46ACE8C009ACE8C009ACE88B
:103CE000C009ACE8C0098D4670470446AFF30080B8
:103CF0002046FCF769FA490050EAC12018BF0420A9
:103D00004A0D18BF40F0010040F2FF72B2EB515F64
:103D100008BF40F00200012808BF052070470000DE
:103D20002DE9F74F144696B00021C4E90211179906
:103D3000089121F00045CA498D4206DC1799C4E973
:103D4000000119B00020BDE8F08FC649DFF818A3C4
:103D5000A9423CDD0899C54E0029C54FC54A1799AF
:103D6000534619DD01F0DEFB554506D0C24AC34B70
:103D700001F0D8FBC4E900010AE04FF0D352BF4B79
:103D800001F0D0FB32463B4601F0CCFBC4E9000118
:103D900019B00120BDE8F08F00F0F4FE554506D0C3
:103DA000B54AB64B00F0EEFEC4E900010AE04FF060
:103DB000D352B24B00F0E6FE32463B4600F0E2FE44
:103DC000C4E9000119B04FF0FF30BDE8F08FAC49F5
:103DD000A942179978DB21F000488346A94AAA4BEB
:103DE000414601F079F90022A84B00F0CBFE01F02A
:103DF000DDF8099001F009F906460F469D4A534641
:103E000001F06AF95A46434601F09AFA80468A461A
:103E1000994A9A4B3046394601F05EF92A0D012540
:103E20000B924246534601F08BFA032DC4E9000180
:103E300039D00B98C1F30A51401A05EB45111139DD
:103E4000814230DA9248C346784400EB0510CDF841
:103E50001CA00C90D0E900233046394601F03CF913
:103E6000CDE9020102460B465846079901F05AFB7C
:103E700080468A4602460B465846079901F052FB97
:103E8000DDE9022301F04EFB83460C98039139468D
:103E9000D0E90223304601F01FF95A46039B01F096
:103EA00041FB6D1CBDE708980028A2BF099819B016
:103EB000BDE8F08F616881F000416160099819B038
:103EC0004042BDE8F08FFFE7C1F3130141F48011D8
:103ED0000E911799C1F30A51A1F2F532511102F076
:103EE0001F08C8F12002129200220C920D92694A1A
:103EF0007A4402EB810101F1140C0DA95FF0060771
:103F0000DCF80020DCF8045002FA08F3129AD1F829
:103F100000A025FA02F21A430E9BA2FB0356A2FB55
:103F200000329A4415449A4534BF4FF0010B4FF0CC
:103F3000000B51F8043C05EB0B0E7344954234BF63
:103F4000012200221644BBF1000F02D0AB4202D97D
:103F500003E0AB4201D2012200E0002241F808A9AF
:103F60003244E1E801237F1EACF1040CC8D108986B
:103F7000DDE90A6500F10050800F11900898099F53
:103F8000800001F042F880468A46384601F054F835
:103F90006FF01D0201F019FF07463046059101F050
:103FA0004BF86FF03D0201F010FFCDE903102846F9
:103FB00001F042F86FF05D0201F007FF064602468D
:103FC0000B460191DDE9031000F0DCFD3A46059B4C
:103FD00000F0D8FD4246534600F0D4FD00200D46C7
:103FE00083464246534601F09DFA3A46059B01F04E
:103FF00099FADDE9033201F095FA3246019B01F0AE
:104000009FF9DFF89880244A434601F065F8064698
:104010000F46234A234B5846294601F05DF83246A5
:104020003B4600F0AFFD0F4606464FF0A842434620
:104030005846294601F050F832463B4600F0A2FDB2
:10404000179A12F0004F04D0119A81F000415242A9
:104050001192C4E90001119819B0BDE8F08F000079
:10406000FB21E93F7CD90240FB21F93F7370032E0D
:104070008A19A33B000040543163621A61B4D03DF9
:10408000FB21394183C8C96D305FE43F0000E03F48
:104090002C210000B4200000182D4454FB21F93DD0
:1040A0003326A611460B113C2DE9FF4D21F00048A7
:1040B00007460C46B8F1795F08DA00F077FF002870
:1040C00001BF0020324904B0BDE8F08D3A462346D6
:1040D0001046194601F000F8054602462D480E46E6
:1040E0000B460621784400F05DF82A46334600F07E
:1040F000F3FFDDE9022382468B463846214600F075
:10410000EBFF04460F4652465B462846314600F018
:10411000E3FF22463B4601F005FA07468A464FF088
:10412000FF322846314601F050FE1B4A90450ADA1C
:104130003A46534601F0F6F904B00022BDE8F04DCE
:10414000134B01F0FDB8154A4245A8BFA8F500156C
:104150004FF00004B8BF124D22462B4601F0E2F9A1
:104160000646884622462B460020094901F0DAF926
:1041700004460D463A4653463046414601F0D2F9D0
:1041800004B022462B46BDE8F04D01F0D9B800003E
:104190000000F03F581E00003333D33F0000E93FDA
:1041A0000000D23F2DE9F0414F1E00EBC70104464D
:1041B000D1E9000115461E4637F006020DD02A4609
:1041C000334600F089FF7F1E04EBC703D3E90023C9
:1041D00000F0D8FC37F00602F1D1022F25D0042FD1
:1041E00013D0062F18BFBDE8F0812A46334600F0F1
:1041F00073FFD4E90A2300F0C5FC2A46334600F0D9
:104200006BFFD4E9082300F0BDFC2A46334600F0DA
:1042100063FFD4E9062300F0B5FC2A46334600F0DC
:104220005BFFD4E9042300F0ADFC2A46334600F0DE
:1042300053FFD4E9022300F0A5FC2A46334600F0E0
:104240004BFFD4E90023BDE8F04100F09BBC000027
:104250002DE9FF4D054621F0004084B00C46B0F139
:10426000795F0BDA2846FFF746FD042808BF00F007
:1042700065F8284608B02146BDE8F08D2A460B4671
:10428000104600F029FF06460F462A46234600F056
:1042900023FF804626488A4632463B46052178441D
:1042A000FFF780FF83461098029160B3214A224BAA
:1042B0004046514600F010FFCDE900015A46404605
:1042C0005146029B00F008FF82468846DDE9060160
:1042D0004FF0FF3201F079FD5246434601F022F9DA
:1042E00032463B4600F0F8FEDDE9062301F01AF9FC
:1042F000DDE9002301F016F908B02A462346BDE89F
:10430000F04D01F01DB80B465A463046394600F0D4
:10431000E3FE084A084B00F035FC4246534600F0E5
:10432000DBFE08B02A462346BDE8F04D00F02ABC6B
:104330009E1D0000495555555555C5BF024A0020E0
:10434000110701F042BD000001FDFFFF2DE9F04D16
:104350000546DFF8448221F00040904F82B00C46C1
:10436000404526DBA0EB080129430DD08C4988424B
:1043700001DC12D18DB102B028462146BDE8F04DD6
:104380004FF0010201F021BD002CC7BF0020014603
:104390008448394602B0BDE8F08D0120FFF7E5FB07
:1043A00002B00022BDE8F04D13461046114600F061
:1043B000A5BC7D49884244DA7C498142A1BF794845
:1043C0007B4902B0BDE8F08D2A46234610461946C7
:1043D00000F082FE8346024676480E460B460621D2
:1043E0007844FFF7DFFE5A46334600F075FE074675
:1043F00071488A465A46334604217844FFF7D2FE74
:104400005A46334600F068FE0022434600F0BAFBED
:1044100002460B463846514600F070FC2A462346B9
:1044200000F05AFE654A664B00F08AFF2A46234692
:1044300000F086FF02B05B4ABDE8F04D5C4B00F037
:104440007FBF002C4FF000024BDA46464346284619
:10445000214600F097FB4FF0FF3201F0B6FC044616
:10446000024658480D460B4606217844FFF79AFE4F
:1044700022462B4600F030FE804653488A462246AC
:104480002B4604217844FFF78DFE22462B4600F090
:1044900023FE0022334600F075FB06468B4620467D
:1044A000294600F017FB04460D4632465B4640465F
:1044B000514600F023FC22462B4600F00DFE3F4AF9
:1044C0003F4B01F02FF822462B4600F05BFB012208
:1044D00001F07BFC02B03B46BDE8F04D314A00F0F4
:1044E0002FBF2D4B2846214600F02AFF4FF0FF3208
:1044F00001F06BFC05460E4600F0ECFA00270C4676
:1045000080463A460B4600F03DFB82468B463A46D3
:1045100023461046194600F0DFFD2A46334600F0D8
:104520000FFF52465B4600F0E9FB824627488B4668
:104530002A46334606217844FFF734FE2A4633469E
:1045400000F0CAFDCDE9000121482A463346042186
:104550007844FFF727FE2A46334600F0BDFD0022CF
:104560000D4B00F00FFB02460B46DDE9000100F0A9
:10457000C5FB4246234600F0AFFD52465B4600F0C5
:1045800001FB3A46234600F0FDFA02B00122BDE8E5
:10459000F04D01F01ABC00000000F03FFB21094083
:1045A0000000F07F182D44540000E03F0000603C04
:1045B000FB21F93F741A00008A1A0000075C1433CB
:1045C00026A6913CEA190000001A00001E190000FE
:1045D000341900002DE9F84F04460D4621F0004043
:1045E00000917449814213DC7349884201DC08D18F
:1045F0003CB120462946BDE8F84F4FF0010201F0DA
:10460000E4BB6E48002DCCBF6D496E49BDE8F88F04
:104610006D49814211DD6D498142D8BF4FF0FF36AF
:104620006DDD20462946FFF766FB042808BFFFF72B
:1046300085FE20462946BDE8F88F6549654F25F07F
:104640000045814233DD6449814219DD002632464E
:104650004FF080432046294600F094FA80468A466F
:1046600001222046294601F0B0FB00223B4600F023
:1046700059FF4246534600F041FB04460D463EE0DA
:1046800001260022BA463B462046294600F07AFA27
:1046900080460F46002253462046294600F042FF3E
:1046A00042463B4600F02AFB04460D4627E04B49B4
:1046B00081421BDDDFF82881022600224346204686
:1046C000294600F009FD00223B4600F05BFA074650
:1046D0008A46002243462046294600F023FF3A46F8
:1046E000534600F00BFB04460D4608E00326224625
:1046F0002B4600203B4900F001FB04460D462246B4
:104700002B461046194600F0E7FC8B4682460246CF
:104710000B4600F0E1FC07460246334888460B464C
:1047200006217844FFF73EFD52465B4600F0D4FC7C
:1047300082462E488B463A46434605217844FFF789
:1047400031FD3A46434600F0C7FC02460B46002EB8
:10475000504659460CDA00F015FA22462B4600F076
:10476000BBFC01B022462B46BDE8F04F00F0E8BD8F
:1047700000F008FA22462B4600F0AEFC1C4A7A44B0
:1047800002EBC603D3E9002300F0CCFE22462B4601
:1047900000F0C8FE174A7A4402EBC603D3E90023AF
:1047A00000F0CEFD009A002AB8BF81F00041BDE8BC
:1047B000F88F0000000010440000F07F182D4454D2
:1047C000FB21F93FFB21F9BF0000DC3F0000203E48
:1047D0000000F33F0000F03F0000E63F0080034090
:1047E0000000F83F0000F0BFEA170000A817000023
:1047F000461700000E1700002DE9F04D9446CCF14D
:10480000000423F000464CEA0404524F46EAD474F4
:104810009A46884621F00042BC4206D8454240EA0A
:10482000050442EAD474BC4204D9BDE8F04D6246A6
:1048300000F0A8B9AAF14055A5F17F6555EA0C042E
:104840000BD0022404EAAA74434DDFF810E144EAD5
:10485000D87452EA000B04D00CE0BDE8F04DFFF72D
:10486000B9BE002C14BF012CBDE8F08D022C30D055
:10487000032C32D056EA0C0B0AD0BE4220D1BA42E9
:1048800009D126F0804622F080423346114617E0D7
:1048900000291ADB25E0DFF8C8B0FB44002C04BF78
:1048A000DBE90001BDE8F08D012C02BFDBE900016E
:1048B00081F00041BDE8F08D022C0AD0032C0CD011
:1048C000BA4212D1B8F1000F0BDA23482549BDE8EE
:1048D000F08D28462449BDE8F08D28467146BDE894
:1048E000F08D1D482149BDE8F08D921B12153C2A20
:1048F000C4BF19481D490EDCBAF1000FBEBF12F14A
:104900003C0F0020014606DB624600F0F7F921F07B
:104910000041FFF75FFE002C08BFBDE8F08D012CC1
:1049200004BF81F00041BDE8F08D114A114B022C0B
:1049300007D000F0F7FD2A46BDE8F04D0A4B00F025
:10494000F1BD00F0EFFD2A46BDE8F04D064B00F04A
:10495000F7BC00000000F07F182D4454FB2109C073
:10496000D2160000FB21F9BFFB210940FB21F93FD2
:10497000075C143326A6A13C00B5284B21F0004269
:1049800087B09A42DCBF0022134631DD244B9A42A5
:104990000DD168B94FF00100FFF7E7F8002207B02A
:1049A0001346104611465DF804EB00F0A7B906DB8C
:1049B00007B04FF001025DF804EB01F006BA02AA5D
:1049C000FFF7AEF910F0030104BF0DF1080C9CE8ED
:1049D0000F000DD0012001290ED0022914D00DF1B5
:1049E000080C00909CE80F00FFF732FC07B000BDF8
:1049F000FFF75AFB07B000BD0DF1080C00909CE8D2
:104A00000F00FFF725FC05E00DF1080C9CE80F00F6
:104A1000FFF74AFB07B081F0004100BDFB21E93FF1
:104A20000000F07F00B5294B21F0004287B09A4288
:104A300003DC00221346009233E0254B9A420DD14D
:104A400068B94FF00100FFF790F8002207B0134655
:104A5000104611465DF804EB00F050B906DB07B0D4
:104A60004FF001025DF804EB01F0AFB902AAFFF7C5
:104A700057F910F003014FF001000DD0012914D0B7
:104A800002291AD00DF1080C9CE80F00FFF70CFB6F
:104A900007B081F0004100BD0DF1080C00909CE8CA
:104AA0000F00FFF7D5FB07B000BD0DF1080C9CE827
:104AB0000F00FFF7F9FA07B000BD0DF1080C0090E8
:104AC0009CE80F00FFF7C4FBE2E70000FB21E93F91
:104AD0000000F07F2DE9F04106460F4600F03CFC57
:104AE00004000D4618BF0120284320F00040C0F10B
:104AF0007F6000F1E040C00F0ED0301C18BF0120D5
:104B0000384320F00040C0F17F6000F1E040C00F6A
:104B100004BF0120FFF729F820462946BDE8F081AF
:104B200021F00042A2F16052B2F5801F01F0004373
:104B300028BFD2F17F6C0BD95FEA001C43EAC202A6
:104B400042EB507018BF704728BF20F0010070473B
:104B5000B2F5801FBCBF184670474FEA410C1CF5E8
:104B6000001F02D2084601F052B870B500F05EFB9B
:104B700000000089FFF7F6BF4FF00040A0F580006D
:104B80007047000010B591EA030F48BF83F000435F
:104B900000F1D084841A71EB030C05D2121943EB97
:104BA0000C03001B61EB0C01DFF824E14FEA115408
:104BB000A4EB135C1EEA430F18BF9EEA445F73D058
:104BC00023EA0E03DCF1200E21EA045143F48013A2
:104BD00032D322FA0CFE10EB0E0023FA0CFE41EB4E
:104BE0000E01CCF1200E03FA0EFE10EB0E0051F177
:104BF0000001B1F5801FCCF1200E32D201EB04513F
:104C000012FA0EF2BDE8104058BF7047401C38BF82
:104C10005FEA420218BF7047002814BF20F001006D
:104C200041F100014FEA410313F5001F38BF7047FF
:104C3000A1F1C04100F048BB012A43EB0302ACF1F3
:104C4000200CDCF11F0E32BF4FF0000E23FA0CF3E4
:104C500010EB030041EB0451B4EB115FD0D0A1EB9A
:104C6000045101F5801149085FEA300001EB04515D
:104C70000ED350F1000038BF12FA0EFE08D1BDE885
:104C80001040C9E7401C38BF5FEA4202CAD1C3E7FF
:104C9000BDE810404FEA410313F5001F38BF7047CD
:104CA000A1F1C04100F010BB9EEA445F08D011EAB8
:104CB0005E0FBDE8104004BF01F0004100207047C6
:104CC000BDE8104070B500F0B1FA00BF64FBBE3E15
:104CD0000000E0FF02494FF0000001F044B800BFBF
:104CE0000000F87F491058BFC1F140415B1058BF28
:104CF000C3F140438B42EFF3008070472DE9C04180
:104D000030B4DFF8A0C23CEA111418BF3CEA131417
:104D100000F0EC8081EA03051CEA111444EAD57422
:104D200018BF1CEA131500F0C780A4EB05044FF070
:104D3000004545EAC12145EAC32341EA505143EA0F
:104D4000525304F17F74994204F500344FEAC020B5
:104D50004FEAC22208BF904200F09C804FEA1365E0
:104D60000FF24016765D4FEA134506FB05F7C7F1D3
:104D7000807706FB07F74FEAD737A7FB0368764231
:104D8000C8F58038A7FB06CE38BFA8F1010807FB9D
:104D900008E64FF0000EA6FB028CE6FB03CEDCF12A
:104DA000000CCEF1004E38BFAEF1010EA6FB0C5840
:104DB0004FF000074FF00005E6FB0E87A1FB08C689
:104DC000A0FB07CE16EB0E0645F10005E1FB0765DB
:104DD00015F1E04E7EBFA4F580345FEA46066D41D2
:104DE00016F1800745F100054FEA17274FEA0666DE
:104DF00047EA0567A6F1DE46B6F1805F4FEA152562
:104E00001FD9384624F0010C05EBC471BCF1FE6FCC
:104E100001EB0C1102D8F0BCBDE8008124425CBF5C
:104E200001F5801E9EEAC47F02D4F0BCBDE800817B
:104E3000244238D4F0BCA1F1C041BDE8004100F0EB
:104E400043BA4FEAD22242EA43524FEAD323A7FBA6
:104E500002864FEAD02040EA415007FB03661EEA73
:104E60000E0F4FEAD12105FB026658BFA6EB005694
:104E7000B6EB00564FEA520E4EEAC37E18EB0E0E0A
:104E800056EB530EBDD518EB02085E417F1C55F161
:104E90000005B6E74FF480154FF000074FF000060D
:104EA0004FF00008ADE7F0BC4FF0000001F1C04149
:104EB00001F00041BDE8008111EA0C1F0CEA131556
:104EC00000D00CE013EA0C1F00F025804FF000002A
:104ED000F0BC81EA030101F00041BDE80081F0BCB3
:104EE00081EA0301BDE8004100F0EEB9F0BCBDE885
:104EF000004170B500F09AF9097EFC3E00F007B859
:104F000081EA03014FF0000001F00041704781EA9F
:104F1000030100F0D9B9F0BC4FF000002249BDE810
:104F200000417047FFFDFBF9F7F5F4F2F0EEEDEB11
:104F3000E9E8E6E4E3E1E0DEDDDBDAD8D7D5D4D397
:104F4000D1D0CFCDCCCBCAC8C7C6C5C4C2C1C0BFE3
:104F5000BEBDBCBBBAB9B8B7B6B5B4B3B2B1B0AFE9
:104F6000AEADACABAAA9A8A8A7A6A5A4A3A3A2A1CD
:104F7000A09F9F9E9D9C9C9B9A9999989797969588
:104F800095949393929191908F8F8E8E8D8C8C8B24
:104F90008B8A8989888887878685858484838382AC
:104FA000828181800000FF070000F87F4FEA410303
:104FB0004FEA5353A3F58063D3F11E03C8BFD3F167
:104FC000210C0CDD4FF0004242EAC12242EA50526D
:104FD00032FA03FC8CEAE17CACEBE1707047102BF9
:104FE000C4BF0020704703F5787CBCF1FF3F04D0BC
:104FF0006FF0004282EA2100704770B500F016F9A8
:105000004992248000207047F2E710F0004248BF28
:105010004042B0FA80F310FA03F10AD0C3F11D0345
:1050200003F580634FEA415002EB035202EBD121BA
:1050300070474FF000007047B0FA80F310FA03F1A8
:105040000AD0C3F11D0303F580634FEA41504FEAD4
:10505000035202EBD12170474FF00000704700006F
:1050600051EA030C17D41CF5801F58BFBCF5801FF4
:1050700000F10680994218BF704708BF9042704700
:1050800007D711F5801F58BF13F5801F19D4994217
:105090007047894270471CF5801F08D5BCF5801FFA
:1050A000F7D58B4218BF704708BF824270474FF454
:1050B000001C1CEB410F38BF1CEB430F01D28B428D
:1050C000704770B500F0B2F8922449004FF00051DB
:1050D0004FF08053FFF706BEDFF848C170B51CEAF9
:1050E000111E1EBF1CEA13159EEA0C0F95EA0C0F49
:1050F00000F06F8081EA030423EA4C134EEAD47E69
:1051000021EA4C1141F4801143F48013AE44A1FB19
:10511000024CA0FB0365AEF17F7E361955EB0C0502
:10512000A1FB034C4CF10003A0FB021C16EB0C0688
:10513000654153F10003094218BF46F0010613F41C
:10514000007F0BD14FEA03314FEA0530340341EAC7
:10515000155140EA16506FF003020AE04FEAC321EE
:105160004FEAC520F40241EA555140EA56506FF02B
:10517000020202EB2E4201EB025585EACE710AD003
:105180005FEA440C18BF24F0004450F1000041F1E4
:10519000000120EAD47040F2FE7C624500D270BD6E
:1051A000A84214BF4FF080444FF04044002E08BF87
:1051B0000024BEF1806FA8BFA1F1C041BDE87040DE
:1051C00080F282804FF0000001F1C04101F0004107
:1051D00070479EEA0C0F0CEA131518BF95EA0C0FE6
:1051E00006D04FF0000081EA030E0EF0004170BDC2
:1051F00000F01CF88900013E00F007B800F009B883
:105200004FEA430C5FEA5C5C08D081EA030100F0DE
:105210005BB84FEA410C5FEA5C5CF6D14FF00000EE
:10522000014970470000FF070000F87F0EF1020EF1
:105230002EF0030E5EF8046B364205D4012A43EBD0
:10524000030515F5001F12D8012841EB010C1CF5D0
:10525000001F0CD80ED14FEAD17C15F5001F0CEBC6
:105260004C0C0CF1020C08BF4CEBD37C04E04FF06B
:10527000080C01E04FEAD37C0CEB4C0526FA05F64E
:1052800006F00706B6F1040C06D20EEB860CBDE85C
:1052900070404CF0010C6047DFE80CF0090B020293
:1052A0004FF000414FF00000A1F5002170BD1946FC
:1052B0001046012851EB010418BFD4F5001484BF37
:1052C000002001F0004170BD0808A0F500114FEA70
:1052D0003101704753EA010C17D41CF5801F58BFE9
:1052E000BCF5801F00F106808B4218BF704708BFD5
:1052F0008242704707D713F5801F58BF11F5801FF2
:1053000019D48B4270479B4270471CF5801F08D50B
:10531000BCF5801FF7D5994218BF704708BF90426F
:1053200070474FF4001C1CEB430F38BF1CEB410FC0
:1053300001D2994270470FB40CBC03BCFFF7C1BE49
:1053400091EA030F10B581F000413FF523AC83F0E3
:10535000004300F0EFB800002DE9F04101F5801C9A
:10536000BCF5001FC0F2C3804FEA115C21EA0C516A
:105370000CF1FD0C41F480115FEA5C0C0CF5C07C73
:1053800001D3400049413DA4890241EA905187027E
:105390008E0E0A0CA45D04FB04F602FB06F6C6F1B1
:1053A0004046A4FB0662F60D46EA422606FB06F4DA
:1053B000A4FB01235242C3F1404338BF5B1EA6FB4E
:1053C00002420024E6FB0324D20B42EA4446A6FB39
:1053D0000623A1FB02E2A3FB07E4A4184FF000029E
:1053E00052F10002E3FB01426442C2F1404E38BF79
:1053F000AEF1010EA6FB04234FF00002E6FB0E32D5
:10540000A2FB03464FF00004B61954F10004E2FB7E
:105410000264A1FB06E6A4FB07E816EB08064FF0C2
:10542000000858F10008E4FB01687642C8F14058D2
:1054300038BFA8F10108A2FB06E4A3FB08E52D197B
:105440004FF0000454F10004E2FB0854A1FB05E610
:10545000A7FB04E818EB06084FF0000656F100061B
:10546000E1FB048618F1200556F10006A809A8F111
:105470001B08B10908F03F08B8F10A0F40EA86603E
:105480001CD901EB0C51BDE8F08100BFFCF5EEE842
:10549000E2DDD8D3CFCBC7C3C0BDB9B6B4B1AEACD3
:1054A000A9A7A5A3A19F9D9B9A9896959392908F4B
:1054B0008D8C8B898887868584838281A0FB006898
:1054C00000FB01F208EB4208B8EB872807D5341837
:1054D00058EB0104D5D5401C51F10001D1E7341A35
:1054E00078EB0104CDD4401E71F10001C9E75FEAF9
:1054F0004C0C5FEA9C5C0DD105D34FF0000001F02D
:105500000041BDE8F081BDE8F04170B5FFF78EFEC7
:105510006DDBFFBEBDE8F0414FF000000049704771
:105520000000F87F10B591EA030F48BF83F00043F5
:105530003FF530AB841A71EB030C07D212198CF0D3
:10554000004C43EB0C03001B61EB0C01DFF8A4E102
:105550004FEA1154A4EB135C1EEA430F18BF9EEAF6
:10556000445F00F0B08023EA6E03524221EA045106
:10557000C3EB6E0338BF5B1EDCF1200E25D322FA8D
:105580000CFE10EB0E0043FA0CFE41EB0E01CCF1C9
:10559000200E03FA0EFE10EB0E0051F10001CCF1CB
:1055A000200E29D412FA0EF201EB0451BDE810408E
:1055B00058BF7047401C1CBFB2F1004F7047002815
:1055C0000CBF491C20F00100704712EB020E43EBA8
:1055D000030218BF4FF0010E4EEA4202ACF1200C5C
:1055E000DCF11E0E54D943FA0CFE10EB0E0051F103
:1055F000FF31CCF11E0ED5D50EF1010E12FA0EFEC2
:10560000404141EB010101EB445C5FEA5C5C10D975
:1056100010EBDE7001EB045138BFBEF1004FBDE866
:10562000104018BF704700280CBF491C20F0010033
:10563000704730D24FEAD42C11F5001124F40064E5
:105640001BD0B1FA81F20B3AA41AA41ED2F12003A6
:10565000914030FA03F31943904001EBCC71002CD8
:1056600001EB0451BDE81040A8BF704701F1C041F3
:105670004FF0000001F000417047B0FA80F310FADB
:1056800003F100D110BDE41A173C4805C90AE4E74C
:1056900001EB045110BD491001EB0451BDE810406D
:1056A0004FEA300002E04FF0000170474A0008BFA7
:1056B0000042F8D0B2F5001F28BF704701F000414A
:1056C0004FF0000070479EEA445F07D011EA5E0F7A
:1056D000BDE8104004BF002100207047BDE8104025
:1056E00070B5FFF7A3FD00BF40DFF63E83F0004139
:1056F000104670470000E0FF43004FEAD30C4FEA2A
:105700003C0C43401FBF40070CF1605113F0FE4FAB
:1057100070471CF0006F03D100200CF0004170476F
:105720000CF0004343EA507010B540EACC0000F0A2
:1057300028FA00BF000000924FEA0001FFF7C4BD45
:105740004FF000414FF00000A1F50021704700002C
:1057500090EA010F48BF81F0004100F19682421AA1
:105760003CBF801A89184FEAD0524FF07F4C1CEA98
:10577000410FA2EBD15318BF9CEA026F00F03B80AF
:105780004FF0004C4CEA00204CEA012121FA03FCC6
:1057900010EB0C0C1ED202F1FF325FEA1C2040EB32
:1057A000C25038BF70471CF07F0F4FEA400C18BF43
:1057B000BCF17F4F38BF7047C3F12003994008BF49
:1057C00020F00100BCF17F4F38BF7047A0F1C0400E
:1057D00000F01DBA4FEA3C00000A40EBC25028BF5F
:1057E0001CF0FF0F4FEA400CE6D018BFBCF17F4F12
:1057F00038BF7047EAE79CEA026F05D010EA5C0FF9
:1058000008BF00F00040704710B500F0BAF900BFC3
:1058100064FBBE3E401058BFC0F14040491058BF25
:10582000C1F140418142EFF3008070474FF47F0C9B
:105830001CEAD0121EBF1CEAD11392EA0C0F93EAA5
:105840000C0F00F0858090EA010F48BF42F480728F
:1058500040F4000C41F400002CF07F4120F07F4028
:1058600000B58142A2EB03020FF2081CACEB504ED4
:10587000C0F100009EF800E04FEA4E0E00FB0EFC67
:1058800038BF49004FEA2C1C02F5FA020CFB0EF35C
:105890004FEACE1E4FEA112C4FEAC1210EEB635E98
:1058A00042EB22420EFB0CFC4FEA1C5300FB03119F
:1058B0004FEA112C4FEA01310EFB0CFC4FEADC4C95
:1058C00000FB0C11C14228BF09184CEB03335DF8F3
:1058D00004EB10EB410143EBC250B2F57C0F38BF33
:1058E000704729D512F0F00F1CBF00F1C04000F046
:1058F00000407047008182838485868788898B8CED
:105900008D8E8F919293959697999A9C9D9FA0A228
:10591000A3A5A7A8AAACAEB0B2B3B5B7B9BCBEC078
:10592000C2C5C7C9CCCED1D4D7D9DCDFE2E6E9EC19
:10593000F0F3F7FAFE0000004FEA400C0CF1807C17
:10594000BCF17E4F28BF7047B0F1C04000F05FB996
:1059500090EA010F0CEAD11348BF42F4807262450D
:1059600038BF634507D213F47F0F16D080EA0100D9
:1059700000F00040704710B500F003F9097EFC3ECE
:1059800000F005B880EA010000F00040704780EAAE
:10599000010000F0004000F03AB912F47F0F04BF9C
:1059A0000248704780EA010000F031B90000C07F72
:1059B000C10DD1F19E0206DB4FEA002343F0004304
:1059C00023FA02F07047004207D54FEA4001B1F1D7
:1059D000FE4F02D24FF00000704710B500F0D1F832
:1059E00049922480002070476FEA20007047000031
:1059F000B0FA80F310FA03F2C3F19D030AD0D9057F
:105A000001EB1220530638BF704700F1010008BFB8
:105A100020F001007047000050EA010C00F11380F3
:105A20001CF5000F58BFBCF5000F01D48842704729
:105A300007D710F5000F58BF11F5000F15D4884295
:105A40007047894270471CF5000F04D5BCF5000F64
:105A5000F7D5814270474FF0807C1CEB400F38BF78
:105A60001CEB410F01D28142704710B500F089F85C
:105A7000922449004FF000504FF08051FFF7CABE0A
:105A80004FF47F0C1CEAD0121EBF1CEAD11392EA1D
:105A90000C0F93EA0C0F00F0478090EA010F48BF0B
:105AA00042F480724FF0004C4CEA00204CEA012195
:105AB00002EB0302A0FB0113A2F50002002918BFAC
:105AC00043F001035B0028BF4FEA330342EB22425D
:105AD0005FEA132C4CEBC2502EBFBCEB436FB2F508
