:020000040800F2
:10000000E8070020ED050008B7030008B903000861
:10001000BD030008C1030008C5030008000000007C
:10002000000000000000000000000000C9030008FC
:10003000CB03000800000000CD030008CF03000838
:10004000070600080706000807060008070600085C
:10005000070600080706000807060008070600084C
:10006000070600080706000807060008070600083C
:1000700007060008630300080706000807060008D3
:10008000070600080706000807060008070600081C
:100090006F030008070600080706000807060008A7
:1000A00007060008070600080706000807060008FC
:1000B000A1020008D3020008030300080706000895
:1000C00007060008070600080706000807060008DC
:1000D00007060008070600080706000807060008CC
:1000E00007060008070600080706000807060008BC
:1000F00007060008070600080706000807060008AC
:100100000706000807060008330300080706000872
:100110000706000807060008F90100081502000894
:10012000070600080706000807060008070600087B
:1001300000F002F800F03AF80AA090E8000C8244BF
:100140008344AAF10107DA4501D100F02FF8AFF29C
:10015000090EBAE80F0013F0010F18BFFB1A43F0A5
:10016000010318477C4100009C410000103A24BF65
:1001700078C878C1FAD8520724BF30C830C144BF0C
:1001800004680C607047000000230024002500264E
:10019000103A28BF78C1FBD8520728BF30C148BFEA
:1001A0000B6070471FB51FBD10B510BD03F0C5FD36
:1001B0001146FFF7F7FF00F009F803F0E3FD03B481
:1001C000FFF7F2FF03BC03F0E7FD000000F08DF93C
:1001D00003F052FA0DE0142003F0A4F9054800687A
:1001E00008B9012000E0002002490860142003F053
:1001F00099F9F0E7B881214210B57548006808B94F
:10020000012000E00020724908600121714802F0DD
:1002100027FB10BD10B503F078FB03F05FFD002055
:100220006D4948616D4948616D48007A032803D1E2
:10023000002003F08FFC0AE06948007A012803D00F
:100240006748007A022802D1142003F083FC644836
:10025000407A032804D14FF47A70624908800BE099
:100260005F48407A012803D05D48407A022803D1D4
:100270004FF4C8605B4908805B49B1F9080003F09E
:1002800032FC53480830006808B9012000E0002023
:100290004F49083108600121544802F0E1FA10BDCD
:1002A00010B54FF08040008800F0100030B1504889
:1002B000008A401E00B24E49088205E04C48008A80
:1002C000401C00B24A4908820121880702F0C8FA9E
:1002D00010BD10B54748008800F0100030B1444808
:1002E000408A401E00B24249488205E04048408AA8
:1002F000401C00B23E49488201213E4802F0B0FA5B
:1003000010BD10B53C48008800F0100030B13848EE
:10031000808A401E00B23649888205E03448808ACF
:10032000401C00B2324988820121334802F098FA19
:1003300010BD10B53148008800F0100030B12C48D5
:10034000C08A401E00B22A49C88205E02848C08AF7
:10035000401C00B22649C8820121284802F080FAD8
:1003600010BD10B54FF4007000F0AEFF10BD10B519
:10037000234A0021234800F04EFC21480068B0F5D4
:10038000007F14D11E48007A88B91D48007B1C49A3
:10039000C97A40EA0120124948801948407B087216
:1003A0001748807B487201201749087002E000203E
:1003B0001549087010BD704700BFFEE700BFFEE79B
:1003C00000BFFEE700BFFEE7704770477047704709
:1003D000B481214200100040D8000020000100201C
:1003E0009A000020342C01407801002000140040C5
:1003F000B00000200004004000080040000C004055
:100400007400002000640040580000200CB500205B
:10041000019000906C48006840F480306A490860A0
:1004200000BF6948006800F4003000900198401C4B
:100430000190009818B90198B0F5A06FF1D1624809
:10044000006800F4003010B10120009001E00020AD
:1004500000900098012843D15C48006840F01000EB
:100460005A4908600846006820F003000860084602
:10047000006840F0020008605348406852494860F4
:100480000846406848600846406840F4806048601C
:100490000846406820F47C1048600846406840F4F4
:1004A000E81048600846006840F08070086000BFAF
:1004B0004548006800F000700028F9D042484068C4
:1004C00020F00300404948600846406840F00200C0
:1004D000486000BF3C48406800F00C000828F9D193
:1004E0000CBD10B5FFF792FF10BD10B5364800687F
:1004F00040F001003449086008464068344908402B
:100500003149486008460068324908402E49086071
:100510000846006820F4802008600846406820F4FF
:10052000FE0048604FF41F008860FFF7DAFF4FF0CD
:1005300000602949086010BD10B50021002000228C
:10054000214B5B6803F00C0121B1042906D0082976
:1005500028D107E0214B224C236027E01F4B204C81
:10056000236023E0184B5B6803F47010164B5B6844
:1005700003F48032022303EB904022B9194B43432A
:10058000174C23600DE0104B5B6803F4003323B17C
:10059000144B4343124C236003E0104B4343104C75
:1005A000236003E00D4B0E4C236000BF00BF064BE1
:1005B0005B68C3F303130C4CE15C094B1B68CB4035
:1005C000074C236010BD00000010024000200240D4
:1005D0000000FFF8FFFFF6FE08ED00E000127A00D1
:1005E0000000002000093D00040000200948804769
:1005F00009480047FEE7FEE7FEE7FEE7FEE7FEE705
:10060000FEE7FEE7FEE7FEE704480549054A064B1C
:1006100070470000EB04000831010008E8010020E9
:10062000E8070020E8030020E803002031490143E7
:10063000314A1160704770B5002100230F22C47841
:1006400004B32D4C246804F4E064C4F5E064210A8A
:10065000C1F10403CA40447804FA03F184781440D9
:1006600021430901254C0678A155047804F01F05A3
:100670000124AC4005786D11AD0005F1E025C5F809
:10068000004109E0047804F01F050124AC401C4D32
:100690000678761145F8264070BD1A4A0A40024392
:1006A000154B1B1F1A60704739B1134A121D12688F
:1006B0000243114B1B1D1A6006E00F4A121D1268FF
:1006C00082430D4B1B1D1A607047042808D14FF060
:1006D000E021096941F004014FF0E022116107E0D7
:1006E0004FF0E021096921F004014FF0E02211618F
:1006F000704700000000FA050CED00E000E400E0A7
:1007000080E100E080FFFF1F10B50446FE488442F0
:1007100009D10121480601F05CF900214FF0007079
:1007200001F057F908E00121880601F052F9002193
:100730004FF0806001F04DF910BD30B50246002049
:100740000023146824F002041460146844F00104C7
:10075000146000E05B1C546804F001041CB94FF6FF
:10076000FF74A342F6D1546804F001040CB90020D0
:100770006CE08C79012C04D1146844F0800414607E
:1007800003E0146824F080041460CC79012C04D1B7
:10079000146844F04004146003E0146824F040043A
:1007A00014600C7A012C04D1146844F02004146005
:1007B00003E0146824F0200414604C7A012C04D166
:1007C000146844F01004146003E0146824F010046A
:1007D00014608C7A012C04D1146844F0080414606D
:1007E00003E0146824F008041460CC7A012C04D1CE
:1007F000146844F00404146003E0146824F0040452
:1008000014608C78A407CD7844EA05640D7944EA35
:1008100005444D7944EA05540D886D1E2C43D4617E
:10082000146824F001041460002300E05B1C546889
:1008300004F001041CB14FF6FF74A342F6D15468D2
:1008400004F001040CB1002000E0012030BD10B51F
:100850000021837A012202FA03F1AC4A126842F0C5
:100860000102AA4B1A60A94A1C3212688A43A74B9C
:100870001C331A60027BCAB9A44A0C3212688A433C
:10088000A24B0C331A604288C38842EA03439F4A52
:100890004032847A42F834300288838842EA034343
:1008A0009A4A4032847A02EBC4025360027B012AE6
:1008B00019D1964A0C3212680A43944B0C331A60D1
:1008C0004288038842EA0343904A4032847A42F8DD
:1008D0003430C288838842EA03438C4A4032847AA7
:1008E00002EBC4025360C27A3AB9884A121D1268F8
:1008F0008A43864B1B1D1A6006E0844A121D12684B
:100900000A43824B1B1D1A60028932B97F4A143296
:1009100012688A437D4B14331A600289012A06D17A
:100920007A4A143212680A43784B14331A60427BB5
:10093000012A06D1754A1C3212680A43734B1C33D4
:100940001A60724A126822F00102704B1A6010BDE0
:1009500000218171C171017241728172C172817015
:10096000C170032101710221417101210180704791
:100970006649096841F00101644A1160114609683D
:1009800043F60E729143614A11601146096841EACB
:10099000002111601146096821F0010111607047C2
:1009A00021B1026842F48032026003E0026822F45E
:1009B000803202607047E1B1026842F0800202605A
:1009C0004FF4C272125842F480734FF4C272135043
:1009D0004FF4CA72125842F480734FF4CA72135023
:1009E0004FF4D272125842F480734FF4D272135003
:1009F0001BE0026822F0800202604FF4C2721258BB
:100A000022F480734FF4C27213504FF4CA7212581A
:100A100022F480734FF4CA7213504FF4D2721258FA
:100A200022F480734FF4D2721350704710B502460F
:100A30000020936803F08063B3F1806F00D110E071
:100A4000936803F00063B3F1006F01D1012008E067
:100A5000936803F08053B3F1805F01D1022000E07E
:100A60000420042879D002F5C07303EB00131B683F
:100A700003F0010402F5C07303EB00131C600B7A52
:100A80007BB94B7A0C8843EA445302F5C07404EBFB
:100A900000142468234302F5C07404EB001423609F
:100AA00010E00B7A4C6843EAC4034C7A234302F506
:100AB000C07404EB00142468234302F5C07404EBF3
:100AC000001423608B7A03F00F038B7202F5C0735E
:100AD00003EB00135B6823F00F0402F5C07303EB14
:100AE00000135C6002F5C07303EB00135B688C7A43
:100AF000234302F5C07404EB001463608B7B1C0677
:100B00004B7B44EA034403E000640040006600407D
:100B10000B7B44EA0323CC7A234302F5C07404EB35
:100B20000014A3608B7C1C064B7C44EA03440B7CC2
:100B300044EA0323CC7B234302F5C07404EB001486
:100B4000E36002F5C07303EB00131B6843F001047C
:100B500002F5C07303EB00131C6010BD10B5024614
:100B6000002321B1012907D002290FD109E09068A3
:100B7000F94C00EA04030BE09068F84C00EA040327
:100B800006E09068F64C00EA040301E0002300BF91
:100B900000BFF44C181BA34216D007DC83B16FF0E2
:100BA0008060184470B1022818D111E0B0F5007FC0
:100BB00010D0ED4C204448B1B0F5003F0ED10BE011
:100BC00002230DE000230BE0002309E0002307E0EF
:100BD000012305E0012303E0012301E0002300BF1E
:100BE00000BFD8B210BD21B1012907D002290FD111
:100BF00009E0826842F0800282600AE0826842F482
:100C00000042826005E0826842F40002826000E0F7
:100C100000BF00BF704710B500F5D87303EB011398
:100C20001B6803F004031372137A53B900F5D873E9
:100C300003EB01131B6840F2FF7404EA5353136083
:100C400009E000F5D87303EB01131B686FF06044F3
:100C500004EAD303536000F5D87303EB01131B6858
:100C600003F00203537200F5D87303EB01135B68C2
:100C700003F00F03937200F5D87303EB01135B6865
:100C80001B0AD37400F5D87303EB01139B68D3726E
:100C900000F5D87303EB01139B681C0A147300F56D
:100CA000D87303EB01139B681C0C547300F5D873C5
:100CB00003EB01139B681B0E937300F5D87303EBD2
:100CC0000113DB68D37300F5D87303EB0113DB6802
:100CD0001C0A147400F5D87303EB0113DB681C0CB9
:100CE000547400F5D87303EB0113DB681B0E937487
:100CF00021B9C36843F02003C36003E0036943F0F4
:100D00002003036110BD21B9C26842F02002C26015
:100D100003E0026942F020020261704702460020AF
:100D200019B9D36803F0030006E0012903D1136960
:100D300003F0030000E00020704710B502460B46A8
:100D400000204FF6FF71BBB9146824F0020444F090
:100D50000104146000E0491E546804F00304012CEF
:100D600001D00029F7D1546804F00304012C01D00C
:100D7000002032E0012030E0012B13D1146824F070
:100D80000304146000E0491E546804F003040CB12D
:100D90000029F8D1546804F003040CB100201CE0D1
:100DA00001201AE0022B17D1146824F0010444F04A
:100DB0000204146000E0491E546804F00304022C8D
:100DC00001D00029F7D1546804F00304022C01D0AB
:100DD000002002E0012000E0002010BD01460020BC
:100DE0000A6822F0010242F002020A604A6802F038
:100DF0000302022A00D10120704701464FF6FF721C
:100E000000200B6823F002030B6000E0521E4B68C9
:100E100003F00203022B01D1002AF7D14B6803F043
:100E20000203022B00D001207047014600208A698E
:100E300002F070007047014600208A69100E70476A
:100E4000014600208A69C2F3074070471AB143691E
:100E50000B43436102E043698B434361704710B524
:100E60000246002001F4700343B19369C1F31304F7
:100E700023400BB101202DE000202BE001F0807316
:100E800043B15368C1F3130423400BB1012021E0A7
:100E900000201FE001F0006343B19368C1F3130425
:100EA00023400BB1012015E0002013E001F0007396
:100EB00043B1D368C1F3130423400BB1012009E00F
:100EC000002007E01369C1F3130423400BB1012094
:100ED00000E0002010BD0022244B994202D10023E3
:100EE000836111E0C1F3130201F000730BB1C26022
:100EF0000AE001F080630BB1026105E001F00063DC
:100F00000BB1826000E0426070470246002002EAB6
:100F100001030BB1012000E00020704770B50446CA
:100F20000D46002660692840002872D0B5F5807F04
:100F300069D01DDC082D42D006DC012D2DD0022DFC
:100F400031D0042D7FD134E0102D3ED0202D42D061
:100F5000402D78D145E000000300000400030008A4
:100F600000000310000100080001FFF77000F030DE
:100F7000B5F5004F61D009DCB5F5007F4AD0B5F575
:100F8000806F4DD0B5F5006F5DD150E0B5F5803F75
:100F90002DD0B5F5003F56D12FE0A0685549FFF799
:100FA000B4FF064651E0E0680321FFF7AEFF0646B6
:100FB0004BE0E0680821FFF7A8FF064645E0E0683F
:100FC0001021FFF7A2FF06463FE020690321FFF74B
:100FD0009CFF064639E020690821FFF796FF064688
:100FE00033E020691021FFF790FF06462DE060688E
:100FF0000821FFF78AFF064627E060681021FFF707
:1010000084FF064621E0A0690121FFF77EFF064626
:101010001BE01BE0A0690221FFF777FF064614E002
:10102000A0690421FFF771FF06460EE00BE0A069FE
:101030007021FFF76AFF064607E060680421FFF7AA
:1010400064FF064601E0002600BF00E000263046AF
:1010500070BDB1F5007F3AD00FDC202928D006DC26
:1010600001291CD004291DD0082940D11DE04029A8
:1010700021D0B1F5807F3AD126E0B1F5004F31D0D3
:1010800006DCB1F5806F25D0B1F5006F2FD124E0DB
:10109000B1F5803F12D0B1F5003F28D111E0154ADB
:1010A000826025E00822C26022E01022C2601FE0B8
:1010B000082202611CE01022026119E0082242604D
:1010C00016E01022426013E00422426010E0042285
:1010D00042600DE0042242600AE0002282610422A4
:1010E000426005E0002282610422426000E000BF0D
:1010F00000BF70470101010001684FF6FE72114008
:1011000001600021016041608160C1608D498842B9
:1011100008D18C490839496841F00F01894A083AD9
:1011200051608AE087491431884208D185490839DD
:10113000496841F0F001834A083A51607DE08149F5
:101140002831884208D17F490839496841F47061E3
:101150007C4A083A516070E07A493C31884208D1B3
:1011600078490839496841F47041764A083A516033
:1011700063E074495031884208D17249083949689E
:1011800041F470216F4A083A516056E06D4964316C
:10119000884208D16B490839496841F47001694AAD
:1011A000083A516049E067497831884208D1654979
:1011B0000839496841F07061624A083A51603CE080
:1011C0006149884206D1011F096841F00F01021FE1
:1011D000116032E05C491431884208D15A49091F34
:1011E000096841F0F001584A121F116025E0564984
:1011F0002831884208D15449091F096841F47061B7
:10120000514A121F116018E04F493C31884208D101
:101210004D49091F096841F470414B4A121F116082
:101220000BE049495031884207D14749091F0968F5
:1012300041F47021444A121F1160704710B500221A
:10124000026847F6F0739A430C6A8B6823430C6973
:1012500023434C6923438C692343CC6923434C6A61
:1012600023438C6A23431A430260CB6843600B68B4
:1012700083604B68C36010BD0021016041608160E4
:10128000C160016141618161C1610162416281624C
:10129000704721B1026842F00102026004E0026876
:1012A0004FF6FE731A40026070471AB103680B4391
:1012B000036002E003688B4303607047416070473E
:1012C0000146486880B2704701460020002201F0C4
:1012D00080531BB11C4B083B1A6802E0194B083BBA
:1012E0001A6802EA01030BB1012000E000207047F8
:1012F00000F0805119B11449091F086002E011493A
:1013000008394860704701460020002201F08053F0
:101310001BB10D4B083B1A6802E00A4B083B1A68E8
:1013200002EA01030BB1012000E00020704700F049
:10133000805119B10449091F086002E001490839C8
:1013400048607047080002400804024010B5044697
:10135000CC48844208D10121042000F02DFB00215B
:10136000042000F029FB46E0C748844208D101214F
:10137000082000F021FB0021082000F01DFB3AE0CE
:10138000C248844208D10121102000F015FB002141
:10139000102000F011FB2EE0BD48844208D101214D
:1013A000202000F009FB0021202000F005FB22E0B6
:1013B000B848844208D10121402000F0FDFA002104
:1013C000402000F0F9FA16E0B348844208D1012128
:1013D000802000F0F1FA0021802000F0EDFA0AE010
:1013E000AE48844207D10121801500F0E5FA0021C2
:1013F000A01500F0E1FA10BD10B50121084600F07B
:10140000DBFA0021012000F0D7FA10BD2DE9F041F0
:10141000024600250026002000230024002791F822
:1014200003C00CF00F0591F803C00CF0100CBCF1D8
:10143000000F03D091F802C04CEA050591F800C0F6
:10144000BCF1000F31D0146800202BE04FF0010CEC
:101450000CFA00F3B1F800C00CEA03069E4220D15A
:1014600083004FF00F0C0CFA03F7BC4305FA03FCA2
:101470004CEA040491F803C0BCF1280F06D14FF0E8
:10148000010C0CFA00FCC2F814C00AE091F803C089
:10149000BCF1480F05D14FF0010C0CFA00FCC2F86A
:1014A00010C0401C0828D1D31460B1F800C0BCF1B2
:1014B000FF0F34DD546800202EE000F1080C4FF0DF
:1014C000010808FA0CF3B1F800C00CEA03069E42CA
:1014D00021D183004FF00F0C0CFA03F7BC4305FA3F
:1014E00003FC4CEA040491F803C0BCF1280F05D1B9
:1014F00000F1080C08FA0CF8C2F8148091F803C047
:10150000BCF1480F07D100F1080C4FF0010808FAB0
:101510000CF8C2F81080401C0828CED35460BDE8F7
:10152000F0814FF6FF710180022181700421C170AA
:1015300070470246002093680B400BB1012000E089
:10154000002070470146886880B27047024600203C
:10155000D3680B400BB1012000E00020704701462A
:10156000C86880B2704701617047416170470AB135
:10157000016100E041617047C16070474FF4803203
:101580000A43826181618261826982697047024691
:101590000020434B18684FF68073184040EA021051
:1015A00008433F4B186070473E49C8617047F0B52B
:1015B0000A46002300240021002500F00046B6F171
:1015C000004F02D1364EF16901E0354E7168C0F32B
:1015D000034583B200F44016B6F5401F08D121F050
:1015E00070612F4E766826F070662D4F7E6012E097
:1015F00000F48016B6F5801F06D1032606FA05F41E
:10160000A14341F0706106E0460D360103FA06F68B
:10161000B14341F0706122B1460D360103FA06F67E
:10162000314300F00046B6F1004F02D11C4EF1618B
:1016300001E01B4E7160F0BD30B500228B071C0F1E
:101640000F2303FA04F2164B08338C1053F824309E
:101650009343134C08348D1044F8253023468C10E6
:1016600053F824308C07240F00FA04F423430C4C65
:1016700008348D1044F8253030BD0A49DC3108604B
:101680007047000000080140000C014000100140BC
:101690000014014000180140001C014000200140DE
:1016A0000000014000002042DF48006840F00100D7
:1016B000DD49086008464068DC490840DA4948606E
:1016C00008460068DA490840D749086008460068BB
:1016D00020F4802008600846406820F4FE0048603E
:1016E0004FF41F0088607047CF49096821F48031AA
:1016F000CD4A11601146096821F480211160B0F5CE
:10170000803F03D0B0F5802F0ED106E0C6490968AE
:1017100041F48031C44A116007E0C349096841F4CB
:10172000A021C14A116000E000BF00BF704710B5A2
:1017300001460022002300204A11012A02D1BA4C9E
:10174000236806E0022A02D1B74C236A01E0B64CB6
:10175000636A01F01F02012494401C400CB1012077
:1017600000E0002010BD38B50020009000240025C6
:1017700000BF3120FFF7DBFF05460098401C0090BA
:101780000098B0F5A06F01D0002DF2D03120FFF706
:10179000CEFF08B1012400E00024204638BD0146F8
:1017A0000020A14A106820F0F80040EAC100106053
:1017B0007047A04908607047024600209A4B58685D
:1017C00020F47C1042EA01031843974B586070479D
:1017D00098490866704701460020934A506820F0F7
:1017E00003000843506070478F48406800F00C00C9
:1017F0007047014600208C4A506820F0F0000843F2
:101800005060704701460020874A506820F4E0602D
:1018100008435060704701460020834A506820F416
:10182000605040EAC1005060704729B17E4A527A48
:1018300002437D4B5A7204E07B4A527A82437A4BD0
:101840005A7270477B49D8310860704701460020C2
:10185000754A506820F440400843506070470021AA
:10186000714A20321170704A82F82010012802D08B
:1018700004280AD104E001216B4A2032117005E0EE
:101880000521694A2032117000E000BF00BF704797
:101890006949086070476449096A0143624A1162F4
:1018A0007047654944390860704730B5002100220F
:1018B000002400235C4D6D6805F00C0121B1042962
:1018C00005D0082923D105E05C4D056022E05B4D81
:1018D00005601FE0544D6D6805F47012524D6D683F
:1018E00005F48034022505EB92421CB9544D554352
:1018F00005600BE04C4D6D6805F400351DB1504D91
:101900005543056002E04D4D5543056002E04B4DE7
:10191000056000BF00BF444D6D6805F0F001090986
:10192000484D6B5C0568DD4045603F4D6D6805F4D2
:10193000E061090A434D6B5C4568DD4085603A4DC6
:101940006D6805F46051C90A3E4D6B5C4568DD4029
:10195000C560354D6D6805F44041890B3A4D6B5CAF
:10196000C568B5FBF3F5056130BD29B12E4A526952
:1019700002432D4B5A6104E02B4A526982432A4BA1
:101980005A61704729B1284A92690243264B9A61ED
:1019900004E0254A92698243234B9A61704729B13A
:1019A000214AD2690243204BDA6104E01E4AD2691F
:1019B00082431D4BDA61704729B11B4AD26802434A
:1019C000194BDA6004E0184AD2688243164BDA6099
:1019D000704729B1144A12690243134B1A6104E09B
:1019E000114A12698243104B1A61704712494039FB
:1019F000086070470F49C86470470B49C871704749
:101A00000948406A40F080700749486270470146C3
:101A10000020054A92680A400AB1012000E0002037
:101A20007047014988727047001002400000FFF8BB
:101A3000FFFFF6FE000042428004424200127A009C
:101A400000093D00140000202400002010B50446C9
:101A5000FE48844208D10121C014FFF7ADFF0021E8
:101A6000E014FFF7A9FFC4E0B4F1804F08D10121D1
:101A70000846FFF7AEFF00210120FFF7AAFFB8E0FC
:101A8000F348844208D101210220FFF7A2FF002180
:101A90000220FFF79EFFACE0EE48844208D101210E
:101AA0000420FFF796FF00210420FFF792FFA0E03B
:101AB000E948844208D101210820FFF78AFF00216C
:101AC0000820FFF786FF94E0E448844208D1012112
:101AD0001020FFF77EFF00211020FFF77AFF88E03B
:101AE000DF48844208D101212020FFF772FF002146
:101AF0002020FFF76EFF7CE0DA48844208D1012104
:101B00004014FFF759FF00216014FFF755FF70E004
:101B1000D548844209D10121C804FFF74DFF0021B7
:101B20004FF40020FFF748FF63E0D048844209D11A
:101B300001210805FFF740FF00214FF48010FFF757
:101B40003BFF56E0CA48844209D101214805FFF70E
:101B500033FF00214FF40010FFF72EFF49E0C54886
:101B6000844208D101214020FFF733FF00214020AB
:101B7000FFF72FFF3DE0C048844208D101218020BB
:101B8000FFF727FF00218020FFF723FF31E0BB484C
:101B9000844208D101218015FFF71BFF0021A01509
:101BA000FFF717FF25E0B648844209D10121080458
:101BB000FFF702FF00214FF48030FFF7FDFE18E031
:101BC000B048844209D101214804FFF7F5FE002105
:101BD0004FF40030FFF7F0FE0BE0AB48844208D131
:101BE00001218804FFF7E8FE00214FF48020FFF771
:101BF000E3FE10BD00220288944B98420ED0994B10
:101C000098420BD0B0F1804F08D0914B984205D04C
:101C1000904B984202D0904B984204D14FF68F736C
:101C20001A404B881A438D4B984207D08C4B9842F0
:101C300004D04FF6FF431A40CB881A4302808B88AA
:101C400083850B880385814B98420BD0854B984246
:101C500008D08B4B984205D08A4B984202D08A4BD1
:101C6000984201D10B7A038601238382704770B5B5
:101C7000002400220023058C4FF6FE7635400584B3
:101C8000028C8388048B4FF68F752C40B51E2C4038
:101C90000D882C43751E2A400D892A434D882A43FE
:101CA0006A4DA8420BD06F4DA84208D0744DA8428F
:101CB00005D0744DA84202D0734DA84213D14FF6FF
:101CC000F7752A404D892A434FF6FB752A408D88C7
:101CD0002A434FF6FF652B404FF6FF552B408D8969
:101CE0002B43CD892B4383800483CD888586028452
:101CF00070BD70B5002400220023058C4FF6EF76EE
:101D000035400584028C8388048B48F6FF752C408F
:101D10004FF6FF452C400D884FF6FF7606EA052565
:101D20002C434FF6DF752A400D8906EA05152A4334
:101D30004D8806EA05152A43444DA84202D0494D74
:101D4000A8421DD14FF67F752A404D894FF6FF7688
:101D500006EA05152A434FF6BF752A408D8806EA24
:101D600005152A434FF6FF352B404FF2FF752B40E8
:101D70008D8906EA85052B43CD8906EA85052B4327
:101D800083800483CD880587028470BD70B50024EC
:101D900000220023058C4FF6FF6635400584028C37
:101DA0008388848B4FF68F752C404FF6FC752C4042
:101DB0000D882C434FF6FF552A400D894FF6FF76CC
:101DC00006EA05252A434D8806EA05252A431F4DC4
:101DD000A84202D0234DA8421DD14FF2FF752A40E0
:101DE0004D894FF6FF7606EA05252A434FF6FF3563
:101DF0002A408D8806EA05252A434EF6FF752B40BA
:101E00004DF6FF752B408D8906EA05152B43CD89CC
:101E100006EA05152B4383808483CD888587028459
:101E200070BD70B5002200230024058C4EF6FF76AD
:101E300035400584038C8488828B48F6FF752A40E0
:101E40004FF6FF452A400D8820E00000002C01409D
:101E50000004004000080040000C0040001000405A
:101E60000014004000340140004C0140005001408B
:101E70000054014000180040001C004000200040B9
:101E80000040014000440140004801404FF6FF7609
:101E900006EA05252A434DF6FF752B400D8906EA13
:101EA00005352B434D8806EA05352B43FA4DA842EC
:101EB00002D0FA4DA84208D14BF6FF752C408D890F
:101EC0004FF6FF7606EA85152C4384808283CD8801
:101ED000A0F84050038470BD828B4FF2FF331A404C
:101EE0008283828B4FF6FF7303EA01231A438283B6
:101EF0007047F0B50C461546002200210026078CDD
:101F00004EF6FF7C07EA0C070784828B018C4FF6A4
:101F1000FF7707EA043640F6FF473A404FF6FF776F
:101F200007EA05273A434FF6FF7707EA03373A43B4
:101F3000D94FB8420ED0D94FB8420BD0B0F1804F34
:101F400008D0D74FB84205D0D64FB84202D0D64FAE
:101F5000B84206D14DF6FF77394046F480573943F1
:101F600005E047F6FF57394044F4805739438283F0
:101F70000184F0BD828B4FF6F3731A408283828B0B
:101F80000A4382837047F0B50C46154600220021B3
:101F90000026078C4FF6FF6C07EA0C070784828B3C
:101FA000018C4FF6FF7707EA04264FF60C773A408C
:101FB0004FF6FF7707EA03172F433A43B64FB8426D
:101FC0000ED0B64FB8420BD0B0F1804F08D0B44F0E
:101FD000B84205D0B34FB84202D0B34FB84206D191
:101FE0004FF6FF57394046F48077394305E04FF20A
:101FF000FF57394044F48077394382830184F0BD30
:10200000028B4FF2FF331A400283028B4FF6FF73AD
:1020100003EA01231A4302837047F0B50C461546C4
:10202000002200210026078C4FF6EF7C07EA0C0700
:102030000784028B018C4FF6FF7707EA041640F6FF
:10204000FF473A404FF6FF7707EA03373A434FF628
:10205000FF7707EA05273A438F4FB8420ED08F4FDC
:10206000B8420BD0B0F1804F08D08D4FB84205D0A8
:102070008C4FB84202D08C4FB84206D14FF6DF7772
:10208000394046F01007394305E04FF65F77394095
:1020900044F01007394302830184F0BD028B4FF6F0
:1020A000F3731A400283028B0A4302837047F0B530
:1020B0000C46154600220021068C4FF6FE773E4066
:1020C0000684028B018C4FF60C7632407E1C06EAA9
:1020D00003162E433243704EB0420ED06F4EB042C4
:1020E0000BD0B0F1804F08D06D4EB04205D06D4E90
:1020F000B04202D06C4EB04206D14FF6FD76314070
:1021000044F00106314305E04FF6F576314044F0E6
:102110000106314302830184F0BD70B505460C46CB
:102120005D4885420ED05D4885420BD0B5F1804FA9
:1021300008D05B48854205D05A48854202D05A48AB
:10214000854200D100E000BF208850B92389A288D1
:1021500061882846FFF7ABFFE1882846FFF79EFF1E
:1021600025E0208804280AD12389A288618828468E
:10217000FFF753FFE1882846FFF742FF17E020886A
:1021800008280AD12389A28861882846FFF7FBFE28
:10219000E1882846FFF7EEFE09E02389A2886188DE
:1021A0002846FFF7A6FEE1882846FFF795FE70BD9A
:1021B0002DE9F04105460C4600260127608808B944
:1021C000022600E00026A088012801D1022700E0B5
:1021D00001272088A0B92389A28861882846FFF7B3
:1021E00066FFE1882846FFF759FF23893A463146C2
:1021F0002846FFF712FFE1882846FFF701FF13E0AA
:102200002389A28861882846FFF707FFE1882846CE
:10221000FFF7F6FE23893A4631462846FFF747FF87
:10222000E1882846FFF73AFFBDE8F0810A884B882D
:102230001A438B881A43CB881A430B891A434B895C
:102240001A438B891A43A0F8442070474FF6FF7158
:10225000818000210180C18041800172704700218E
:10226000018041808180C180018141818181C18162
:102270007047002101804180012181800021C180BF
:10228000018170470021018041808180C1800181EE
:102290004181818170470000002C014000340140E1
:1022A0000004004000080040000C004021B10288FA
:1022B00042F00102028004E002884FF6FE731A40E9
:1022C0000280704731B1B0F8442042F40042A0F8D7
:1022D000442005E0B0F84420C2F30E02A0F84420E8
:1022E00070471AB183890B43838102E083898B4352
:1022F000838170478182704741EA0203A0F8483029
:1023000070471AB183890B43838102E083898B4331
:102310008381704701894FF6F8721140018170473F
:102320000A46002101894FF68F731940114301813C
:10233000704730B504460D4629462046FFF7F0FFAA
:10234000208940F00700208130BD2DE9F04104468E
:102350000D4616461F46602D06D13B4601223146EA
:102360002046FFF75AFE05E03B4601223146204653
:10237000FFF79DFE29462046FFF7D2FF208940F057
:1023800007002081BDE8F08130B50C4600210189AD
:10239000C9B24FF6FF7505EA0325154325432943C6
:1023A000018130BD2DE9F04105460E46174698469D
:1023B000002443463A4631462846FFF7E5FF2C897C
:1023C0004FF6F870044044F007044FF68F70044055
:1023D00044F070042C81BDE8F081F0B504460D4650
:1023E00016461F463B46324629462046FFF7CCFF9D
:1023F000208940F480402081F0BD018582827047B1
:102400000A46002101884FF68F731940114301805D
:102410007047F0B50C4615461E46002100220023E9
:102420000189028B038C4FF6F877394021434FF630
:10243000FC473A4040F201173A434FF6DD773B4004
:102440004FF6FF7707EA06172F433B4301810283CC
:102450000384F0BD0A460021018B4FF68F731940AB
:102460001143018370470A460021018B48F6FF7330
:1024700019404FF6FF7303EA0223194301837047A3
:102480000A460021818B4FF68F73194011438183D7
:1024900070470A460021818B48F6FF7319404FF6BA
:1024A000FF7303EA022319438183704721B1028835
:1024B00042F08002028004E002884FF67F731A40E7
:1024C0000280704721B1828842F00402828004E0D9
:1024D00082884FF6FB731A408280704721B1828850
:1024E00042F00802828004E082884FF6F7731A40B7
:1024F0008280704721B1828842F00102828004E02C
:1025000082884FF6FE731A40828070470A46002187
:10251000018B4FF6F77319401143018370470A4648
:102520000021018B4FF2FF7319404FF6FF7303EA4E
:1025300002231943018370470A460021818B4FF61D
:10254000F77319401143818370470A460021818B3C
:102550004FF2FF7319404FF6FF7303EA022319434A
:10256000818370470A460021018B4FF6FB731940A7
:102570001143018370470A460021018B4FF6FF3358
:1025800019404FF6FF7303EA022319430183704792
:102590000A460021818B4FF6FB731940114381835A
:1025A00070470A460021818B4FF6FF3319404FF6E2
:1025B000FF7303EA02231943818370470A4600210F
:1025C000018B4FF67F7319401143018370470A4610
:1025D0000021018BC1F30E014FF6FF7303EA0223C2
:1025E0001943018370470A460021818B4FF67F73A0
:1025F00019401143818370470A460021818BC1F342
:102600000E014FF6FF7303EA0223194381837047DB
:102610000A460021018C4FF6FD73194011430184D5
:1026200070470A460021018C4FF6F7731940114399
:10263000018470470A460021018C4FF6DF73194070
:102640004FF6FF7303EA02131943018470470A46E9
:102650000021018C4FF67F7319404FF6FF7303EA98
:1026600002131943018470470A460021018C4FF67A
:10267000FF5319404FF6FF7303EA02231943018405
:1026800070470A460021018C4FF2FF7319404FF644
:10269000FF7303EA02231943018470470A460021AD
:1026A000018C4DF6FF7319404FF6FF7303EA0233B6
:1026B00019430184704730B5002301248C40A3B234
:1026C000048C9C430484048C02FA01F5ADB22C43C3
:1026D000048430BD30B5002304248C40A3B2048CA4
:1026E0009C430484048C02FA01F5ADB22C430484AB
:1026F00030BD70B50346002000241846183001256F
:102700008D40ACB21D8CA5431D8409B1082909D1A7
:1027100000EB6100056825F070050560056815434C
:1027200005600EE00D1FC5F34E052844056825F42D
:10273000E045056005684FF6FF7606EA0226354358
:10274000056070BD21B1028842F00202028004E0FF
:1027500002884FF6FD731A400280704721B102884B
:1027600042F00402028004E002884FF6FB731A4034
:102770000280704721B1828842F08002828004E0AA
:1027800082884FF67F731A408280704702884FF626
:10279000F7731A40028002880A43028070478288D9
:1027A0004FF68F731A40828082880A438280704776
:1027B00002894FF6F8731A40028102890A430281A6
:1027C000704702894FF67F731A40028102890A43DB
:1027D0000281704781847047818570478186704788
:1027E0000187704781877047A0F8401070470288C2
:1027F0004FF6FF431A40028002880A430280704766
:102800000146888E70470146088F70470146888FC1
:1028100070470146B1F8400070470146888C704708
:102820000146088D704702460020138A0B400BB109
:10283000012000E000207047CA430282704730B593
:102840000246002000230024158A05EA0103958929
:1028500005EA010413B10CB1012000E0002030BDF5
:10286000CA4302827047000010B50446FB48844208
:1028700009D101218803FFF79FF800214FF4804020
:10288000FFF79AF832E0F648844209D10121480462
:10289000FFF79FF800214FF40030FFF79AF825E08A
:1028A000F048844209D101218804FFF792F8002101
:1028B0004FF48020FFF78DF818E0EB48844209D1EF
:1028C0000121C804FFF785F800214FF40020FFF72D
:1028D00080F80BE0E548844208D101210805FFF7A4
:1028E00078F800214FF48010FFF773F810BD2DE940
:1028F000F04786B005460E460024A24600BFA1461A
:102900000027B08900B100BF2F462C8A4CF6FF701B
:102910000440F08804432C82AC894EF6F310044046
:10292000B08831890843718908430443AC81AC8A7B
:102930004FF6FF400440B0890443AC8201A8FEF783
:10294000B4FFC648874202D1DDF810A001E0DDF8EF
:102950000CA0A88900F4004040B10AEBCA0000EBCB
:102960000A1031684900B0FBF1F807E00AEBCA0031
:1029700000EB0A1031688900B0FBF1F86420B8FB65
:10298000F0F004012009642101FB1089A88900F4FA
:10299000004040B1322000EBC900B0FBF1F000F084
:1029A0000700044308E0322000EB09106421B0FB6B
:1029B000F1F000F00F0004432C8106B0BDE8F08771
:1029C0004FF41651016000218180C18001810C21EA
:1029D000418100218181704710B502460020108A94
:1029E0004FF2FF0318400B884C8823438C88234305
:1029F000CC8823431843108210BD00210180418000
:102A00008180C180704721B1828942F40052828165
:102A100004E082894DF6FF731A4082817047F0B559
:102A20000346002400260025002040F66A17B9421C
:102A300000D100BF1846C1F3421401F01F06012760
:102A400007FA06F5012C01D10C3004E0022C01D16B
:102A5000103000E014301AB107682F43076002E01D
:102A60000768AF430760F0BD1AB1838A0B438382C6
:102A700002E0838A8B4383827047028A4FF6F073A9
:102A80001A400282028A0A430282704782894FF208
:102A9000FF731A40828182890A438281704721B183
:102AA000828942F00202828104E082894FF6FD733E
:102AB0001A4082817047028A4FF6DF731A40028201
:102AC000028A0A430282704721B1028A42F480429C
:102AD000028204E0028A4BF6FF731A4002827047BA
:102AE000C1F308028280704701468888C0F308005D
:102AF0007047818941F0010181817047028BD2B218
:102B00000283028B42EA012202837047028B02F4A5
:102B10007F420283028B0A430283704721B1828A7B
:102B200042F02002828204E0828A4FF6DF731A406C
:102B30008282704721B1828A42F01002828204E0D0
:102B4000828A4FF6EF731A408282704721B1828ADF
:102B500042F00802828204E0828A4FF6F7731A403C
:102B60008282704721B1828942F40042828103E06F
:102B70008289C2F30E028281704721B1828A42F4B7
:102B80000062828204E0828A4FF2FF731A408282DE
:102B90007047828A4FF6FB731A408282828A0A4308
:102BA0008282704721B1828A42F00202828204E06E
:102BB000828A4FF6FD731A408282704702460020D7
:102BC000B1F5007F00D100BF13880B400BB101208D
:102BD00000E00020704701F40072B2F5007F00D1E0
:102BE00000BFCA430280704770B50246002400232C
:102BF0000025002040F66A16B14200D100BFC1F3A3
:102C0000421501F01F03012606FA03F3012D02D13C
:102C10009689334006E0022D02D1168A334001E046
:102C2000968A33400C12012606FA04F416883440C2
:102C300013B10CB1012000E0002070BD10B50022DE
:102C4000002340F66A14A14200D100BF0A120124F9
:102C50009440A3B2DC43048010BD00000038014062
:102C60000044004000480040004C0040005000403C
:102C700008B54FF4A060FDF7D9FC0D208DF80000D9
:102C800000208DF801008DF8020001208DF803006E
:102C90006846FDF7D0FC1C208DF8000001208DF85F
:102CA000010000208DF8020001208DF80300684625
:102CB000FDF7C1FC1D208DF8000001208DF80100FA
:102CC0008DF802008DF803006846FDF7B4FC1E2065
:102CD0008DF8000001208DF8010002208DF802001F
:102CE00001208DF803006846FDF7A5FC32208DF821
:102CF000000001208DF8010003208DF80200012062
:102D00008DF803006846FDF796FC36208DF800002C
:102D100003208DF801008DF8020001208DF80300DA
:102D20006846FDF788FC37208DF8000002208DF8FA
:102D3000010000208DF8020001208DF80300684694
:102D4000FDF779FC08BD08B501210920FEF71AFE40
:102D500001214806FEF723FE01214FF4EA10FEF799
:102D600026FC4FF48070ADF8000048208DF8030079
:102D700003208DF802006946FE48FEF747FB4FF43A
:102D80000070ADF8000018208DF8030003208DF8C6
:102D900002006946F748FEF739FB08BD08B5142064
:102DA0008DF8000000208DF8010001208DF8020050
:102DB0008DF803006846FDF73EFC08BD0EB5EE48F1
:102DC000FDF7A2FC6846FDF7C3FD00208DF8060064
:102DD00001208DF807008DF8080000208DF809000B
:102DE0008DF80A008DF80B008DF802008DF80300B5
:102DF00004208DF8040002208DF805000420ADF8B1
:102E000000006946DC48FDF798FC0EBD1FB50020A8
:102E10008DF80A008DF80B0001208DF80C000020C1
:102E2000ADF80000ADF80200ADF80400ADF8060002
:102E3000ADF8080001208DF80D006846FDF707FD8C
:102E400001220221CC48FEF701F801221146CA48AE
:102E5000FDF7FCFF1FBD10B5FFF775FFFFF79EFFE5
:102E6000FFF7ACFFFFF7D2FF10BD00B589B001211D
:102E70000846FEF787FD0121C802FEF783FD012108
:102E80000420FEF77FFD4FF47060ADF820000320B2
:102E90008DF8220018208DF8230008A9B748FEF706
:102EA000B5FA4820ADF814000020ADF8160044F63D
:102EB0002060ADF818000020ADF81A008DF81C0055
:102EC00005A9AF48FEF796FE7020ADF8040001207A
:102ED000ADF806000020ADF808000220ADF80C00A7
:102EE0000020ADF80E004FF48070ADF81000002007
:102EF000ADF8120001A9A248FEF7B9FE01A9A04849
:102F0000FEF7F7FE01A99E48FEF740FF01A99C4885
:102F1000FEF787FF00209A4934310880091D088098
:102F2000091D0880091D088001219548FFF7BEF999
:102F300001219348FFF7C6F909B000BD00B589B07B
:102F400001210846FEF71EFD01214803FEF71AFD88
:102F500001211020FEF716FD4FF47070ADF820002F
:102F600003208DF8220018208DF8230008A9854839
:102F7000FEF74CFA0020ADF81400ADF816004FF43F
:102F8000E150ADF818000020ADF81A008DF81C00D3
:102F900005A97D48FEF72EFE7020ADF80400012043
:102FA000ADF806000020ADF808000220ADF80C00D6
:102FB0000020ADF80E004FF48070ADF81000002036
:102FC000ADF8120001A97048FEF751FE01A96E4844
:102FD000FEF78FFE01A96C48FEF7D8FE01A96A48EA
:102FE000FEF71FFF0020684934310880091D088062
:102FF000091D0880091D088001216348FFF756F963
:1030000001216148FFF75EF909B000BD00B587B046
:1030100001215E48FEF7CBFA01210846FEF7B2FC1B
:1030200001210846FEF7BBFC01210420FEF7AAFCA3
:1030300001210820FEF7A6FC01215548FEF7B7FA4A
:103040004FF40040ADF8180048208DF81B00032015
:103050008DF81A0006A94948FEF7D8F90122D103D4
:103060004648FEF784FA0820ADF8180048208DF88D
:103070001B0003208DF81A0006A93E48FEF7C6F98A
:10308000012208213B48FEF772FA44F62060ADF8B1
:1030900010000020ADF80C00ADF81200ADF80E00E5
:1030A00003A94FF08040FEF7A5FD0A231A4603212D
:1030B0005807FFF7AEF96846FFF7DBF80620ADF8D2
:1030C000080069464FF08040FFF727F80121880784
:1030D000FFF7B2FB012211469007FFF702F900202B
:1030E0004FF08041888401218807FFF7DFF807B09F
:1030F00000BD00B587B001210846FEF743FC012161
:103100000220FEF74CFC01210420FEF73BFCC0200E
:10311000ADF8180048208DF81B0003208DF81A0028
:1031200006A91648FEF772F9012240211348FEF75E
:103130001EFA012280211148FEF719FA44F6206098
:10314000ADF810000020ADF80C00ADF81200ADF89D
:103150000E0003A90F48FEF74DFD0A231A4603216E
:103160000C48FFF756F96846FFF783F80620ADF8DC
:10317000080011E0000C014000640040000801401C
:10318000002C0140001001400034014000023000DA
:1031900000031800000400406946FE48FEF7BDFF2A
:1031A0000121FC48FFF748FB01221146F948FFF7CF
:1031B00098F80020F749243108800121F548FFF7ED
:1031C00075F807B000BD00B587B001210846FEF7CD
:1031D000D9FB01210420FEF7E2FB01210820FEF7C4
:1031E000D1FBC020ADF8180048208DF81B0003204B
:1031F0008DF81A0006A9E848FEF708F901224021D7
:10320000E548FEF7B4F901228021E348FEF7AFF963
:1032100044F62060ADF810000020ADF80C00ADF8C9
:103220001200ADF80E0003A9DC48FEF7E3FC0A2308
:103230001A460321D948FFF7ECF86846FFF719F85A
:103240000620ADF808006946D448FEF766FF012164
:10325000D248FFF7F1FA01221146D048FFF741F8B2
:103260000020CE49243108800121CC48FFF71EF808
:1032700007B000BD00B587B001210846FEF782FB0C
:1032800001210820FEF78BFB01210420FEF77AFBC9
:103290000320ADF8180048208DF81B0003208DF89E
:1032A0001A0006A9BE48FEF7B1F801221146BC4833
:1032B000FEF75DF901220221B948FEF758F944F6FC
:1032C0002060ADF810000020ADF80C00ADF8120041
:1032D000ADF80E0003A9B348FEF78CFC0A231A468A
:1032E0000321B048FFF795F86846FEF7C2FF0620B5
:1032F000ADF808006946AB48FEF70FFF0121A94869
:10330000FFF79AFA01221146A648FEF7EAFF0020CD
:10331000A449243108800121A248FEF7C7FF07B065
:1033200000BD0EB501211020FEF739FB41F28730B8
:10333000ADF804004720ADF800000020ADF806000D
:10334000ADF802008DF8080069469748FEF752FC78
:1033500001219548FFF702FA012211469248FEF733
:10336000C0FF01219048FEF7A1FF0EBD0EB501215F
:103370002020FEF714FB41F28730ADF8040047200F
:10338000ADF800000020ADF80600ADF802008DF8A1
:10339000080069468548FEF72DFC01218348FFF7A8
:1033A000DDF9012211468148FEF79BFF01217F488C
:1033B000FEF77CFF0EBD10B5FFF757FDFFF7BEFD12
:1033C000FFF724FEFFF795FEFFF7FDFEFFF752FF24
:1033D000FFF7A7FFFFF7CAFF10BD10B541F62C237A
:1033E000984200DD1846724B984200DA18460028D1
:1033F00002DA4142012201E0014600222AB1002303
:103400006C4C2380241D218004E06A4C2180002321
:10341000241D238010BD10B541F62C23984200DDF9
:103420001846634B984200DA1846002802DA4142F7
:10343000012201E00146002232B100235D4C083434
:103440002380241D218005E05A4C0834218000236C
:10345000241D238010BD10B541F62C23984200DDB9
:103460001846534B984200DA1846002802DA4142C7
:10347000012201E0014600222AB100234E4C2380A4
:10348000241D218004E04C4C21800023241D238036
:1034900010BD10B541F62C23984200DD1846444B70
:1034A000984200DA1846002802DA4142012201E07F
:1034B0000146002232B100233F4C08342380241DF2
:1034C000218005E03C4C083421800023241D23800A
:1034D00010BD08B501214820FEF754FA4FF46040B2
:1034E000ADF8000010208DF8030003208DF80200D5
:1034F00069462948FDF78AFF4FF400412648FEF748
:1035000034F84FF480412448FEF72FF84FF400516F
:103510002148FEF72AF808BD10B56FF00400FDF74A
:10352000D4F810BD014601EBC10222F060424FF415
:103530007A735A434FF0E0235A6100229A610122C4
:103540001A6100BF4FF0E022106900F001021AB1C9
:1035500000F48032002AF5D000224FF0E0231A61F7
:103560009A617047014601EBC10222F060424FF0C0
:10357000E0235A6100229A6101221A6100BF4FF0D4
:10358000E022106900F001021AB100F48032002A32
:10359000F5D013E000040040000C0140000800409A
:1035A00000080140000C00400010004000140040E2
:1035B000D4E5FFFF342C01403434014000224FF0A9
:1035C000E0231A619A61704700B585B00121D448A3
:1035D000FEF7E5F94FF40060ADF8100004208DF817
:1035E000130004A9CF48FDF711FFCF480090002039
:1035F000ADF80400ADF806004FF48060ADF80800A7
:103600000020ADF80C000420ADF80A006946C74858
:10361000FFF76DF90121C548FFF7F5F905B000BDC9
:1036200000B58BB001210846FEF79FF9BF48001D89
:103630000090BF48019000200290122003900020CB
:10364000049080200590002006900790202008908C
:103650004FF44050099000200A906946B548FDF7A4
:10366000EDFD0121B348FDF714FE01220221B1480E
:10367000FDF71BFE0BB000BD10B5FFF7F9FAFFF721
:103680009AFEFFF726FFFFF747FFFFF7E4FB10BDA9
:1036900010B54FF08042928C12B2A74B1A811A4695
:1036A0009169B2F90830B2F9102040F271246243F6
:1036B00003EB4210421A12B29F4B1A8013E09E4A4B
:1036C000128A521E12B29C4B1A821A46B2F9083064
:1036D000B2F9102040F27124624303EB4210421A07
:1036E00012B2954B1A80944AB2F9002042F210733C
:1036F0009A42E4DC13E0904A128A521C12B28E4BBA
:103700001A821A46B2F90830B2F9102040F2712438
:10371000624303EB4210421A12B2874B1A80864A68
:10372000B2F90020854B9A42E5DB834A906110BDD7
:1037300010B5834A128812B27F4B5A811A46D1695A
:10374000B2F90A30B2F9122040F27124624303EB5D
:103750004210421A12B2784B5A8013E0764A528ACB
:10376000521E12B2744B5A821A46B2F90A30B2F99A
:10377000122040F27124624303EB4210421A12B24B
:103780006D4B5A806C4AB2F9022042F210739A4291
:10379000E4DC13E0684A528A521C12B2664B5A8229
:1037A0001A46B2F90A30B2F9122040F2712462438B
:1037B00003EB4210421A12B25F4B5A805E4AB2F9D2
:1037C00002205E4B9A42E5DB5B4AD06110BD10B52A
:1037D0005C4A128812B2584B9A811A46116AB2F9A1
:1037E0000C30B2F9142040F27124624303EB421012
:1037F000421A12B2504B9A8013E04F4A928A521EDC
:1038000012B24D4B9A821A46B2F90C30B2F914201A
:1038100040F27124624303EB4210421A12B2464B4B
:103820009A80454AB2F9042042F210739A42E4DCCD
:1038300013E0414A928A521C12B23F4B9A821A46B6
:10384000B2F90C30B2F9142040F27124624303EB58
:103850004210421A12B2384B9A80374AB2F9042009
:10386000364B9A42E5DB344A106210BD10B5364A39
:10387000128812B2304BDA811A46516AB2F90E3010
:10388000B2F9162040F27124624303EB4210421A4F
:1038900012B2294BDA8013E0274AD28A521E12B2A2
:1038A000254BDA821A46B2F90E30B2F9162040F2F0
:1038B0007124624303EB4210421A12B21E4BDA80AB
:1038C0001D4AB2F9062042F210739A42E4DC13E07A
:1038D000194AD28A521C12B2174BDA821A46B2F92E
:1038E0000E30B2F9162040F27124624303EB42100D
:1038F000421A12B2104BDA800F4AB2F906200F4B6F
:103900009A42E5DB0C4A506210BD00B5FFF7C0FEDD
:10391000FFF70EFFFFF75BFFFFF7A8FF00BD0000FA
:1039200008000400000C0140A0860100004800408F
:103930008800002030000240B0000020F0D8FFFFD7
:103940002404004024080040240C00402DE9F041EC
:1039500004460021206800F011FB03D2206880F0AB
:10396000004020600021606800F008FB03D260681E
:1039700080F0004060600021A06800F0FFFA03D2F0
:10398000A06880F00040A0600021E06800F0F6FA36
:1039900003D2E06880F00040E0602069E0612169C6
:1039A000206A00F001FA20620021E06800F06AFA63
:1039B00013D0E168206A00F0E1FB02D2E0682062E7
:1039C0000BE0E06880F000452846216A00F0D6FB55
:1039D00003D2E06880F000402062A169206900F015
:1039E00009FC60622069A061616AA06800F0FAFACF
:1039F0000646216A606800F0F5FA0746E16920682A
:103A000000F0F0FA8046394600F0CEF9054631461E
:103A100000F0CAF96061BDE8F0812DE9F05F04466D
:103A20000021206800F0AAFA03D2206880F000404C
:103A300020600021606800F0A1FA03D2606880F085
:103A4000004060600021A06800F098FA03D2A068EE
:103A500080F00040A060A169E06800F0CBFB8046E8
:103A6000E5684FF08040A16900F0BCFA8146E1684A
:103A700000F0B5FB0746E16900F096F90646A0693B
:103A8000E061E068A0613146A06800F0ABFA8146D1
:103A90002946606800F0A6FA82464146206800F098
:103AA000A1FA8346514600F07FF90746494600F0E7
:103AB0007BF920610021206800F0E4F90CD100219D
:103AC000606800F0DFF907D10021A06800F0DAF9A2
:103AD00002D10020606104E0D4E9041000F064F930
:103AE0006061BDE8F09F10B504466848C069684948
:103AF00008606848046001460968654A1268881AC7
:103B000000F010FA644908616449088800F022FA5C
:103B1000614908606149488800F01CFA5E494860C4
:103B20005E49888800F016FA5B4988605B49C8885E
:103B300000F010FA5849C8600846FFF707FF5649D9
:103B4000486900F0D3F95649086008460068FFF755
:103B500082FC10BD10B504464C48B0F9060051492E
:103B6000086051480460014609684E4A1268881A84
:103B700000F0D8F94D4908614D4808604D4848604B
:103B8000002088604549C88800F0E4F94749C860CA
:103B90000846FFF7DBFE4549486900F0A7F94649AA
:103BA000086008460068FFF774FC10BD10B50446B5
:103BB0003648B0F9000041490860414804600146B8
:103BC00009683E4A1268881A00F0ACF93D4908615C
:103BD0003249088800F0BEF93A4908602F49488800
:103BE00000F0B8F9374948602C49888800F0B2F9EC
:103BF000344988602949C88800F0ACF93149C86067
:103C00000846FFF7A3FE2F49486900F06FF92E49D7
:103C1000086023480068FFF7E0FB10BD10B50446BC
:103C20001A48B0F90400294908602948046001468F
:103C30000968264A1268881A00F074F92549086153
:103C40001649088800F086F9224908601349488817
:103C500000F080F91F4948601049888800F07AF91F
:103C60001C4988600D49C88800F074F91949C8607A
:103C70000846FFF76BFE1749486900F037F9164907
:103C800008600D480068FFF7C6FB10BDB0000020BB
:103C90002C00002028000020D800002078010020FF
:103CA00030000020380000203400002000010020F7
:103CB00000008C42000048423C00002044000020EC
:103CC0004000002028010020480000205000002073
:103CD0004C00002050010020540000200420114915
:103CE00008800020488088804FF47A70C8800E4891
:103CF0004088C0F5806000EB4000400000B20B49F6
:103D000008800846B0F90000064908810020488173
:103D10000748007820B90020088148818881C8813F
:103D200070470000780100209A0000205A0000200F
:103D300058000020704770477047754600F028F81B
:103D4000AE4605006946534620F00700854618B088
:103D500020B5FCF759FCBDE820404FF000064FF0BD
:103D600000074FF000084FF0000B21F00701AC46B0
:103D7000ACE8C009ACE8C009ACE8C009ACE8C009CF
:103D80008D4670470446AFF300802046FCF717FAD3
:103D9000004870478801002001491820ABBEFEE7AB
:103DA000260002007047000090EA010F48BF81F032
:103DB000004100F12682421A3CBF801A89184FEA5E
:103DC000D0524FF07F4C1CEA410FA2EBD15318BFE9
:103DD0009CEA026F00F03B804FF0004C4CEA002060
:103DE0004CEA012121FA03FC10EB0C0C1ED202F16B
:103DF000FF325FEA1C2040EBC25038BF70471CF016
:103E00007F0F4FEA400C18BFBCF17F4F38BF70479F
:103E1000C3F12003994008BF20F00100BCF17F4F9F
:103E200038BF7047A0F1C04000F0A3B94FEA3C0092
:103E3000000A40EBC25028BF1CF0FF0F4FEA400CB5
:103E4000E6D018BFBCF17F4F38BF7047EAE79CEA65
:103E5000026F05D010EA5C0F08BF00F00040704709
:103E600010B500F040F900BF64FBBE3E401058BFE3
:103E7000C0F14040491058BFC1F140418142EFF3C9
:103E80000080704750EA010C00F113801CF5000F10
:103E900058BFBCF5000F01D48842704707D710F512
:103EA000000F58BF11F5000F15D4884270478942A2
:103EB00070471CF5000F04D5BCF5000FF7D5814203
:103EC00070474FF0807C1CEB400F38BF1CEB410F5C
:103ED00001D28142704710B500F005F992244900E3
:103EE0004FF000504FF08051FFF7C0BF41000B0E64
:103EF000D3F19E0208D950F400034FEA032323FABA
:103F000002F048BF4042704710B500F0ECF800BF27
:103F100049922480002070476FF0004282EA20001E
:103F20007047000010F0004148BF4042B0FA80F3F3
:103F300010FA03F2C3F19D030BD051EAC35101EB18
:103F40001220530638BF704700F1010008BF20F06F
:103F500001007047B0FA80F310FA03F2C3F19D0339
:103F60000AD0D90501EB1220530638BF704700F183
:103F7000010008BF20F001007047000050EA010C6A
:103F800000F113801CF5000F58BFBCF5000F01D4E1
:103F90008842704707D710F5000F58BF11F5000F82
:103FA00015D488427047894270471CF5000F04D52C
:103FB000BCF5000FF7D5814270474FF0807C1CEBB9
:103FC000400F38BF1CEB410F01D28142704710B542
:103FD00000F089F8922449004FF000504FF08051D2
:103FE000FFF744BF4FF47F0C1CEAD0121EBF1CEA3F
:103FF000D11392EA0C0F93EA0C0F00F0478090EA7D
:10400000010F48BF42F480724FF0004C4CEA002090
:104010004CEA012102EB0302A0FB0113A2F500020E
:10402000002918BF43F001035B0028BF4FEA3303A8
:1040300042EB22425FEA132C4CEBC2502EBFBCEB8A
:10404000436FB2F57C0F70474FEA036CBCF1004F31
:1040500008BF20F00100B2F57C0F38BF70470BD5C8
:1040600082F0FF0212F5803FC8BF704700F1C040E8
:10407000D8BF00F00040704700F5000C5FEA4C0C20
:1040800048BF7047B0F1C04000F073B890EA010F2C
:104090000CEAD11348BF42F48072624538BF6345D1
:1040A00004D280EA010000F00040704710B500F033
:1040B0001AF800BF8900013E00F007B800F009B807
:1040C0005FEA410C5FEA1C6C08D080EA010000F056
:1040D00050B85FEA400C5FEA1C6CF6D14FF000402C
:1040E000A0F5800070470EF1020E2EF0030E5EF870
:1040F000044B244204D44FEA4102B2F17F4F11D85D
:104100004FEA4003B3F17F4F0CD80ED14FEAD07C79
:10411000B2F17F4F0CEB4C0C0CF1020C08BF4CEBD6
:10412000D17C04E04FF0080C01E04FEAD17C0CEBAD
:104130004C0324FA03F404F00704B4F1040C06D28F
:104140000EEB840CBDE810404CF0010C6047DFE83A
:104150000CF0070802024FF00040A0F5800010BDEF
:104160000846420018BFD2F1807288BF00F00040BC
:1041700010BDFF2141EAD050C005704751EA000C44
:1041800000F113801CF5000F58BFBCF5000F01D4DF
:104190008142704707D711F5000F58BF10F5000F87
:1041A00015D481427047894270471CF5000F04D531
:1041B000BCF5000FF7D5884270474FF0807C1CEBB0
:1041C000410F38BF1CEB400F01D28842704780EA94
:1041D000010081EA000180EA0100FFF7F8BE80F0EB
:1041E000004090EA010F7FF5E6AD81F0004100F05C
:1041F00008B8000090EA010F48BF81F000413FF588
:10420000DAAD421A04D882F00042A0EB0200114459
:104210004FEAD0524FF07F4C1CEA410FA2EBD15332
:1042200018BF9CEA026F4AD04FF0004C4CEA0020C5
:104230004CEA012121FA03FCB0EB0C0C0FD412F074
:10424000FE0F36D05FEA4C001DD5001240EBC25085
:1042500038BF70471CF03F0F18BF70470BE0A2F14A
:1042600001025FEA1C2040EBC25038BF70471CF0CF
:104270007F0F18BF7047C3F12003994014BF401E41
:1042800020F00100704780084FEA122308BF7047F2
:10429000B0FA80FCA2EB0C02CCF1280C60FA0CF016
:1042A00093EA122F04BF00EBC25070474FEAC3706D
:1042B0007047130A5FEADC1008BF7047F6E79CEA14
:1042C000026F04D010EA5C0F08BF0020704710B5E1
:1042D000FFF709FF40DFF63E81F000407047000025
:1042E0000043000800000020740000006C0100087A
:1042F000744300087400002074070000880100085F
:1043000000A24A04000000000000000001020304B3
:10431000060708090000000001020304010203046B
:10432000060708090204060800000000000000005B
:10433000000000000000000000000000000000007D
:10434000000000000000000000000000000000006D
:10435000000000000000000000000000000000005D
:10436000000000000000000000000000000000004D
:044370000000000049
:0400000508000131BD
:00000001FF
