:020000040800F2
:100000000808002049070008150500081705000822
:100010001B0500081F05000823050008000000005C
:10002000000000000000000000000000270500089C
:1000300029050008000000002B0500082D05000818
:1000400063070008630700086307000863070008E8
:1000500063070008630700086307000863070008D8
:1000600063070008630700086307000863070008C8
:1000700063070008230400086307000863070008FB
:1000800063070008630700086307000863070008A8
:100090006307000863070008630700086307000898
:1000A0006307000863070008630700086307000888
:1000B0006103000893030008C303000863070008F6
:1000C0006307000863070008630700086307000868
:1000D0006307000863070008630700086307000858
:1000E0006307000863070008630700086307000848
:1000F0006307000863070008630700086307000838
:100100006307000863070008F3030008630700089B
:100110006307000863070008010200081F020008C7
:100120006307000863070008630700086307000807
:1001300000F002F800F03CF80AA090E8000C8244BD
:100140008344AAF10107DA4501D100F031F8AFF29A
:10015000090EBAE80F0013F0010F18BFFB1A43F0A5
:10016000010318477447000094470000103A24BF69
:1001700078C878C1FAD8520724BF30C830C144BF0C
:1001800004680C607047000000230024002500264E
:10019000103A28BF78C1FBD8520728BF30C148BFEA
:1001A0000B6070471FB504F0DAFA1FBD10B510BD23
:1001B00003F071FF1146FFF7F5FF00F009F803F0B7
:1001C0008FFF03B4FFF7F2FF03BC03F097FF0000BB
:1001D00000F03AFA03F0DAFA0EE0142003F02FFAF6
:1001E0000648006808B9012000E0002003490860C3
:1001F0004FF0140003F023FAEFE70000B88121422A
:1002000010B5CB48006808B9012000E00020C849BB
:1002100008604FF00101C74802F096FB10BD10B511
:1002200003F006FC03F0F6FD4FF40070C2490860CD
:1002300000200872487208208872C048407A01285D
:100240003DD1BE48B0F90C00002809DA0020BC49B5
:100250000860BA48B0F90C004042BA49086013E09F
:10026000B648B0F90C00002808DD0120B449086048
:10027000B248B0F90C00B349086005E0AF48808986
:1002800010B90020AF490860AE480068AA49C8729A
:10029000AB480068C1B2A8480173A848017CA648D1
:1002A0004173A648417CA44881730021C173017445
:1002B000417481740146A44800F06AFC25E09F481F
:1002C000407A022803D09D48407A03281DD100209F
:1002D0009949C87200219848017341738173974806
:1002E000408801129448C17394484088C1B2924832
:1002F00001749248017A904841749048417A8E483E
:1003000081740146904800F043FC00208F49486109
:100310008F4948618F4948618F4948618F49B1F9D8
:10032000080003F072FC8D49B1F90A0003F0A5FC46
:100330008A49B1F90C0003F0D8FC8849B1F90E00E4
:1003400003F00BFD8648006808B9012000E000209A
:10035000834908604FF00101824802F0F5FA10BDB0
:1003600010B54FF08040008810F0100F06D07E4886
:10037000008A401E00B27C49088205E07A48008A63
:10038000401C00B2784908820121880702F0DCFA9B
:1003900010BD10B57548008810F0100F06D07248D7
:1003A000408A401E00B27049488205E06E48408A8B
:1003B000401C00B26C49488201216C4802F0C4FA2A
:1003C00010BD10B56A48008810F0100F06D06648BE
:1003D000808A401E00B26449888205E06248808AB3
:1003E000401C00B2604988820121614802F0ACFAE9
:1003F00010BD10B55F48008810F0100F06D05A48A5
:10040000C08A401E00B25849C88205E05648C08ADA
:10041000401C00B25449C8820121564802F094FAA7
:1004200010BD10B54FF4007000F0FEFF01286DD133
:1004300051490870400201F00AF84FF4007001F0D1
:1004400024F84E4800784D49497840EA0120C0F32D
:100450000A003A49088049484078C01047498978DD
:1004600040EA4110C0F30A0034494880434880788C
:1004700080114249C97840EA81004049097940EA3F
:100480008120C0F30A002D4988803C480079401043
:100490003A49497940EAC110C0F30A002749C880A7
:1004A0003648407900118008087234484079C0F31A
:1004B00001104872314880793049C97940EA0120F9
:1004C00000B21E4948812D48007A2C49497A40EAF9
:1004D000012001B2194881812848807A2749C97AC8
:1004E00040EA012001B21548C1812448017B13482C
:1004F00001742248417B114841742048807B1F4988
:10050000C97B40EA01200D49488202E000201A49D7
:10051000087010BD704700BFFEE700BFFEE700BFD8
:10052000FEE700BFFEE77047704770477047000066
:10053000B48121420010004080000020BA00002059
:10054000000000200400002000640040F8000020AB
:1005500020010020480100207001002098010020A7
:10056000BC81214200140040D00000200004004063
:1005700000080040000C004064000020A80000209B
:1005800000210020674A126842F48032654B1A60ED
:1005900000BF644A126802F40030491C10B9B1F57A
:1005A000A06FF6D15F4A126812F4003F01D001201B
:1005B00000E00020012842D15B4A126842F010029C
:1005C000594B1A601A46126822F003021A601A4642
:1005D000126842F002021A60524A5268514B5A6045
:1005E0001A4652685A601A46526842F480625A604B
:1005F0001A46526822F47C125A601A46526842F433
:10060000E8125A601A46126842F080721A6000BFFF
:10061000444A126812F0007FFAD0424A526822F02F
:100620000302404B5A601A46526842F002025A6076
:1006300000BF3C4A526802F00C02082AF9D1704708
:1006400010B5FFF79DFF10BD10B53648006840F0AB
:10065000010034490860084640683449084031497F
:10066000486008460068324908402E49086008463C
:10067000006820F4802008600846406820F4FE00EE
:1006800048604FF41F008860FFF7DAFF4FF000600A
:100690002849086010BD10B5002100200022214B20
:1006A0005B6803F00C0121B1042906D0082928D188
:1006B00007E0214B214C236027E01F4B1F4C236098
:1006C00023E0184B5B6803F47010164B5B6803F46F
:1006D0008032022303EB904022B9194B4343174C5D
:1006E00023600DE00F4B5B6813F4003F04D0144B04
:1006F0004343124C236003E00F4B43430F4C2360F2
:1007000003E00D4B0D4C236000BF00BF054B5B6841
:10071000C3F303130B4CE15C084B1B68CB40074C45
:10072000236010BD00100240002002400000FFF8CE
:10073000FFFFF6FE08ED00E000127A000C0000203A
:1007400000093D0010000020094880470948004783
:10075000FEE7FEE7FEE7FEE7FEE7FEE7FEE7FEE771
:10076000FEE7FEE704480549054A064B70470000CE
:10077000490600083101000808020020080800208E
:10078000080400200804002031490143314A116067
:10079000704770B5002100230F22C4780CB32D4C94
:1007A000246804F4E064C4F5E064210AC1F10403A0
:1007B000CA40447804FA03F18478144021430901C3
:1007C000254C0678A155047804F01F050124AC409F
:1007D00005786D114FF0E02606EB8505C5F8004160
:1007E00009E0047804F01F050124AC401B4D067895
:1007F000761145F8264070BD194A0A400243154B50
:100800001B1F1A60704739B1124A121D1268024349
:10081000104B1B1D1A6006E00E4A121D126882431F
:100820000C4B1B1D1A607047042808D14FF0E021C3
:10083000096941F004014FF0E022116107E04FF037
:10084000E021096921F004014FF0E02211617047B5
:100850000000FA050CED00E000E400E080E100E0BB
:1008600080FFFF1F10B50446FE48844209D10121D4
:10087000480601F054F900214FF0007001F04FF9E3
:1008800008E00121880601F04AF900214FF080605C
:1008900001F045F910BD30B5024600200023146870
:1008A00024F002041460146844F00104146000E0B1
:1008B0005B1C546804F00104012C03D0A3F57F44B1
:1008C000FF3CF5D1546804F00104012C01D0002054
:1008D0006EE08C79012C04D1146844F0800414601B
:1008E00003E0146824F080041460CC79012C04D156
:1008F000146844F04004146003E0146824F04004D9
:1009000014600C7A012C04D1146844F020041460A3
:1009100003E0146824F0200414604C7A012C04D104
:10092000146844F01004146003E0146824F0100408
:1009300014608C7A012C04D1146844F0080414600B
:1009400003E0146824F008041460CC7A012C04D16C
:10095000146844F00404146003E0146824F00404F0
:1009600014608C78A407CD7844EA05640D7944EAD4
:1009700005444D7944EA05540D886D1E2C43D4611D
:10098000146824F001041460002300E05B1C546828
:1009900004F00104012C03D1A3F57F44FF3CF5D101
:1009A000546804F00104012C01D1002000E0012072
:1009B00030BD10B50021837A012202FA03F1AA4A60
:1009C000126842F00102A84B1A60A74A1C32126852
:1009D0008A43A54B1C331A60027BCAB9A24A0C3267
:1009E00012688A43A04B0C331A604288C38842EADB
:1009F00003439D4A4032847A42F834300288838827
:100A000042EA0343984A4032847A02EBC4025360BC
:100A1000027B012A19D1944A0C3212680A43924B84
:100A20000C331A604288038842EA03438E4A4032FC
:100A3000847A42F83430C288838842EA03438A4A7F
:100A40004032847A02EBC4025360C27A3AB9864AD1
:100A5000121D12688A43844B1B1D1A6006E0824AED
:100A6000121D12680A43804B1B1D1A60028932B99D
:100A70007D4A143212688A437B4B14331A60028910
:100A8000012A06D1784A143212680A43764B14338D
:100A90001A60427B012A06D1734A1C3212680A434B
:100AA000714B1C331A60704A126822F001026E4BBF
:100AB0001A6010BD00218171C17101724172817291
:100AC000C1728170C1700321017102214171012144
:100AD000018070476449096841F00101624A116070
:100AE0001146096843F60E7291435F4A1160114640
:100AF000096841EA002111601146096821F00101ED
:100B00001160704721B1026842F48032026003E054
:100B1000026822F4803202607047E1B1026842F05C
:100B2000800202604FF4C272125842F480734FF494
:100B3000C27213504FF4CA72125842F480734FF4C9
:100B4000CA7213504FF4D272125842F480734FF4A9
:100B5000D27213501BE0026822F0800202604FF450
:100B6000C272125822F480734FF4C27213504FF4C1
:100B7000CA72125822F480734FF4CA7213504FF4A1
:100B8000D272125822F480734FF4D272135070470D
:100B900010B502460020936803F08063B3F1806FC4
:100BA00000D110E0936803F00063B3F1006F01D14E
:100BB000012008E0936803F08053B3F1805F01D116
:100BC000022000E00420042879D002F5C07303EB72
:100BD00000131B6803F0010402F5C07303EB00135C
:100BE0001C600B7A7BB94B7A0C6843EA445302F5DC
:100BF000C07404EB00142468234302F5C07404EBB2
:100C00000014236010E00B7A4C6843EAC4034C7A6A
:100C1000234302F5C07404EB00142468234302F557
:100C2000C07404EB001423608B7A03F00F038B7203
:100C300002F5C07303EB00135B6823F00F0402F5A9
:100C4000C07303EB00135C6002F5C07303EB001389
:100C50005B688C7A234302F5C07404EB0014636074
:100C60008B7B03E000640040006600401C064B7B69
:100C700044EA03440B7B44EA0323CC7A234302F582
:100C8000C07404EB0014A3608B7C1C064B7C44EA0C
:100C900003440B7C44EA0323CC7B234302F5C0745A
:100CA00004EB0014E36002F5C07303EB00131B6850
:100CB00043F0010402F5C07303EB00131C6010BD88
:100CC00010B50246002321B1012907D002290FD116
:100CD00009E09068F84C00EA04030BE09068F74CD8
:100CE00000EA040306E09068F54C00EA040301E022
:100CF000002300BF00BFF34C181BA34216D007DC33
:100D000083B16FF0806018180ED0022818D111E05E
:100D1000B0F5007F10D0EC4C001909D0B0F5003FC1
:100D20000ED10BE002230DE000230BE0002309E0CD
:100D3000002307E0012305E0012303E0012301E094
:100D4000002300BF00BFD8B210BD21B1012907D0D8
:100D500002290FD109E0826842F0800282600AE035
:100D6000826842F40042826005E0826842F4000238
:100D7000826000E000BF00BF704710B500F5D87377
:100D800003EB01131B6803F004031372137A53B9C6
:100D900000F5D87303EB01131B6840F2FF7404EAFB
:100DA0005353136009E000F5D87303EB01131B687C
:100DB0006FF0604404EAD303536000F5D87303EB8B
:100DC00001131B6803F00203537200F5D87303EBA1
:100DD00001135B6803F00F03937200F5D87303EB04
:100DE00001135B681B0AD37400F5D87303EB01137E
:100DF0009B68D37200F5D87303EB01139B681C0A40
:100E0000147300F5D87303EB01139B681C0C547327
:100E100000F5D87303EB01139B681B0E937300F569
:100E2000D87303EB0113DB68D37300F5D87303EBBE
:100E30000113DB681C0A147400F5D87303EB01136B
:100E4000DB681C0C547400F5D87303EB0113DB68EA
:100E50001B0E937421B9C36843F02003C36003E001
:100E6000036943F02003036110BD21B9C26842F059
:100E70002002C26003E0026942F020020261704772
:100E80000246002019B9D36803F0030006E00129E7
:100E900003D1136903F0030000E00020704710B590
:100EA00002460B4600204FF6FF71BBB9146824F0D0
:100EB000020444F00104146000E0491E546804F088
:100EC0000304012C01D00029F7D1546804F0030475
:100ED000012C01D0002032E0012030E0012B13D1A1
:100EE000146824F00304146000E0491E546814F0F0
:100EF000030F01D00029F8D1546814F0030F01D07A
:100F000000201CE001201AE0022B17D1146824F005
:100F1000010444F00204146000E0491E546804F027
:100F20000304022C01D00029F7D1546804F0030413
:100F3000022C01D0002002E0012000E0002010BDC2
:100F4000014600200A6822F0010242F002020A6013
:100F50004A6802F00302022A00D1012070470146CC
:100F60004FF6FF7200200B6823F002030B6000E0D5
:100F7000521E4B6803F00203022B01D1002AF7D165
:100F80004B6803F00203022B00D00120704701469A
:100F900000208A6902F070007047014600208A69CB
:100FA000100E7047014600208A69C2F3074070475F
:100FB0001AB143690B43436102E043698B434361C8
:100FC000704710B50246002011F4700F08D09369E5
:100FD000C1F31304234201D001202DE000202BE0B7
:100FE00011F0807F08D05368C1F31304234201D06D
:100FF000012021E000201FE011F0006F08D093686D
:10100000C1F31304234201D0012015E0002013E0B6
:1010100011F0007F08D0D368C1F31304234201D03C
:10102000012009E0002007E01369C1F31304234203
:1010300001D0012000E0002010BD0022234B994286
:1010400002D10023836111E0C1F3130211F0007F8C
:1010500001D0C2600AE011F0806F01D0026105E0AA
:1010600011F0006F01D0826000E0426070470246DC
:1010700000200A4201D0012000E00020704770B536
:1010800004460D4600266069284272D0B5F5807F7F
:1010900069D01DDC082D42D006DC012D2DD0022D9B
:1010A00031D0042D7FD134E0102D3ED0202D42D000
:1010B000402D78D145E00000030000040003000843
:1010C00000000310000100080001FFF77000F0307D
:1010D000B5F5004F61D009DCB5F5007F4AD0B5F514
:1010E000806F4DD0B5F5006F5DD150E0B5F5803F14
:1010F0002DD0B5F5003F56D12FE0A0685549FFF738
:10110000B6FF064651E0E0680321FFF7B0FF064650
:101110004BE0E0680821FFF7AAFF064645E0E068DB
:101120001021FFF7A4FF06463FE020690321FFF7E7
:101130009EFF064639E020690821FFF798FF064622
:1011400033E020691021FFF792FF06462DE060682A
:101150000821FFF78CFF064627E060681021FFF7A3
:1011600086FF064621E0A0690121FFF780FF0646C1
:101170001BE01BE0A0690221FFF779FF064614E09F
:10118000A0690421FFF773FF06460EE00BE0A0699B
:101190007021FFF76CFF064607E060680421FFF747
:1011A00066FF064601E0002600BF00E0002630464C
:1011B00070BDB1F5007F3AD00FDC202928D006DCC5
:1011C00001291CD004291DD0082940D11DE0402947
:1011D00021D0B1F5807F3AD126E0B1F5004F31D072
:1011E00006DCB1F5806F25D0B1F5006F2FD124E07A
:1011F000B1F5803F12D0B1F5003F28D111E0154A7A
:10120000826025E00822C26022E01022C2601FE056
:10121000082202611CE01022026119E008224260EB
:1012200016E01022426013E00422426010E0042223
:1012300042600DE0042242600AE000228261042242
:10124000426005E0002282610422426000E000BFAB
:1012500000BF70470101010001684FF6FE721140A6
:1012600001600021016041608160C1608C49884259
:1012700008D18B490839496841F00F01884A083A7A
:1012800051608AE086491431884208D1844908397E
:10129000496841F0F001824A083A51607DE0804996
:1012A0002831884208D17E490839496841F4706183
:1012B0007B4A083A516070E079493C31884208D154
:1012C00077490839496841F47041754A083A5160D4
:1012D00063E073495031884208D17149083949683F
:1012E00041F470216E4A083A516056E06C4964310D
:1012F000884208D16A490839496841F47001684A4E
:10130000083A516049E066497831884208D1644919
:101310000839496841F07061614A083A51603CE01F
:101320006049884206D1011F096841F00F01021F80
:10133000116032E05B491431884208D15949091FD4
:10134000096841F0F001574A121F116025E0554924
:101350002831884208D15349091F096841F4706156
:10136000504A121F116018E04E493C31884208D1A2
:101370004C49091F096841F470414A4A121F116023
:101380000BE048495031884207D14649091F096896
:1013900041F47021434A121F1160704710B50022BA
:1013A000026847F6F0739A430C6A8B6823430C6912
:1013B00023434C6923438C692343CC6923434C6A00
:1013C00023438C6A23431A430260CB6843600B6853
:1013D00083604B68C36010BD002101604160816083
:1013E000C160016141618161C161016241628162EB
:1013F000704721B1026842F00102026004E0026815
:101400004FF6FE731A40026070471AB103680B432F
:10141000036002E003688B430360704741607047DC
:101420000146486880B2704701460020002211F052
:10143000805F03D01B4B083B1A6802E0184B083B47
:101440001A680A4201D0012000E00020704710F025
:10145000805F03D01349091F086002E01049083972
:101460004860704701460020002211F0805F03D0E1
:101470000C4B083B1A6802E0094B083B1A680A4209
:1014800001D0012000E00020704710F0805F03D001
:101490000449091F086002E00149083948607047A3
:1014A000080002400804024010B50446CA488442BD
:1014B00008D10121042000F025FB0021042000F0C8
:1014C00021FB46E0C548844208D10121082000F0F4
:1014D00019FB0021082000F015FB3AE0C0488442C7
:1014E00008D10121102000F00DFB0021102000F098
:1014F00009FB2EE0BB48844208D10121202000F0E6
:1015000001FB0021202000F0FDFA22E0B6488442D1
:1015100008D10121402000F0F5FA0021402000F020
:10152000F1FA16E0B148844208D10121802000F090
:10153000E9FA0021802000F0E5FA0AE0AC48844294
:1015400007D10121801500F0DDFA0021A01500F07F
:10155000D9FA10BD10B50121084600F0D3FA0021D8
:10156000012000F0CFFA10BD2DE9F0410246002520
:101570000026002000230024002791F803C00CF06F
:101580000F0591F803C01CF0100F03D091F802C0B2
:101590004CEA0505B1F800C01CF0FF0F31D014680B
:1015A00000202BE04FF0010C0CFA00F3B1F800C062
:1015B0000CEA03069E4220D183004FF00F0C0CFA78
:1015C00003F7BC4305FA03FC4CEA040491F803C09A
:1015D000BCF1280F06D14FF0010C0CFA00FCC2F848
:1015E00014C00AE091F803C0BCF1480F05D14FF0D8
:1015F000010C0CFA00FCC2F810C0401C0828D1D322
:101600001460B1F800C0BCF1FF0F34DD5468002055
:101610002EE000F1080C4FF0010808FA0CF3B1F8C5
:1016200000C00CEA03069E4221D183004FF00F0C4C
:101630000CFA03F7BC4305FA03FC4CEA040491F8E6
:1016400003C0BCF1280F05D100F1080C08FA0CF812
:10165000C2F8148091F803C0BCF1480F07D100F123
:10166000080C4FF0010808FA0CF8C2F81080401C72
:101670000828CED35460BDE8F0814FF6FF71018099
:10168000022181700421C1707047024600209368D6
:101690000B4201D0012000E000207047014688681D
:1016A00080B2704702460020D3680B4201D001206F
:1016B00000E0002070470146C86880B270470161B1
:1016C0007047416170470AB1016100E041617047B4
:1016D000C16070474FF480320A4382618161826148
:1016E00082698269704702460020424B18684FF6B3
:1016F0008073184040EA021008433E4B1860704760
:101700003D49C8617047F0B50A4600230024002116
:10171000002500F00046B6F1004F02D1354EF169C8
:1017200001E0344E7168C0F3034583B200F4401603
:10173000B6F5401F08D121F070612E4E766826F074
:1017400070662C4F7E6012E000F48016B6F5801FA4
:1017500006D1032606FA05F4A14341F0706106E0C4
:10176000460D360103FA06F6B14341F0706122B12D
:10177000460D360103FA06F6314300F00046B6F195
:10178000004F02D11B4EF16101E01A4E7160F0BDB5
:1017900030B500228B071C0F0F2303FA04F2154B00
:1017A00008338C1053F824309343124C08348D10B6
:1017B00044F8253023468C1053F824308C07240F2E
:1017C00000FA04F423430B4C08348D1044F8253000
:1017D00030BD0A490860704700080140000C014014
:1017E000001001400014014000180140001C01409D
:1017F000002001400000014000002042DC002042A7
:10180000DC48006840F00100DA490860084640689A
:10181000D9490840D749486008460068D749084078
:10182000D44908600846006820F480200860084613
:10183000406820F4FE0048604FF41F008860704745
:10184000CC49096821F48031CA4A116011460968FF
:1018500021F480211160B0F5803F03D0B0F5802FD6
:101860000ED106E0C349096841F48031C14A1160D4
:1018700007E0C049096841F4A021BE4A116000E0B8
:1018800000BF00BF704710B50146002200230020B2
:101890004A11012A02D1B74C236806E0022A02D17C
:1018A000B44C236A01E0B34C636A01F01F020124C7
:1018B00094401C4201D0012000E0002010BD70B512
:1018C00000240025002600BF3120FFF7DCFF06467C
:1018D000641CB4F5A06F01D0002EF5D03120FFF7C5
:1018E000D2FF08B1012500E00025284670BD014661
:1018F0000020A04A106820F0F80040EAC100106003
:1019000070479F490860704702460020994B58680D
:1019100020F47C1042EA01031843964B586070474C
:1019200097490866704701460020924A506820F0A7
:1019300003000843506070478E48406800F00C0078
:101940007047014600208B4A506820F0F0000843A1
:101950005060704701460020864A506820F4E060DD
:1019600008435060704701460020824A506820F4C6
:10197000605040EAC1005060704729B17D4A527AF8
:1019800002437C4B5A7206E07A4A527AC343DBB276
:101990001A40784B5A7270477A490860704701467E
:1019A0000020744A506820F440400843506070475B
:1019B0000021754A11706F4A82F82010012802D068
:1019C000042808D103E001216F4A117004E00521C9
:1019D0006D4A117000E000BF00BF70476B4908609E
:1019E00070476449096A0143624A11627047674956
:1019F00044390860704730B50021002200240023DC
:101A00005C4D6D6805F00C0121B1042905D0082951
:101A100023D105E05E4D056022E05D4D05601FE0CD
:101A2000544D6D6805F47012524D6D6805F48034A4
:101A3000022505EB92421CB9564D554305600BE05B
:101A40004C4D6D6815F4003F03D0524D5543056071
:101A500002E04F4D5543056002E04D4D056000BF6B
:101A600000BF444D6D6805F0F00109094A4D6B5CFB
:101A70000568DD4045603F4D6D6805F4E061090A89
:101A8000454D6B5C4568DD4085603A4D6D6805F4F9
:101A90006051C90A404D6B5C4568DD40C560354DFD
:101AA0006D6805F44041890B3C4D6B5CC568B5FB26
:101AB000F3F5056130BD29B12E4A526902432D4B21
:101AC0005A6104E02B4A526982432A4B5A6170479B
:101AD00029B1284A92690243264B9A6104E0254ABB
:101AE00092698243234B9A61704729B1214AD26996
:101AF0000243204BDA6104E01E4AD26982431D4B47
:101B0000DA61704729B11B4AD2680243194BDA6087
:101B100004E0184AD2688243164BDA60704729B154
:101B2000144A12690243134B1A6104E0114A126904
:101B30008243104B1A61704714494039086070475E
:101B40000F49C86470470B49C87170470948406A1B
:101B500040F0807007494862704701460020054AFE
:101B600092680A4201D0012000E00020704701493C
:101B700088727047001002400000FFF8FFFFF6FE79
:101B800000004242D80042422010024080044242FB
:101B900000127A0000093D002000002030000020E3
:101BA00010B50446FE48844208D10121C014FFF755
:101BB000A9FF0021E014FFF7A5FFC4E0B4F1804FB6
:101BC00008D101210846FFF7AAFF00210120FFF7F5
:101BD000A6FFB8E0F348844208D101210220FFF7B4
:101BE0009EFF00210220FFF79AFFACE0EE488442FE
:101BF00008D101210420FFF792FF00210420FFF704
:101C00008EFFA0E0E948844208D101210820FFF7B7
:101C100086FF00210820FFF782FF94E0E448844219
:101C200008D101211020FFF77AFF00211020FFF7D3
:101C300076FF88E0DF48844208D101212020FFF7A9
:101C40006EFF00212020FFF76AFF7CE0DA48844223
:101C500008D101214014FFF755FF00216014FFF760
:101C600051FF70E0D548844209D10121C804FFF733
:101C700049FF00214FF40020FFF744FF63E0D04804
:101C8000844209D101210805FFF73CFF00214FF4F0
:101C90008010FFF737FF56E0CA48844209D101217E
:101CA0004805FFF72FFF00214FF40010FFF72AFF30
:101CB00049E0C548844208D101214020FFF72FFFA9
:101CC00000214020FFF72BFF3DE0C048844208D1AF
:101CD00001218020FFF723FF00218020FFF71FFF55
:101CE00031E0BB48844208D101218015FFF717FF7E
:101CF0000021A015FFF713FF25E0B648844209D163
:101D000001210804FFF7FEFE00214FF48030FFF7A9
:101D1000F9FE18E0B048844209D101214804FFF7D8
:101D2000F1FE00214FF40030FFF7ECFE0BE0AB4872
:101D3000844208D101218804FFF7E4FE00214FF41A
:101D40008020FFF7DFFE10BD00220288944B9842EE
:101D50000ED0994B98420BD0B0F1804F08D0914BE8
:101D6000984205D0904B984202D0904B984204D1B3
:101D70004FF68F731A404B881A438D4B984207D009
:101D80008C4B984204D04FF6FF431A40CB881A433D
:101D900002808B8883850B880385814B98420BD00A
:101DA000854B984208D08B4B984205D08A4B98427D
:101DB00002D08A4B984201D10B7A03860123838299
:101DC000704770B5002400220023058C4FF6FE7684
:101DD00035400584028C8388048B4FF68F752C4028
:101DE000B51E2C400D882C43751E2A400D892A43B0
:101DF0004D882A436A4DA8420BD06F4DA84208D0A7
:101E0000744DA84205D0744DA84202D0734DA8422B
:101E100013D14FF6F7752A404D892A434FF6FB75CB
:101E20002A408D882A434FF6FF652B404FF6FF5519
:101E30002B408D892B43CD892B4383800483CD8810
:101E40008586028470BD70B5002400220023058CB5
:101E50004FF6EF7635400584028C8388048B48F674
:101E6000FF752C404FF6FF452C400D882D0644EAA7
:101E700015444FF6DF752A400D892D0542EA1542BB
:101E80004D882D0542EA1542454DA84202D04A4DE3
:101E9000A8421BD14FF67F752A404D892D0542EA95
:101EA00015424FF6BF752A408D882D0542EA15422E
:101EB0004FF6FF352B404FF2FF752B408D89AD0457
:101EC00043EA1543CD89AD0443EA15438380048377
:101ED000CD880587028470BD70B5002400220023E0
:101EE000058C4FF6FF6635400584028C8388848B11
:101EF0004FF68F752C404FF6FC752C400D882C4307
:101F00004FF6FF552A400D892D0642EA15424D88AD
:101F10002D0642EA1542224DA84202D0264DA84283
:101F20001BD14FF2FF752A404D892D0642EA15421A
:101F30004FF6FF352A408D882D0642EA15424EF6AF
:101F4000FF752B404DF6FF752B408D892D0543EA1B
:101F50001543CD892D0543EA154383808483CD88BD
:101F60008587028470BD70B5002200230024058C93
:101F70004EF6FF7635400584038C8488828B48F6C4
:101F8000FF752A404FF6FF452A400D882D0642EA8C
:101F900015424DF6FF752B400D892D0720E00000FE
:101FA000002C01400004004000080040000C0040EC
:101FB000001000400014004000340140004C01407B
:101FC000005001400054014000180040001C004037
:101FD0000020004000400140004401400048014012
:101FE00043EA15434D882D0743EA1543F84DA842AF
:101FF00002D0F84DA84206D14BF6FF752C408D89D2
:10200000AD0544EA154484808283CD88A0F8405011
:10201000038470BD828B4FF2FF331A408283828B20
:102020000B0642EA134282837047F0B50C46154610
:10203000002200210026078C4EF6FF7C07EA0C07E1
:102040000784828B018C27073E0C40F6FF473A40FD
:102050002F0642EA17421F0742EA1742DC4FB842F6
:102060000ED0DC4FB8420BD0B0F1804F08D0DA4F21
:10207000B84205D0D94FB84202D0D94FB84206D1A4
:102080004DF6FF77394046F48057394305E047F66F
:10209000FF57394044F48057394382830184F0BDAF
:1020A000828B4FF6F3731A408283828B0A438283BA
:1020B0007047F0B50C461546002200210026078C1B
:1020C0004FF6FF6C07EA0C070784828B018C27060A
:1020D0003E0C4FF60C773A401F0545EA17473A4346
:1020E000BB4FB8420ED0BB4FB8420BD0B0F1804FBF
:1020F00008D0B94FB84205D0B84FB84202D0B84F57
:10210000B84206D14FF6FF57394046F4807739433D
:1021100005E04FF2FF57394044F48077394382831A
:102120000184F0BD028B4FF2FF331A400283028B11
:102130000B0642EA134202837047F0B50C4615467F
:10214000002200210026078C4FF6EF7C07EA0C07DF
:102150000784028B018C27053E0C40F6FF473A406E
:102160001F0742EA17422F0642EA1742984FB84229
:102170000ED0984FB8420BD0B0F1804F08D0964F98
:10218000B84205D0954FB84202D0954FB84206D11B
:102190004FF6DF77394046F01007394305E04FF638
:1021A0005F77394044F01007394302830184F0BD62
:1021B000028B4FF6F3731A400283028B0A430283A9
:1021C0007047F0B50C46154600220021068C4FF6EC
:1021D000FE773E400684028B018C4FF60C7632402F
:1021E0001E0545EA16463243794EB0420ED0794E6E
:1021F000B0420BD0B0F1804F08D0774EB04205D03E
:10220000764EB04202D0764EB04206D14FF6FD7601
:10221000314044F00106314305E04FF6F576314098
:1022200044F00106314302830184F0BD70B50546D8
:102230000C46674885420ED0664885420BD0B5F102
:10224000804F08D06448854205D06448854202D05A
:102250006348854200D100E000BF208850B923893F
:10226000A28861882846FFF7ACFFE1882846FFF77F
:102270009FFF25E0208804280AD12389A28861884D
:102280002846FFF75AFFE1882846FFF74BFF17E083
:10229000208808280AD12389A28861882846FFF768
:1022A00008FFE1882846FFF7FBFE09E02389A288A2
:1022B00061882846FFF7B9FEE1882846FFF7AAFEA5
:1022C00070BD2DE9F04105460C46002601276088C7
:1022D00008B9022600E00026A088012801D10227C3
:1022E00000E001272088A0B92389A28861882846B8
:1022F000FFF767FFE1882846FFF75AFF23893A4630
:1023000031462846FFF719FFE1882846FFF70AFF04
:1023100013E02389A28861882846FFF70EFFE18831
:102320002846FFF7FFFE23893A4631462846FFF745
:1023300048FFE1882846FFF73BFFBDE8F0810A88A7
:102340004B881A438B881A43CB881A430B891A434C
:102350004B891A438B891A43A0F8442070474FF6E3
:10236000FF71818000210180C1804180017270472E
:102370000021018041808180C18001814181818172
:10238000C1817047002101804180012181800021AD
:10239000C180018170470021018041808180C1801E
:1023A000018141818181704721B1028842F001029F
:1023B000028004E002884FF6FE731A4002807047E4
:1023C00081B1B0F8442042F40042A0F844200FE06C
:1023D000002C01400034014000040040000800408F
:1023E000000C0040B0F84420C2F30E02A0F84420D4
:1023F000704710B51AB183890B43838104E0838948
:10240000CC43A4B22340838110BD8182704741EA4E
:102410000203A0F84830704710B51AB183890B4306
:10242000838104E08389CC43A4B22340838110BD1F
:1024300001894FF6F8721140018170470A46002168
:1024400001894FF68F73194011430181704730B5F0
:1024500004460D4629462046FFF7F0FF208940F04C
:102460000700208130BD2DE9F04104460D46164697
:102470001F46602D06D13B46012231462046FFF71C
:102480005CFE05E03B46012231462046FFF799FEFF
:1024900029462046FFF7D2FF208940F0070020811F
:1024A000BDE8F08130B50C4600210189C9B21D0696
:1024B00042EA154525432943018130BD2DE9F0410C
:1024C00005460E4617469846002443463A4631468E
:1024D0002846FFF7E7FF2C894FF6F870044044F0D8
:1024E00007044FF68F70044044F070042C81BDE85F
:1024F000F081F0B504460D4616461F463B4632466F
:1025000029462046FFF7CEFF208940F480402081F5
:10251000F0BD0185828270470A46002101884FF68E
:102520008F731940114301807047F0B50C46154672
:102530001E460021002200230189028B038C4FF6E6
:10254000F877394021434FF6FC473A4040F20117F3
:102550003A434FF6DD773B40370545EA17473B43A3
:10256000018102830384F0BD0A460021018B4FF6EE
:102570008F7319401143018370470A460021018B74
:1025800048F6FF731940130641EA1341018370476F
:102590000A460021818B4FF68F73194011438183C6
:1025A00070470A460021818B48F6FF7319401306D5
:1025B00041EA13418183704721B1028842F08002D1
:1025C000028004E002884FF67F731A400280704751
:1025D00021B1828842F00402828004E082884FF6B2
:1025E000FB731A408280704721B1828842F0080252
:1025F000828004E082884FF6F7731A408280704729
:1026000021B1828842F00102828004E082884FF684
:10261000FE731A40828070470A460021018B4FF6F4
:10262000F77319401143018370470A460021018B5B
:102630004FF2FF731940130641EA134101837047BB
:102640000A460021818B4FF6F773194011438183AD
:1026500070470A460021818B4FF2FF731940130621
:1026600041EA1341818370470A460021018B4FF6EE
:10267000FB7319401143018370470A460021018B07
:102680004FF6FF331940130641EA134101837047A7
:102690000A460021818B4FF6FB7319401143818359
:1026A00070470A460021818B4FF6FF33194013060D
:1026B00041EA1341818370470A460021018B4FF69E
:1026C0007F7319401143018370470A460021018B33
:1026D000C1F30E01130641EA1341018370470A4614
:1026E0000021818B4FF67F7319401143818370471E
:1026F0000A460021818BC1F30E01130641EA134102
:10270000818370470A460021018C4FF6FD73194002
:102710001143018470470A460021018C4FF6F7737C
:1027200019401143018470470A460021018C4FF67D
:10273000DF731940130541EA1341018470470A46CB
:102740000021018C4FF67F731940130541EA1341B4
:10275000018470470A460021018C4FF6FF5319404F
:10276000130641EA1341018470470A460021018C97
:102770004FF2FF731940130641EA13410184704779
:102780000A460021018C4DF6FF731940130741EAF8
:1027900013410184704730B5002301248C40A3B25B
:1027A000048CDD43ADB22C400484048C02FA01F5A4
:1027B000ADB22C43048430BD30B5002304248C40DA
:1027C000A3B2048CDD43ADB22C400484048C02FA25
:1027D00001F5ADB22C43048430BD70B50346002032
:1027E00000241846183001258D40ACB21D8CE643FC
:1027F000B6B235401D8409B1082909D100EB61004A
:10280000056825F0700505600568154305600CE056
:102810000D1FADB200EB6500056825F4E0450560CD
:102820000568160645EA1645056070BD21B10288A7
:1028300042F00202028004E002884FF6FD731A4063
:102840000280704721B1028842F00402028004E055
:1028500002884FF6FB731A400280704721B18288CC
:1028600042F08002828004E082884FF67F731A4033
:102870008280704702884FF6F7731A400280028800
:102880000A430280704782884FF68F731A40828015
:1028900082880A438280704702894FF6F8731A4093
:1028A000028102890A430281704702894FF67F73D1
:1028B0001A40028102890A4302817047818470476D
:1028C000818570478186704701877047818770478F
:1028D000A0F84010704702884FF6FF431A4002806C
:1028E00002880A43028070470146888E704701467D
:1028F000088F70470146888F70470146B1F8400045
:1029000070470146888C70470146088D7047024623
:102910000020138A0B4201D0012000E00020704704
:10292000CA430282704730B50246002000230024CB
:10293000158A05EA0103958905EA010413B10CB172
:10294000012000E0002030BDCA4302827047000031
:1029500010B50446FC48844209D101218803FFF7E1
:10296000D1F800214FF48040FFF7CCF832E0F7486F
:10297000844209D101214804FFF7D1F800214FF426
:102980000030FFF7CCF825E0F148844209D101215D
:102990008804FFF7C4F800214FF48020FFF7BFF848
:1029A00018E0EC48844209D10121C804FFF7B7F8C8
:1029B00000214FF40020FFF7B2F80BE0E648844214
:1029C00008D101210805FFF7AAF800214FF4801073
:1029D000FFF7A5F810BD2DE9F04786B005460E4675
:1029E0000024A24600BFA1460027B08900B100BF65
:1029F0002F462C8A4CF6FF700440F08804432C824A
:102A0000AC894EF6F3100440B088318908437189CF
:102A100008430443AC81AC8A4FF6FF400440B089C0
:102A20000443AC8201A8FEF7E6FFC748874202D103
:102A3000DDF810A001E0DDF80CA0A88910F4004F2B
:102A400008D00AEBCA0000EB0A1031684900B0FB5D
:102A5000F1F807E00AEBCA0000EB0A1031688900C0
:102A6000B0FBF1F86420B8FBF0F004012009642108
:102A700001FB1089A88910F4004F08D0322000EB28
:102A8000C900B0FBF1F000F00700044308E0322079
:102A900000EB09106421B0FBF1F000F00F000443DB
:102AA0002C8106B0BDE8F0874FF41651016000217B
:102AB0008180C18001810C21418100218181704789
:102AC00010B502460020108A4FF2FF0318400B8811
:102AD0004C8823438C882343CC882343184310829B
:102AE00010BD0021018041808180C180704721B1EB
:102AF000828942F40052828104E082894DF6FF739C
:102B00001A4082817047F0B5034600240026002554
:102B10000020A1F510676A3F00D100BF1846C1F33D
:102B2000421401F01F06012707FA06F5012C01D116
:102B30000C3004E0022C01D1103000E014301AB146
:102B400007682F43076002E00768AF430760F0BDE6
:102B500010B51AB1838A0B43838204E0838ACC4385
:102B6000A4B22340838210BD028A4FF6F0731A404C
:102B70000282028A0A430282704782894FF2FF73FF
:102B80001A40828182890A438281704721B18289F9
:102B900042F00202828104E082894FF6FD731A40FE
:102BA00082817047028A4FF6DF731A400282028ADE
:102BB0000A430282704721B1028A42F480420282B3
:102BC00004E0028A4BF6FF731A4002827047C1F399
:102BD00008028280704701468888C0F30800704769
:102BE000818941F0010181817047028BD2B2028359
:102BF000028B42EA012202837047028B02F47F4279
:102C00000283028B0A430283704721B1828A42F019
:102C10002002828204E0828A4FF6DF731A408282A9
:102C2000704721B1828A42F01002828204E0828AD7
:102C30004FF6EF731A408282704721B1828A42F0C8
:102C40000802828204E0828A4FF6F7731A40828279
:102C5000704721B1828942F40042828103E0828977
:102C6000C2F30E028281704721B1828A42F400626F
:102C7000828204E0828A4FF2FF731A408282704798
:102C8000828A4FF6FB731A408282828A0A438282CA
:102C9000704721B1828A42F00202828204E0828A75
:102CA0004FF6FD731A408282704702460020B1F54C
:102CB000007F00D100BF13880B4201D0012000E04B
:102CC0000020704701F40072B2F5007F00D100BF10
:102CD000CA430280704770B50246002400230025D5
:102CE0000020A1F510666A3E00D100BFC1F3421575
:102CF00001F01F03012606FA03F3012D02D1968984
:102D0000334006E0022D02D1168A334001E0968A54
:102D100033400C12012606FA04F41688344013B12D
:102D20000CB1012000E0002070BD10B5002200238E
:102D3000A1F510646A3C00D100BF0A12012494403E
:102D4000A3B2DC43048010BD0038014000440040C1
:102D500000480040004C00400050004008B54FF4CF
:102D6000A060FDF711FD0D208DF8000000208DF80A
:102D700001008DF8020001208DF803006846FDF780
:102D800008FD1C208DF8000001208DF801000020B6
:102D90008DF8020001208DF803006846FDF7F9FC6C
:102DA0001D208DF8000001208DF801008DF8020033
:102DB0008DF803006846FDF7ECFC1E208DF800003E
:102DC00001208DF8010002208DF8020001208DF80D
:102DD00003006846FDF7DDFC32208DF8000001207D
:102DE0008DF8010003208DF8020001208DF803000A
:102DF0006846FDF7CEFC36208DF8000003208DF8E4
:102E000001008DF8020001208DF803006846FDF7EF
:102E1000C0FC37208DF8000002208DF80100002052
:102E20008DF8020001208DF803006846FDF7B1FC23
:102E300008BD08B501210920FEF74AFE0121480618
:102E4000FEF753FE01214FF4EA10FEF75CFC4FF44D
:102E50008070ADF8000048208DF8030003208DF845
:102E600002006946FE48FEF77FFB4FF40070ADF8A4
:102E7000000018208DF8030003208DF80200694639
:102E8000F748FEF771FB08BD08B513208DF8000068
:102E900000208DF8010001208DF802008DF803005C
:102EA0006846FDF776FC08BD0EB5EE48FDF7DAFC86
:102EB0006846FDF7FFFD00208DF8060001208DF823
:102EC00007008DF8080000208DF809008DF80A0031
:102ED0008DF80B008DF802008DF8030004208DF8AA
:102EE000040002208DF805000420ADF800006946BA
:102EF000DC48FDF7D0FC0EBD1FB500208DF80A00A0
:102F00008DF80B0001208DF80C000020ADF80000BA
:102F1000ADF80200ADF80400ADF80600ADF8080009
:102F200001208DF80D006846FDF743FD01220221C6
:102F3000CC48FEF73DF801221146CA48FEF738F8A2
:102F40001FBD10B5FFF775FFFFF7AEFFFFF7D4FF0A
:102F500010BD5521C44A1160002111725172052122
:102F60009172D072411CCAB2BF490A73811CCAB2A5
:102F7000BD494A73C11CCAB2BB498A73011DCAB29A
:102F8000B949CA73704700B589B001210846FEF7F8
:102F90009FFD0121C802FEF79BFD01210420FEF7E1
:102FA00097FD4FF47060ADF8200003208DF82200EB
:102FB00018208DF8230008A9AC48FEF7D5FA0020A8
:102FC000ADF81400ADF816004FF4E150ADF818005C
:102FD0000020ADF81A008DF81C0005A9A448FEF7E2
:102FE000B3FE7020ADF804000120ADF8060000200B
:102FF000ADF808000220ADF80C000020ADF80E007E
:103000004FF48070ADF810000020ADF8120001A957
:103010009748FEF7D6FE01A99548FEF714FF01A9CF
:103020009348FEF759FF01A99148FEF79CFF002045
:103030008F4934310880091D0880091D0880091D49
:10304000088001218A48FFF7AFF901218848FFF77E
:10305000B7F909B000BD00B589B001210846FEF7F7
:1030600037FD01214803FEF733FD01211020FEF753
:103070002FFD4FF47070ADF8200003208DF8220072
:1030800018208DF8230008A97A48FEF76DFA002071
:10309000ADF81400ADF816004FF4E150ADF818008B
:1030A0000020ADF81A008DF81C0005A97248FEF743
:1030B0004BFE7020ADF804000120ADF806000020A2
:1030C000ADF808000220ADF80C000020ADF80E00AD
:1030D0004FF48070ADF810000020ADF8120001A987
:1030E0006548FEF76EFE01A96348FEF7ACFE01A934
:1030F0006148FEF7F1FE01A95F48FEF734FF0020AA
:103100005D4934310880091D0880091D0880091DAA
:10311000088001215848FFF747F901215648FFF779
:103120004FF909B000BD00B587B001215348FEF743
:10313000EAFA01210846FEF7CBFC01210846FEF71A
:10314000D4FC01210420FEF7C3FC01210820FEF776
:10315000BFFC01214A48FEF7D6FA4FF40040ADF813
:10316000180048208DF81B0003208DF81A0006A9CE
:103170003E48FEF7F9F90122D1033C48FEF7A3FAD5
:103180000820ADF8180048208DF81B0003208DF8AA
:103190001A0006A93248FEF7E7F901220821304853
:1031A000FEF791FA44F62060ADF810000020ADF86B
:1031B0000C00ADF81200ADF80E0003A94FF08040EE
:1031C000FEF7C2FD0A231A4603215807FFF7ADF99F
:1031D0006846FFF7D7F80620ADF8080069464FF0BB
:1031E0008040FFF723F801218807FFF799FB0122B0
:1031F00011469007FFF7FDF800204FF080418884CA
:1032000001218807FFF7D0F807B000BD00B587B0EF
:1032100001210846FEF75CFC01210220FEF765FC57
:1032200001210420FEF754FCC020ADF8180048200E
:103230008DF81B0003208DF81A0006A90B48FEF735
:1032400093F9012240210948FEF73DFA012280212D
:103250000648FEF738FA44F62060ADF8100011E099
:10326000000C014000640040940000200008014070
:10327000002C0140001001400034014000023000E9
:10328000000318000020ADF80C00ADF81200ADF8F6
:103290000E0003A9F948FEF757FD0A231A46032139
:1032A000F648FFF742F96846FFF76CF80620ADF8DC
:1032B00008006946F148FEF7B9FF0121EF48FFF722
:1032C0002FFB01221146ED48FFF793F80020EB4950
:1032D000243108800121E948FFF766F807B000BDF6
:1032E00000B587B001210846FEF7F2FB012104205A
:1032F000FEF7FBFB01210820FEF7EAFBC020ADF83A
:10330000180048208DF81B0003208DF81A0006A92C
:10331000DB48FEF729F901224021D948FEF7D3F90D
:1033200001228021D648FEF7CEF944F62060ADF8A0
:1033300010000020ADF80C00ADF81200ADF80E0042
:1033400003A9D048FEF700FD0A231A460321CD4801
:10335000FFF7EBF86846FFF715F80620ADF8080010
:103360006946C848FEF762FF0121C648FFF7D8FA50
:1033700001221146C348FFF73CF80020C14924311F
:1033800008800121BF48FFF70FF807B000BD00B566
:1033900087B001210846FEF79BFB01210820FEF7BC
:1033A000A4FB01210420FEF793FB0320ADF81800D5
:1033B00048208DF81B0003208DF81A0006A9B2489A
:1033C000FEF7D2F801221146AF48FEF77CF9012240
:1033D0000221AD48FEF777F944F62060ADF8100001
:1033E0000020ADF80C00ADF81200ADF80E0003A9F6
:1033F000A648FEF7A9FC0A231A460321A348FFF7B3
:1034000094F86846FEF7BEFF0620ADF8080069464E
:103410009E48FEF70BFF01219C48FFF781FA01222D
:1034200011469A48FEF7E5FF0020984924310880AC
:1034300001219648FEF7B8FF07B000BD0EB5012187
:103440001020FEF752FB41F28730ADF80400472010
:10345000ADF800000020ADF80600ADF802008DF8D0
:10346000080069468A48FEF76FFC01218848FFF78B
:10347000E9F9012211468648FEF7BBFF0121844885
:10348000FEF792FF0EBD0EB501212020FEF72DFBA9
:1034900041F28730ADF804004720ADF8000000206D
:1034A000ADF80600ADF802008DF8080069467948CD
:1034B000FEF74AFC01217748FFF7C4F901221146C3
:1034C0007448FEF796FF01217248FEF76DFF0EBDAE
:1034D00010B5FFF758FDFFF7BEFDFFF724FEFFF71D
:1034E00095FEFFF7FDFEFFF752FFFFF7A7FFFFF77F
:1034F000CAFF10BD10B541F62C23984200DD1846D6
:10350000654B984200DA1846002802DA414201224F
:1035100001E0014600222AB10023604C2380241DD3
:10352000218004E05D4C21800023241D238010BDF8
:1035300010B541F62C23984200DD1846564B9842B0
:1035400000DA1846002802DA4142012201E0014671
:10355000002232B10023514C08342380241D2180E5
:1035600005E04E4C083421800023241D238010BD2B
:1035700010B541F62C23984200DD1846464B984280
:1035800000DA1846002802DA4142012201E0014631
:1035900000222AB10023424C2380241D218004E014
:1035A0003F4C21800023241D238010BD10B541F61F
:1035B0002C23984200DD1846374B984200DA184613
:1035C000002802DA4142012201E00146002232B124
:1035D0000023334C08342380241D218005E0304C27
:1035E000083421800023241D238010BD08B501214B
:1035F0004820FEF76DFA4FF46040ADF8000010204F
:103600008DF8030003208DF8020069461C48FDF781
:10361000ABFF4FF400411A48FEF753F84FF48041D6
:103620001748FEF74EF84FF400511548FEF749F8D9
:1036300008BD10B56FF00400FDF7F6F810BD0146A7
:1036400001EBC10222F060424FF47A735A434FF00B
:10365000E0235A6100229A6101221A6100BF4FF0F3
:10366000E022106910F0010F02D010F4803FF6D074
:1036700000224FF0E0231A619A6170470004004075
:10368000000C01400008004000080140000C004010
:103690000010004000140040D4E5FFFF3434014026
:1036A000342C0140014601EBC10222F060424FF090
:1036B000E0235A6100229A6101221A6100BF4FF093
:1036C000E022106910F0010F02D010F4803FF6D014
:1036D00000224FF0E0231A619A61704700B585B06F
:1036E0000121D848FEF701FA4FF40060ADF8100050
:1036F00004208DF8130004A9D348FDF735FFD34803
:1037000000900020ADF80400ADF806004FF4806092
:10371000ADF808000020ADF80C000420ADF80A0058
:103720006946CB48FFF757F90121C948FFF7DFF990
:1037300005B000BD00B58BB001210846FEF7BBF90E
:10374000C348001D0090C348019000200290122041
:1037500003900020049080200590002006900790A0
:10376000202008904FF44050099000200A906946AC
:10377000B948FDF713FE0121B748FDF73AFE0122D3
:103780000221B548FDF741FE0BB000BD10B5FFF7B3
:10379000E5FAFFF79DFEFFF729FFFFF74AFFFFF766
:1037A0009DFFFFF7C7FF01224021A948FFF7D0F98D
:1037B000FFF7C7FB10BD10B54FF08042928C12B2DC
:1037C000A64B1A811A469169B2F90830B2F9102055
:1037D00040F27124624303EB4210421A12B29F4B33
:1037E0001A8013E09D4A128A521E12B29B4B1A8213
:1037F0001A46B2F90830B2F9102040F2712462433F
:1038000003EB4210421A12B2944B1A80934AB2F957
:10381000002042F210739A42E4DC13E08F4A128ACD
:10382000521C12B28D4B1A821A46B2F90830B2F904
:10383000102040F27124624303EB4210421A12B28C
:10384000864B1A80854AB2F90020854B9A42E5DB07
:10385000824A906110BD10B5824A128812B27F4B25
:103860005A811A46D169B2F90A30B2F9122040F2EF
:103870007124624303EB4210421A12B2774B5A8012
:1038800013E0764A528A521E12B2744B5A821A467A
:10389000B2F90A30B2F9122040F27124624303EB0C
:1038A0004210421A12B26D4B5A806C4AB2F9022091
:1038B00042F210739A42E4DC13E0684A528A521CC6
:1038C00012B2664B5A821A46B2F90A30B2F9122085
:1038D00040F27124624303EB4210421A12B25F4B72
:1038E0005A805E4AB2F902205D4B9A42E5DB5B4AA0
:1038F000D06110BD10B55C4A128812B2574B9A8144
:103900001A46116AB2F90C30B2F9142040F271244F
:10391000624303EB4210421A12B2504B9A8013E0FA
:103920004E4A928A521E12B24C4B9A821A46B2F9F1
:103930000C30B2F9142040F27124624303EB4210C0
:10394000421A12B2454B9A80444AB2F9042042F21C
:1039500010739A42E4DC13E0404A928A521C12B27D
:103960003E4B9A821A46B2F90C30B2F9142040F25A
:103970007124624303EB4210421A12B2374B9A8011
:10398000364AB2F90420364B9A42E5DB334A1062DC
:1039900010BD10B5354A128812B2304BDA811A4682
:1039A000516AB2F90E30B2F9162040F27124624326
:1039B00003EB4210421A12B2284BDA8013E0274A76
:1039C000D28A521E12B2254BDA821A46B2F90E3052
:1039D000B2F9162040F27124624303EB4210421AFE
:1039E00012B21E4BDA801D4AB2F9062042F2107361
:1039F0009A42E4DC13E0194AD28A521C12B2174BE5
:103A0000DA821A46B2F90E30B2F9162040F2712469
:103A1000624303EB4210421A12B2104BDA800F4A93
:103A2000B2F906200E4B9A42E5DB0C4A506210BDFB
:103A300000B5FFF7C0FEFFF70EFFFFF75BFFFFF7D4
:103A4000A8FF00BD08000400000C0140A086010092
:103A500000480040A800002030000240D0000020B4
:103A6000F0D8FFFF2404004024080040240C00404C
:103A70002DE9F04104460021206800F075FD03D2D5
:103A8000206880F0004020600021606800F06CFD3C
:103A900003D2606880F0004060600021A06800F000
:103AA00063FD03D2A06880F00040A0600021E068C0
:103AB00000F05AFD03D2E06880F00040E060206929
:103AC000E0612169206A00F065FC20620021E06865
:103AD00000F0CEFC13D0E168206A00F04CFE02D268
:103AE000E06820620BE0E06880F000452846216A2B
:103AF00000F041FE03D2E06880F000402062A1693E
:103B0000206900F073FE60622069A061616AA068AC
:103B100000F05EFD0646216A606800F059FD074628
:103B2000E169206800F054FD8046394600F032FC1F
:103B30000546314600F02EFC6061BDE8F0812DE9BC
:103B4000F05F04460021206800F00EFD03D22068DB
:103B500080F0004020600021606800F005FD03D285
:103B6000606880F0004060600021A06800F0FCFC0C
:103B700003D2A06880F00040A060A169E06800F076
:103B800035FE8046E5684FF08040A16900F020FDD9
:103B90008146E16800F020FE0746E16900F0FAFB8B
:103BA0000646A069E061E068A0613146A06800F0C7
:103BB0000FFD81462946606800F00AFD82464146B5
:103BC000206800F005FD8346514600F0E3FB074600
:103BD000494600F0DFFB20610021206800F048FC2E
:103BE0000CD10021606800F043FC07D10021A068DF
:103BF00000F03EFC02D10020606104E0D4E9041032
:103C000000F0C8FB6061BDE8F09F10B504466F4846
:103C1000B0F902006E4908606E4804600146096808
:103C20006B4A1268881A00F073FC6B4908616B4993
:103C3000088800F085FC684908606849488800F0F9
:103C40007FFC654948606549888800F079FC6249D5
:103C500088606249C88800F073FC5F49C860084604
:103C6000FFF706FF5C49486900F036FC5C490860D4
:103C700008460068FFF73EFC10BD10B504465348E7
:103C8000B0F90600574908605748046001460968C2
:103C9000544A1268881A00F03BFC544908614F49A5
:103CA000088800F04DFC514908604C49488800F0F4
:103CB00047FC4E4948604949888800F041FC4B491F
:103CC00088604649C88800F03BFC4849C8600846FF
:103CD000FFF7CEFE4549486900F0FEFB4449086005
:103CE00008460068FFF724FC10BD10B504463748AD
:103CF000B0F904003F4908603F4804600146096884
:103D00003C4A1268881A00F003FC3C4908613349B8
:103D1000088800F015FC394908603049488800F0EF
:103D20000FFC364948602D49888800F009FC33496A
:103D300088602A49C88800F003FC3049C8600846FA
:103D4000FFF796FE2D49486900F0C6FB2C49086034
:103D500008460068FFF70CFC10BD10B504461B4870
:103D6000B0F9000027490860274804600146096847
:103D7000244A1268881A00F0CBFB244908611749CD
:103D8000088800F0DDFB214908601449488800F0EC
:103D9000D7FB1E4948601149888800F0D1FB1B49B8
:103DA00088600E49C88800F0CBFB1849C8600846F7
:103DB000FFF75EFE1549486900F08EFB1449086064
:103DC00008460068FFF7F2FB10BD0000D00000209D
:103DD0003800002034000020F80000209801002066
:103DE0003C00002044000020400000202001002072
:103DF00048000020500000204C0000204801002016
:103E0000540000205C0000205800002070010020B9
:103E1000600000202DE9F0410A20964908800D201D
:103E20004880052088804FF47A70C8809248407A94
:103E300001287DD19048408930B900208F49088001
:103E40008F4908808F4908808B48408A30B900200C
:103E50008A4908808A4908808A4908808648408AB9
:103E6000012803D140F6B830854908808248408A4D
:103E7000022803D14FF24840814908807E48408A99
:103E8000042803D14FF248407E4908807A48408A8E
:103E9000082803D140F6B8307A4908807648408A2D
:103EA000052807D140F6B830754908804FF24840E0
:103EB000744908807048408A062805D14FF248406E
:103EC0006F4908806F4908806B48408A092805D1EE
:103ED00040F6B8306A4908806A4908806648408AD6
:103EE0000A2807D14FF248406549088040F6B830AB
:103EF000644908806048B0F90A00002808DA5E4882
:103F000040894042C0EB0010400000B25B4908808D
:103F10005948B0F90A00002808DD57484089404256
:103F2000C0EB0010400000B254490880534800E044
:103F30002CE0008852490988084452490988401AEF
:103F400000B24C4908814D4800884D490988401A03
:103F50004C490988401A00B24649488147480088C0
:103F6000404247490988084446490988081A00B26E
:103F70004049888141480088404241490988401AA7
:103F800040490988081A00B23A49C8813A48407A3B
:103F9000022803D03848407A032860D1364909887E
:103FA000C1F5806000F0E1F806460022364B00F0D3
:103FB000F3F8044600F0AAF800B2304908802E4910
:103FC000C988A1F5806000F0D0F8064600222E4B8B
:103FD00000F0E2F8044600F099F800B228490880A1
:103FE00025498988A1F5806000F0BFF804460022C9
:103FF000254B00F0D1F8064600F088F800B22149C0
:1040000008801E4800881E49098808441D490988FF
:10401000401A00B2174908811848008818490988D1
:10402000401A18490988401A00B2124948811348B9
:104030000088404212490988084412490988081A30
:1040400000B20C4988810D48008840420C4909881B
:10405000401A0C490988081A00B20649C8810B4861
:10406000007828B900200349088148818881C881E7
:10407000BDE8F08198010020BA0000206C0000200B
:104080006E0000207000002000000440640000204A
:10409000704770477047754600F028F8AE46050037
:1040A0006946534620F00700854618B020B5FCF756
:1040B00059FBBDE820404FF000064FF000074FF0DD
:1040C00000084FF0000B21F00701AC46ACE8C00936
:1040D000ACE8C009ACE8C009ACE8C0098D4670473F
:1040E0000446AFF300802046FCF76BF800487047A9
:1040F000A801002000487047AC01002001491820A9
:10410000ABBEFEE726000200704700004FEA410305
:104110004FEA5353A3F58063D3F11E03C8BFD3F115
:10412000210C0CDD4FF0004242EAC12242EA50521B
:1041300032FA03FC8CEAE17CACEBE1707047102BA7
:10414000C4BF0020704703F5787CBCF1FF3F04D06A
:104150006FF0004282EA2100704770B500F0C6F8A7
:104160004992248000207047F2E710F0004248BFD7
:104170004042B0FA80F310FA03F10AD0C3F11D03F4
:1041800003F580634FEA415002EB035202EBD12169
:1041900070474FF000007047DFF848C170B51CEA67
:1041A000111E1EBF1CEA13159EEA0C0F95EA0C0F98
:1041B00000F06F8081EA030423EA4C134EEAD47EB8
:1041C00021EA4C1141F4801143F48013AE44A1FB69
:1041D000024CA0FB0365AEF17F7E361955EB0C0552
:1041E000A1FB034C4CF10003A0FB021C16EB0C06D8
:1041F000654153F10003094218BF46F0010613F46C
:10420000007F0BD14FEA03314FEA0530340341EA16
:10421000155140EA16506FF003020AE04FEAC3213D
:104220004FEAC520F40241EA555140EA56506FF07A
:10423000020202EB2E4201EB025585EACE710AD052
:104240005FEA440C18BF24F0004450F1000041F133
:10425000000120EAD47040F2FE7C624500D270BDBD
:10426000A84214BF4FF080444FF04044002E08BFD6
:104270000024BEF1806FA8BFA1F1C041BDE870402D
:1042800080F282804FF0000001F1C04101F0004156
:1042900070479EEA0C0F0CEA131518BF95EA0C0F35
:1042A00006D04FF0000081EA030E0EF0004170BD11
:1042B00000F01CF88900013E00F007B800F009B8D2
:1042C0004FEA430C5FEA5C5C08D081EA030100F02E
:1042D0005BB84FEA410C5FEA5C5CF6D14FF000003E
:1042E000014970470000FF070000F87F0EF1020E41
:1042F0002EF0030E5EF8046B364205D4012A43EB20
:10430000030515F5001F12D8012841EB010C1CF51F
:10431000001F0CD80ED14FEAD17C15F5001F0CEB15
:104320004C0C0CF1020C08BF4CEBD37C04E04FF0BA
:10433000080C01E04FEAD37C0CEB4C0526FA05F69D
:1043400006F00706B6F1040C06D20EEB860CBDE8AB
:1043500070404CF0010C6047DFE80CF0090B0202E2
:104360004FF000414FF00000A1F5002170BD19464B
:104370001046012851EB010418BFD4F5001484BF86
:10438000002001F0004170BD0808A0F500114FEABF
:104390003101704790EA010F48BF81F0004100F100
:1043A0002C82421A3CBF801A89184FEAD0524FF033
:1043B0007F4C1CEA410FA2EBD15318BF9CEA026F5D
:1043C00000F03B804FF0004C4CEA00204CEA012109
:1043D00021FA03FC10EB0C0C1ED202F1FF325FEA53
:1043E0001C2040EBC25038BF70471CF07F0F4FEAD3
:1043F000400C18BFBCF17F4F38BF7047C3F120039A
:10440000994008BF20F00100BCF17F4F38BF7047D2
:10441000A0F1C04000F0AAB94FEA3C00000A40EB0E
:10442000C25028BF1CF0FF0F4FEA400CE6D018BF67
:10443000BCF17F4F38BF7047EAE79CEA026F05D0B6
:1044400010EA5C0F08BF00F00040704710B500F0A4
:1044500040F900BF64FBBE3E401058BFC0F1404071
:10446000491058BFC1F140418142EFF300807047CD
:1044700050EA010C00F113801CF5000F58BFBCF589
:10448000000F01D48842704707D710F5000F58BFBE
:1044900011F5000F15D488427047894270471CF50A
:1044A000000F04D5BCF5000FF7D5814270474FF0DF
:1044B000807C1CEB400F38BF1CEB410F01D28142C6
:1044C000704710B500F005F9922449004FF00050F4
:1044D0004FF08051FFF7C0BF41000B0ED3F19E0299
:1044E00008D950F400034FEA032323FA02F048BF2F
:1044F0004042704710B500F0ECF800BF49922480AC
:10450000002070476FF0004282EA200070470000F0
:1045100010F0004148BF4042B0FA80F310FA03F2B5
:10452000C3F19D030BD051EAC35101EB1220530696
:1045300038BF704700F1010008BF20F0010070474C
:10454000B0FA80F310FA03F2C3F19D030AD0D90543
:1045500001EB1220530638BF704700F1010008BF7D
:1045600020F001007047000050EA010C00F11380B8
:104570001CF5000F58BFBCF5000F01D488427047EE
:1045800007D710F5000F58BF11F5000F15D488425A
:104590007047894270471CF5000F04D5BCF5000F29
:1045A000F7D5814270474FF0807C1CEB400F38BF3D
:1045B0001CEB410F01D28142704710B500F089F821
:1045C000922449004FF000504FF08051FFF744BF54
:1045D0004FF47F0C1CEAD0121EBF1CEAD11392EAE2
:1045E0000C0F93EA0C0F00F0478090EA010F48BFD0
:1045F00042F480724FF0004C4CEA00204CEA01215A
:1046000002EB0302A0FB0113A2F50002002918BF70
:1046100043F001035B0028BF4FEA330342EB224221
:104620005FEA132C4CEBC2502EBFBCEB436FB2F5CC
:104630007C0F70474FEA036CBCF1004F08BF20F0BD
:104640000100B2F57C0F38BF70470BD582F0FF0236
:1046500012F5803FC8BF704700F1C040D8BF00F0DE
:104660000040704700F5000C5FEA4C0C48BF7047F3
:10467000B0F1C04000F07AB890EA010F0CEAD11313
:1046800048BF42F48072624538BF634504D280EA75
:10469000010000F00040704710B500F01AF800BFAC
:1046A0008900013E00F007B800F009B85FEA410C4C
:1046B0005FEA1C6C08D080EA010000F057B85FEA9E
:1046C000400C5FEA1C6CF6D14FF00040A0F5800072
:1046D00070470EF1020E2EF0030E5EF8044B2442DA
:1046E00004D44FEA4102B2F17F4F11D84FEA4003A0
:1046F000B3F17F4F0CD80ED14FEAD07CB2F17F4F8F
:104700000CEB4C0C0CF1020C08BF4CEBD17C04E020
:104710004FF0080C01E04FEAD17C0CEB4C0324FA7B
:1047200003F404F00704B4F1040C06D20EEB840C7D
:10473000BDE810404CF0010C6047DFE80CF00708C2
:1047400002024FF00040A0F5800010BD0846420074
:1047500018BFD2F1807288BF00F0004010BD10B5C4
:10476000FFF7C8FC4FF00001016010BDFF2141EAD6
:10477000D050C005704751EA000C00F113801CF5C1
:10478000000F58BFBCF5000F01D48142704707D716
:1047900011F5000F58BF10F5000F15D48142704776
:1047A000894270471CF5000F04D5BCF5000FF7D502
:1047B000884270474FF0807C1CEB410F38BF1CEBE8
:1047C000400F01D28842704780EA010081EA00016F
:1047D00080EA0100FFF7F1BE80F0004090EA010F8F
:1047E0007FF5DFAD81F0004100F007B890EA010FDE
:1047F00048BF81F000413FF5D4AD421A04D882F0A1
:104800000042A0EB020011444FEAD0524FF07F4C1F
:104810001CEA410FA2EBD15318BF9CEA026F4AD0A9
:104820004FF0004C4CEA00204CEA012121FA03FC35
:10483000B0EB0C0C0FD412F0FE0F36D05FEA4C0038
:104840001DD5001240EBC25038BF70471CF03F0F1F
:1048500018BF70470BE0A2F101025FEA1C2040EB99
:10486000C25038BF70471CF07F0F18BF7047C3F1AC
:104870002003994014BF401E20F0010070478008BB
:104880004FEA122308BF7047B0FA80FCA2EB0C027B
:10489000CCF1280C60FA0CF093EA122F04BF00EB65
:1048A000C25070474FEAC3707047130A5FEADC10CA
:1048B00008BF7047F6E79CEA026F04D010EA5C0F6D
:1048C00008BF0020704710B5FFF703FF40DFF63E3A
:1048D00081F0004070470000F84800080000002008
:1048E000800000006C01000878490008800000206A
:1048F0008807000088010008000000000000000098
:104900000000000000A24A040000000000000000B7
:104910000102030406070809000000000102030465
:10492000010203040607080902040608000000004B
:104930000000000000000000000000000000000077
:104940000000000000000000000000000000000067
:104950000000000000000000000000000000000057
:104960000000000000000000000000000000000047
:0849700000000000000000003F
:0400000508000131BD
:00000001FF
