:020000040800F2
:10000000D80700204D060008290400082B0400082A
:100010002F04000833040008370400080000000023
:100020000000000000000000000000003B04000889
:100030003D040008000000003F04000841040008DF
:1000400067060008670600086706000867060008DC
:1000500067060008670600086706000867060008CC
:1000600067060008670600086706000867060008BC
:1000700067060008370300086706000867060008DF
:10008000670600086706000867060008670600089C
:10009000670600086706000867060008670600088C
:1000A000670600086706000867060008670600087C
:1000B00075020008A7020008D702000867060008BA
:1000C000670600086706000867060008670600085C
:1000D000670600086706000867060008670600084C
:1000E000670600086706000867060008670600083C
:1000F000670600086706000867060008670600082C
:10010000670600086706000807030008670600087E
:100110006706000867060008010200081F020008C1
:1001200067060008670600086706000867060008FB
:1001300000F002F800F03CF80AA090E8000C8244BD
:100140008344AAF10107DA4501D100F031F8AFF29A
:10015000090EBAE80F0013F0010F18BFFB1A43F0A5
:10016000010318473839000058390000103A24BFFD
:1001700078C878C1FAD8520724BF30C830C144BF0C
:1001800004680C607047000000230024002500264E
:10019000103A28BF78C1FBD8520728BF30C148BFEA
:1001A0000B6070471FB503F0BCFB1FBD10B510BD41
:1001B00003F053F81146FFF7F5FF00F009F803F0DC
:1001C00071F803B4FFF7F2FF03BC03F079F8000005
:1001D00000F0BCF902F0A4FC0EE0142002F00DFCCB
:1001E0000648006808B9012000E0002003490860C3
:1001F0004FF0140002F001FCEFE70000B88121424B
:1002000010B59048006808B9012000E000208D4931
:1002100008604FF001018C4801F01EFE10BD10B5C2
:1002200002F0E9FD02F0C4FF0020884948618849D6
:10023000486188494861884948618849B1F908009E
:1002400002F0BBFE8549B1F90A0002F0EEFE8349D7
:10025000B1F90C0002F021FF8148006808B90120C3
:1002600000E000207E4908604FF001017D4801F068
:10027000F3FD10BD10B54FF08040008810F0100F56
:1002800006D07948008A401E00B27749088205E00E
:100290007548008A401C00B2734908820121880712
:1002A00001F0DAFD10BD10B57048008810F0100F95
:1002B00006D06D48408A401E00B26B49488205E076
:1002C0006948408A401C00B267494882012167485A
:1002D00001F0C2FD10BD10B56548008810F0100F88
:1002E00006D06148808A401E00B25F49888205E0DE
:1002F0005D48808A401C00B25B49888201215C48CD
:1003000001F0AAFD10BD10B55A48008810F0100F7A
:1003100006D05548C08A401E00B25349C88205E045
:100320005148C08A401C00B24F49C882012151483F
:1003300001F092FD10BD10B54FF4007000F0FCFA12
:1003400001286DD14C490870400200F008FB4FF4C1
:10035000007000F022FB494800784849497840EA9B
:100360000120C0F30A004649088044484078C01084
:100370004249897840EA4110C0F30A004049488068
:100380003E48807880113D49C97840EA81003B4968
:10039000097940EA8120C0F30A003949888037484A
:1003A000007940103549497940EAC110C0F30A008C
:1003B0003349C880314840790011800808722F48BD
:1003C0004079C0F3011048722C4880792B49C979D3
:1003D00040EA012000B22A4948812848007A27498A
:1003E000497A40EA012001B2254881812348807A78
:1003F0002249C97A40EA012001B22148C1811F483F
:10040000017B1F4801741D48417B1D4841741B48F6
:10041000807B1A49C97B40EA01201949488202E0E1
:1004200000201549087010BD704700BFFEE700BFEF
:10043000FEE700BFFEE700BFFEE77047704770476A
:1004400070470000B481214200100040C400002029
:10045000EC000020140100203C0100206401002079
:10046000BC812142001400409C0000200004004098
:1004700000080040000C00405800002074000020DC
:100480008600002000210020674A126842F4803272
:10049000654B1A6000BF644A126802F40030491CC0
:1004A00010B9B1F5A06FF6D15F4A126812F4003F9F
:1004B00001D0012000E00020012842D15B4A1268EF
:1004C00042F01002594B1A601A46126822F00302D9
:1004D0001A601A46126842F002021A60524A5268C2
:1004E000514B5A601A4652685A601A46526842F492
:1004F00080625A601A46526822F47C125A601A4688
:10050000526842F4E8125A601A46126842F0807249
:100510001A6000BF444A126812F0007FFAD0424AC3
:10052000526822F00302404B5A601A46526842F069
:1005300002025A6000BF3C4A526802F00C02082ACC
:10054000F9D1704710B5FFF79DFF10BD10B53648C3
:10055000006840F0010034490860084640683449AA
:1005600008403149486008460068324908402E4931
:1005700008600846006820F480200860084640684B
:1005800020F4FE0048604FF41F008860FFF7DAFF98
:100590004FF000602849086010BD10B50021002010
:1005A0000022214B5B6803F00C0121B1042906D025
:1005B000082928D107E0214B214C236027E01F4B5D
:1005C0001F4C236023E0184B5B6803F47010164B3C
:1005D0005B6803F48032022303EB904022B9194B8D
:1005E0004343174C23600DE00F4B5B6813F4003F4F
:1005F00004D0144B4343124C236003E00F4B43439E
:100600000F4C236003E00D4B0D4C236000BF00BF77
:10061000054B5B68C3F303130B4CE15C084B1B6891
:10062000CB40074C236010BD001002400020024068
:100630000000FFF8FFFFF6FE08ED00E000127A0070
:100640000000002000093D00040000200948804708
:1006500009480047FEE7FEE7FEE7FEE7FEE7FEE7A4
:10066000FEE7FEE7FEE7FEE704480549054A064BBC
:10067000704700004D05000831010008D801002036
:10068000D8070020D8030020D803002031490143B7
:10069000314A1160704770B5002100230F22C478E1
:1006A0000CB32D4C246804F4E064C4F5E064210A22
:1006B000C1F10403CA40447804FA03F18478144079
:1006C00021430901254C0678A155047804F01F0543
:1006D0000124AC4005786D114FF0E02606EB85054E
:1006E000C5F8004109E0047804F01F050124AC407E
:1006F0001B4D0678761145F8264070BD194A0A4010
:100700000243154B1B1F1A60704739B1124A121D64
:1007100012680243104B1B1D1A6006E00E4A121DA0
:10072000126882430C4B1B1D1A607047042808D1C5
:100730004FF0E021096941F004014FF0E02211611E
:1007400007E04FF0E021096921F004014FF0E022B9
:10075000116170470000FA050CED00E000E400E0D4
:1007600080E100E080FFFF1F01684FF6FE7211403C
:1007700001600021016041608160C1608C49884254
:1007800008D18B490839496841F00F01884A083A75
:1007900051608AE086491431884208D18449083979
:1007A000496841F0F001824A083A51607DE0804991
:1007B0002831884208D17E490839496841F470617E
:1007C0007B4A083A516070E079493C31884208D14F
:1007D00077490839496841F47041754A083A5160CF
:1007E00063E073495031884208D17149083949683A
:1007F00041F470216E4A083A516056E06C49643108
:10080000884208D16A490839496841F47001684A48
:10081000083A516049E066497831884208D1644914
:100820000839496841F07061614A083A51603CE01A
:100830006049884206D1011F096841F00F01021F7B
:10084000116032E05B491431884208D15949091FCF
:10085000096841F0F001574A121F116025E055491F
:100860002831884208D15349091F096841F4706151
:10087000504A121F116018E04E493C31884208D19D
:100880004C49091F096841F470414A4A121F11601E
:100890000BE048495031884207D14649091F096891
:1008A00041F47021434A121F1160704710B50022B5
:1008B000026847F6F0739A430C6A8B6823430C690D
:1008C00023434C6923438C692343CC6923434C6AFB
:1008D00023438C6A23431A430260CB6843600B684E
:1008E00083604B68C36010BD00210160416081607E
:1008F000C160016141618161C161016241628162E6
:10090000704721B1026842F00102026004E002680F
:100910004FF6FE731A40026070471AB103680B432A
:10092000036002E003688B430360704741607047D7
:100930000146486880B2704701460020002211F04D
:10094000805F03D01B4B083B1A6802E0184B083B42
:100950001A680A4201D0012000E00020704710F020
:10096000805F03D01349091F086002E0104908396D
:100970004860704701460020002211F0805F03D0DC
:100980000C4B083B1A6802E0094B083B1A680A4204
:1009900001D0012000E00020704710F0805F03D0FC
:1009A0000449091F086002E001490839486070479E
:1009B000080002400804024010B50446CA488442B8
:1009C00008D10121042000F025FB0021042000F0C3
:1009D00021FB46E0C548844208D10121082000F0EF
:1009E00019FB0021082000F015FB3AE0C0488442C2
:1009F00008D10121102000F00DFB0021102000F093
:100A000009FB2EE0BB48844208D10121202000F0E0
:100A100001FB0021202000F0FDFA22E0B6488442CC
:100A200008D10121402000F0F5FA0021402000F01B
:100A3000F1FA16E0B148844208D10121802000F08B
:100A4000E9FA0021802000F0E5FA0AE0AC4884428F
:100A500007D10121801500F0DDFA0021A01500F07A
:100A6000D9FA10BD10B50121084600F0D3FA0021D3
:100A7000012000F0CFFA10BD2DE9F041024600251B
:100A80000026002000230024002791F803C00CF06A
:100A90000F0591F803C01CF0100F03D091F802C0AD
:100AA0004CEA0505B1F800C01CF0FF0F31D0146806
:100AB00000202BE04FF0010C0CFA00F3B1F800C05D
:100AC0000CEA03069E4220D183004FF00F0C0CFA73
:100AD00003F7BC4305FA03FC4CEA040491F803C095
:100AE000BCF1280F06D14FF0010C0CFA00FCC2F843
:100AF00014C00AE091F803C0BCF1480F05D14FF0D3
:100B0000010C0CFA00FCC2F810C0401C0828D1D31C
:100B10001460B1F800C0BCF1FF0F34DD5468002050
:100B20002EE000F1080C4FF0010808FA0CF3B1F8C0
:100B300000C00CEA03069E4221D183004FF00F0C47
:100B40000CFA03F7BC4305FA03FC4CEA040491F8E1
:100B500003C0BCF1280F05D100F1080C08FA0CF80D
:100B6000C2F8148091F803C0BCF1480F07D100F11E
:100B7000080C4FF0010808FA0CF8C2F81080401C6D
:100B80000828CED35460BDE8F0814FF6FF71018094
:100B9000022181700421C1707047024600209368D1
:100BA0000B4201D0012000E0002070470146886818
:100BB00080B2704702460020D3680B4201D001206A
:100BC00000E0002070470146C86880B270470161AC
:100BD0007047416170470AB1016100E041617047AF
:100BE000C16070474FF480320A4382618161826143
:100BF00082698269704702460020424B18684FF6AE
:100C00008073184040EA021008433E4B186070475A
:100C10003D49C8617047F0B50A4600230024002111
:100C2000002500F00046B6F1004F02D1354EF169C3
:100C300001E0344E7168C0F3034583B200F44016FE
:100C4000B6F5401F08D121F070612E4E766826F06F
:100C500070662C4F7E6012E000F48016B6F5801F9F
:100C600006D1032606FA05F4A14341F0706106E0BF
:100C7000460D360103FA06F6B14341F0706122B128
:100C8000460D360103FA06F6314300F00046B6F190
:100C9000004F02D11B4EF16101E01A4E7160F0BDB0
:100CA00030B500228B071C0F0F2303FA04F2154BFB
:100CB00008338C1053F824309343124C08348D10B1
:100CC00044F8253023468C1053F824308C07240F29
:100CD00000FA04F423430B4C08348D1044F82530FB
:100CE00030BD0A490860704700080140000C01400F
:100CF000001001400014014000180140001C014098
:100D0000002001400000014000002042DC002042A1
:100D1000DC48006840F00100DA4908600846406895
:100D2000D9490840D749486008460068D749084073
:100D3000D44908600846006820F48020086008460E
:100D4000406820F4FE0048604FF41F008860704740
:100D5000CC49096821F48031CA4A116011460968FA
:100D600021F480211160B0F5803F03D0B0F5802FD1
:100D70000ED106E0C349096841F48031C14A1160CF
:100D800007E0C049096841F4A021BE4A116000E0B3
:100D900000BF00BF704710B50146002200230020AD
:100DA0004A11012A02D1B74C236806E0022A02D177
:100DB000B44C236A01E0B34C636A01F01F020124C2
:100DC00094401C4201D0012000E0002010BD70B50D
:100DD00000240025002600BF3120FFF7DCFF064677
:100DE000641CB4F5A06F01D0002EF5D03120FFF7C0
:100DF000D2FF08B1012500E00025284670BD01465C
:100E00000020A04A106820F0F80040EAC1001060FD
:100E100070479F490860704702460020994B586808
:100E200020F47C1042EA01031843964B5860704747
:100E300097490866704701460020924A506820F0A2
:100E400003000843506070478E48406800F00C0073
:100E50007047014600208B4A506820F0F00008439C
:100E60005060704701460020864A506820F4E060D8
:100E700008435060704701460020824A506820F4C1
:100E8000605040EAC1005060704729B17D4A527AF3
:100E900002437C4B5A7206E07A4A527AC343DBB271
:100EA0001A40784B5A7270477A4908607047014679
:100EB0000020744A506820F4404008435060704756
:100EC0000021754A11706F4A82F82010012802D063
:100ED000042808D103E001216F4A117004E00521C4
:100EE0006D4A117000E000BF00BF70476B49086099
:100EF00070476449096A0143624A11627047674951
:100F000044390860704730B50021002200240023D6
:100F10005C4D6D6805F00C0121B1042905D008294C
:100F200023D105E05E4D056022E05D4D05601FE0C8
:100F3000544D6D6805F47012524D6D6805F480349F
:100F4000022505EB92421CB9564D554305600BE056
:100F50004C4D6D6815F4003F03D0524D554305606C
:100F600002E04F4D5543056002E04D4D056000BF66
:100F700000BF444D6D6805F0F00109094A4D6B5CF6
:100F80000568DD4045603F4D6D6805F4E061090A84
:100F9000454D6B5C4568DD4085603A4D6D6805F4F4
:100FA0006051C90A404D6B5C4568DD40C560354DF8
:100FB0006D6805F44041890B3C4D6B5CC568B5FB21
:100FC000F3F5056130BD29B12E4A526902432D4B1C
:100FD0005A6104E02B4A526982432A4B5A61704796
:100FE00029B1284A92690243264B9A6104E0254AB6
:100FF00092698243234B9A61704729B1214AD26991
:101000000243204BDA6104E01E4AD26982431D4B41
:10101000DA61704729B11B4AD2680243194BDA6082
:1010200004E0184AD2688243164BDA60704729B14F
:10103000144A12690243134B1A6104E0114A1269FF
:101040008243104B1A617047144940390860704759
:101050000F49C86470470B49C87170470948406A16
:1010600040F0807007494862704701460020054AF9
:1010700092680A4201D0012000E000207047014937
:1010800088727047001002400000FFF8FFFFF6FE74
:1010900000004242D80042422010024080044242F6
:1010A00000127A0000093D001400002024000020F6
:1010B00010B50446FE48844208D10121C014FFF750
:1010C000A9FF0021E014FFF7A5FFC4E0B4F1804FB1
:1010D00008D101210846FFF7AAFF00210120FFF7F0
:1010E000A6FFB8E0F348844208D101210220FFF7AF
:1010F0009EFF00210220FFF79AFFACE0EE488442F9
:1011000008D101210420FFF792FF00210420FFF7FE
:101110008EFFA0E0E948844208D101210820FFF7B2
:1011200086FF00210820FFF782FF94E0E448844214
:1011300008D101211020FFF77AFF00211020FFF7CE
:1011400076FF88E0DF48844208D101212020FFF7A4
:101150006EFF00212020FFF76AFF7CE0DA4884421E
:1011600008D101214014FFF755FF00216014FFF75B
:1011700051FF70E0D548844209D10121C804FFF72E
:1011800049FF00214FF40020FFF744FF63E0D048FF
:10119000844209D101210805FFF73CFF00214FF4EB
:1011A0008010FFF737FF56E0CA48844209D1012179
:1011B0004805FFF72FFF00214FF40010FFF72AFF2B
:1011C00049E0C548844208D101214020FFF72FFFA4
:1011D00000214020FFF72BFF3DE0C048844208D1AA
:1011E00001218020FFF723FF00218020FFF71FFF50
:1011F00031E0BB48844208D101218015FFF717FF79
:101200000021A015FFF713FF25E0B648844209D15D
:1012100001210804FFF7FEFE00214FF48030FFF7A4
:10122000F9FE18E0B048844209D101214804FFF7D3
:10123000F1FE00214FF40030FFF7ECFE0BE0AB486D
:10124000844208D101218804FFF7E4FE00214FF415
:101250008020FFF7DFFE10BD00220288944B9842E9
:101260000ED0994B98420BD0B0F1804F08D0914BE3
:10127000984205D0904B984202D0904B984204D1AE
:101280004FF68F731A404B881A438D4B984207D004
:101290008C4B984204D04FF6FF431A40CB881A4338
:1012A00002808B8883850B880385814B98420BD005
:1012B000854B984208D08B4B984205D08A4B984278
:1012C00002D08A4B984201D10B7A03860123838294
:1012D000704770B5002400220023058C4FF6FE767F
:1012E00035400584028C8388048B4FF68F752C4023
:1012F000B51E2C400D882C43751E2A400D892A43AB
:101300004D882A436A4DA8420BD06F4DA84208D0A1
:10131000744DA84205D0744DA84202D0734DA84226
:1013200013D14FF6F7752A404D892A434FF6FB75C6
:101330002A408D882A434FF6FF652B404FF6FF5514
:101340002B408D892B43CD892B4383800483CD880B
:101350008586028470BD70B5002400220023058CB0
:101360004FF6EF7635400584028C8388048B48F66F
:10137000FF752C404FF6FF452C400D882D0644EAA2
:1013800015444FF6DF752A400D892D0542EA1542B6
:101390004D882D0542EA1542454DA84202D04A4DDE
:1013A000A8421BD14FF67F752A404D892D0542EA90
:1013B00015424FF6BF752A408D882D0542EA154229
:1013C0004FF6FF352B404FF2FF752B408D89AD0452
:1013D00043EA1543CD89AD0443EA15438380048372
:1013E000CD880587028470BD70B5002400220023DB
:1013F000058C4FF6FF6635400584028C8388848B0C
:101400004FF68F752C404FF6FC752C400D882C4301
:101410004FF6FF552A400D892D0642EA15424D88A8
:101420002D0642EA1542224DA84202D0264DA8427E
:101430001BD14FF2FF752A404D892D0642EA154215
:101440004FF6FF352A408D882D0642EA15424EF6AA
:10145000FF752B404DF6FF752B408D892D0543EA16
:101460001543CD892D0543EA154383808483CD88B8
:101470008587028470BD70B5002200230024058C8E
:101480004EF6FF7635400584038C8488828B48F6BF
:10149000FF752A404FF6FF452A400D882D0642EA87
:1014A00015424DF6FF752B400D892D0720E00000F9
:1014B000002C01400004004000080040000C0040E7
:1014C000001000400014004000340140004C014076
:1014D000005001400054014000180040001C004032
:1014E000002000400040014000440140004801400D
:1014F00043EA15434D882D0743EA1543F84DA842AA
:1015000002D0F84DA84206D14BF6FF752C408D89CC
:10151000AD0544EA154484808283CD88A0F840500C
:10152000038470BD828B4FF2FF331A408283828B1B
:101530000B0642EA134282837047F0B50C4615460B
:10154000002200210026078C4EF6FF7C07EA0C07DC
:101550000784828B018C27073E0C40F6FF473A40F8
:101560002F0642EA17421F0742EA1742DC4FB842F1
:101570000ED0DC4FB8420BD0B0F1804F08D0DA4F1C
:10158000B84205D0D94FB84202D0D94FB84206D19F
:101590004DF6FF77394046F48057394305E047F66A
:1015A000FF57394044F48057394382830184F0BDAA
:1015B000828B4FF6F3731A408283828B0A438283B5
:1015C0007047F0B50C461546002200210026078C16
:1015D0004FF6FF6C07EA0C070784828B018C270605
:1015E0003E0C4FF60C773A401F0545EA17473A4341
:1015F000BB4FB8420ED0BB4FB8420BD0B0F1804FBA
:1016000008D0B94FB84205D0B84FB84202D0B84F51
:10161000B84206D14FF6FF57394046F48077394338
:1016200005E04FF2FF57394044F480773943828315
:101630000184F0BD028B4FF2FF331A400283028B0C
:101640000B0642EA134202837047F0B50C4615467A
:10165000002200210026078C4FF6EF7C07EA0C07DA
:101660000784028B018C27053E0C40F6FF473A4069
:101670001F0742EA17422F0642EA1742984FB84224
:101680000ED0984FB8420BD0B0F1804F08D0964F93
:10169000B84205D0954FB84202D0954FB84206D116
:1016A0004FF6DF77394046F01007394305E04FF633
:1016B0005F77394044F01007394302830184F0BD5D
:1016C000028B4FF6F3731A400283028B0A430283A4
:1016D0007047F0B50C46154600220021068C4FF6E7
:1016E000FE773E400684028B018C4FF60C7632402A
:1016F0001E0545EA16463243794EB0420ED0794E69
:10170000B0420BD0B0F1804F08D0774EB04205D038
:10171000764EB04202D0764EB04206D14FF6FD76FC
:10172000314044F00106314305E04FF6F576314093
:1017300044F00106314302830184F0BD70B50546D3
:101740000C46674885420ED0664885420BD0B5F1FD
:10175000804F08D06448854205D06448854202D055
:101760006348854200D100E000BF208850B923893A
:10177000A28861882846FFF7ACFFE1882846FFF77A
:101780009FFF25E0208804280AD12389A288618848
:101790002846FFF75AFFE1882846FFF74BFF17E07E
:1017A000208808280AD12389A28861882846FFF763
:1017B00008FFE1882846FFF7FBFE09E02389A2889D
:1017C00061882846FFF7B9FEE1882846FFF7AAFEA0
:1017D00070BD2DE9F04105460C46002601276088C2
:1017E00008B9022600E00026A088012801D10227BE
:1017F00000E001272088A0B92389A28861882846B3
:10180000FFF767FFE1882846FFF75AFF23893A462A
:1018100031462846FFF719FFE1882846FFF70AFFFF
:1018200013E02389A28861882846FFF70EFFE1882C
:101830002846FFF7FFFE23893A4631462846FFF740
:1018400048FFE1882846FFF73BFFBDE8F0810A88A2
:101850004B881A438B881A43CB881A430B891A4347
:101860004B891A438B891A43A0F8442070474FF6DE
:10187000FF71818000210180C18041800172704729
:101880000021018041808180C1800181418181816D
:10189000C1817047002101804180012181800021A8
:1018A000C180018170470021018041808180C18019
:1018B000018141818181704721B1028842F001029A
:1018C000028004E002884FF6FE731A4002807047DF
:1018D00081B1B0F8442042F40042A0F844200FE067
:1018E000002C01400034014000040040000800408A
:1018F000000C0040B0F84420C2F30E02A0F84420CF
:10190000704710B51AB183890B43838104E0838942
:10191000CC43A4B22340838110BD8182704741EA49
:101920000203A0F84830704710B51AB183890B4301
:10193000838104E08389CC43A4B22340838110BD1A
:1019400001894FF6F8721140018170470A46002163
:1019500001894FF68F73194011430181704730B5EB
:1019600004460D4629462046FFF7F0FF208940F047
:101970000700208130BD2DE9F04104460D46164692
:101980001F46602D06D13B46012231462046FFF717
:101990005CFE05E03B46012231462046FFF799FEFA
:1019A00029462046FFF7D2FF208940F0070020811A
:1019B000BDE8F08130B50C4600210189C9B21D0691
:1019C00042EA154525432943018130BD2DE9F04107
:1019D00005460E4617469846002443463A46314689
:1019E0002846FFF7E7FF2C894FF6F870044044F0D3
:1019F00007044FF68F70044044F070042C81BDE85A
:101A0000F081F0B504460D4616461F463B46324669
:101A100029462046FFF7CEFF208940F480402081F0
:101A2000F0BD0185828270470A46002101884FF689
:101A30008F731940114301807047F0B50C4615466D
:101A40001E460021002200230189028B038C4FF6E1
:101A5000F877394021434FF6FC473A4040F20117EE
:101A60003A434FF6DD773B40370545EA17473B439E
:101A7000018102830384F0BD0A460021018B4FF6E9
:101A80008F7319401143018370470A460021018B6F
:101A900048F6FF731940130641EA1341018370476A
:101AA0000A460021818B4FF68F73194011438183C1
:101AB00070470A460021818B48F6FF7319401306D0
:101AC00041EA13418183704721B1028842F08002CC
:101AD000028004E002884FF67F731A40028070474C
:101AE00021B1828842F00402828004E082884FF6AD
:101AF000FB731A408280704721B1828842F008024D
:101B0000828004E082884FF6F7731A408280704723
:101B100021B1828842F00102828004E082884FF67F
:101B2000FE731A40828070470A460021018B4FF6EF
:101B3000F77319401143018370470A460021018B56
:101B40004FF2FF731940130641EA134101837047B6
:101B50000A460021818B4FF6F773194011438183A8
:101B600070470A460021818B4FF2FF73194013061C
:101B700041EA1341818370470A460021018B4FF6E9
:101B8000FB7319401143018370470A460021018B02
:101B90004FF6FF331940130641EA134101837047A2
:101BA0000A460021818B4FF6FB7319401143818354
:101BB00070470A460021818B4FF6FF331940130608
:101BC00041EA1341818370470A460021018B4FF699
:101BD0007F7319401143018370470A460021018B2E
:101BE000C1F30E01130641EA1341018370470A460F
:101BF0000021818B4FF67F73194011438183704719
:101C00000A460021818BC1F30E01130641EA1341FC
:101C1000818370470A460021018C4FF6FD731940FD
:101C20001143018470470A460021018C4FF6F77377
:101C300019401143018470470A460021018C4FF678
:101C4000DF731940130541EA1341018470470A46C6
:101C50000021018C4FF67F731940130541EA1341AF
:101C6000018470470A460021018C4FF6FF5319404A
:101C7000130641EA1341018470470A460021018C92
:101C80004FF2FF731940130641EA13410184704774
:101C90000A460021018C4DF6FF731940130741EAF3
:101CA00013410184704730B5002301248C40A3B256
:101CB000048CDD43ADB22C400484048C02FA01F59F
:101CC000ADB22C43048430BD30B5002304248C40D5
:101CD000A3B2048CDD43ADB22C400484048C02FA20
:101CE00001F5ADB22C43048430BD70B5034600202D
:101CF00000241846183001258D40ACB21D8CE643F7
:101D0000B6B235401D8409B1082909D100EB610044
:101D1000056825F0700505600568154305600CE051
:101D20000D1FADB200EB6500056825F4E0450560C8
:101D30000568160645EA1645056070BD21B10288A2
:101D400042F00202028004E002884FF6FD731A405E
:101D50000280704721B1028842F00402028004E050
:101D600002884FF6FB731A400280704721B18288C7
:101D700042F08002828004E082884FF67F731A402E
:101D80008280704702884FF6F7731A4002800288FB
:101D90000A430280704782884FF68F731A40828010
:101DA00082880A438280704702894FF6F8731A408E
:101DB000028102890A430281704702894FF67F73CC
:101DC0001A40028102890A43028170478184704768
:101DD000818570478186704701877047818770478A
:101DE000A0F84010704702884FF6FF431A40028067
:101DF00002880A43028070470146888E7047014678
:101E0000088F70470146888F70470146B1F840003F
:101E100070470146888C70470146088D704702461E
:101E20000020138A0B4201D0012000E000207047FF
:101E3000CA430282704730B50246002000230024C6
:101E4000158A05EA0103958905EA010413B10CB16D
:101E5000012000E0002030BDCA430282704700002C
:101E600010B50446FC48844209D101218803FFF7DC
:101E7000D1F800214FF48040FFF7CCF832E0F7486A
:101E8000844209D101214804FFF7D1F800214FF421
:101E90000030FFF7CCF825E0F148844209D1012158
:101EA0008804FFF7C4F800214FF48020FFF7BFF843
:101EB00018E0EC48844209D10121C804FFF7B7F8C3
:101EC00000214FF40020FFF7B2F80BE0E64884420F
:101ED00008D101210805FFF7AAF800214FF480106E
:101EE000FFF7A5F810BD2DE9F04786B005460E4670
:101EF0000024A24600BFA1460027B08900B100BF60
:101F00002F462C8A4CF6FF700440F08804432C8244
:101F1000AC894EF6F3100440B088318908437189CA
:101F200008430443AC81AC8A4FF6FF400440B089BB
:101F30000443AC8201A8FEF7E6FFC748874202D1FE
:101F4000DDF810A001E0DDF80CA0A88910F4004F26
:101F500008D00AEBCA0000EB0A1031684900B0FB58
:101F6000F1F807E00AEBCA0000EB0A1031688900BB
:101F7000B0FBF1F86420B8FBF0F004012009642103
:101F800001FB1089A88910F4004F08D0322000EB23
:101F9000C900B0FBF1F000F00700044308E0322074
:101FA00000EB09106421B0FBF1F000F00F000443D6
:101FB0002C8106B0BDE8F0874FF416510160002176
:101FC0008180C18001810C21418100218181704784
:101FD00010B502460020108A4FF2FF0318400B880C
:101FE0004C8823438C882343CC8823431843108296
:101FF00010BD0021018041808180C180704721B1E6
:10200000828942F40052828104E082894DF6FF7396
:102010001A4082817047F0B503460024002600254F
:102020000020A1F510676A3F00D100BF1846C1F338
:10203000421401F01F06012707FA06F5012C01D111
:102040000C3004E0022C01D1103000E014301AB141
:1020500007682F43076002E00768AF430760F0BDE1
:1020600010B51AB1838A0B43838204E0838ACC4380
:10207000A4B22340838210BD028A4FF6F0731A4047
:102080000282028A0A430282704782894FF2FF73FA
:102090001A40828182890A438281704721B18289F4
:1020A00042F00202828104E082894FF6FD731A40F9
:1020B00082817047028A4FF6DF731A400282028AD9
:1020C0000A430282704721B1028A42F480420282AE
:1020D00004E0028A4BF6FF731A4002827047C1F394
:1020E00008028280704701468888C0F30800704764
:1020F000818941F0010181817047028BD2B2028354
:10210000028B42EA012202837047028B02F47F4273
:102110000283028B0A430283704721B1828A42F014
:102120002002828204E0828A4FF6DF731A408282A4
:10213000704721B1828A42F01002828204E0828AD2
:102140004FF6EF731A408282704721B1828A42F0C3
:102150000802828204E0828A4FF6F7731A40828274
:10216000704721B1828942F40042828103E0828972
:10217000C2F30E028281704721B1828A42F400626A
:10218000828204E0828A4FF2FF731A408282704793
:10219000828A4FF6FB731A408282828A0A438282C5
:1021A000704721B1828A42F00202828204E0828A70
:1021B0004FF6FD731A408282704702460020B1F547
:1021C000007F00D100BF13880B4201D0012000E046
:1021D0000020704701F40072B2F5007F00D100BF0B
:1021E000CA430280704770B50246002400230025D0
:1021F0000020A1F510666A3E00D100BFC1F3421570
:1022000001F01F03012606FA03F3012D02D196897E
:10221000334006E0022D02D1168A334001E0968A4F
:1022200033400C12012606FA04F41688344013B128
:102230000CB1012000E0002070BD10B50022002389
:10224000A1F510646A3C00D100BF0A120124944039
:10225000A3B2DC43048010BD0038014000440040BC
:1022600000480040004C00400050004008B54FF4CA
:10227000A060FEF70BFA0D208DF8000000208DF80D
:1022800001008DF8020001208DF803006846FEF77A
:1022900002FA1C208DF8000001208DF801000020BA
:1022A0008DF8020001208DF803006846FEF7F3F96F
:1022B0001D208DF8000001208DF801008DF802002E
:1022C0008DF803006846FEF7E6F91E208DF8000041
:1022D00001208DF8010002208DF8020001208DF808
:1022E00003006846FEF7D7F932208DF80000012080
:1022F0008DF8010003208DF8020001208DF8030005
:102300006846FEF7C8F936208DF8000003208DF8E6
:1023100001008DF8020001208DF803006846FEF7E9
:10232000BAF937208DF8000002208DF80100002056
:102330008DF8020001208DF803006846FEF7ABF926
:1023400008BD00B589B001210846FEF749FE01210C
:10235000C802FEF745FE01210420FEF741FE4FF4BE
:102360007060ADF8200003208DF8220018208DF851
:10237000230008A9FE48FEF77FFB0020ADF81400FB
:10238000ADF816004FF4E150ADF818000020ADF89C
:102390001A008DF81C0005A9F648FEF75DFF7020B5
:1023A000ADF804000120ADF806000020ADF80800EB
:1023B0000220ADF80C000020ADF80E004FF4807044
:1023C000ADF810000020ADF8120001A9E948FEF7B1
:1023D00080FF01A9E748FEF7BEFF01A9E548FFF726
:1023E00003F801A9E348FFF746F80020E14934313A
:1023F0000880091D0880091D0880091D0880012129
:10240000DC48FFF759FA0121DA48FFF761FA09B011
:1024100000BD00B589B001210846FEF7E1FD0121AC
:102420004803FEF7DDFD01211020FEF7D9FD4FF432
:102430007070ADF8200003208DF8220018208DF870
:10244000230008A9CC48FEF717FB0020ADF81400C4
:10245000ADF816004FF4E150ADF818000020ADF8CB
:102460001A008DF81C0005A9C448FEF7F5FE70207F
:10247000ADF804000120ADF806000020ADF808001A
:102480000220ADF80C000020ADF80E004FF4807073
:10249000ADF810000020ADF8120001A9B748FEF712
:1024A00018FF01A9B548FEF756FF01A9B348FEF78A
:1024B0009BFF01A9B148FEF7DEFF0020AF49343190
:1024C0000880091D0880091D0880091D0880012158
:1024D000AA48FFF7F1F90121A848FFF7F9F909B077
:1024E00000BD00B587B00121A548FEF794FB01218E
:1024F0000846FEF775FD01210846FEF77EFD012125
:102500000420FEF76DFD01210820FEF769FD012181
:102510009C48FEF780FB4FF40040ADF818004820BF
:102520008DF81B0003208DF81A0006A99048FEF7CD
:10253000A3FA0122D1038E48FEF74DFB0820ADF827
:10254000180048208DF81B0003208DF81A0006A9FA
:102550008D48FEF791FA012208218B48FEF73BFBDC
:1025600044F62060ADF810000020ADF80C00ADF886
:102570001200ADF80E0003A94FF08040FEF76CFE8C
:102580000A231A4603215807FFF757FA6846FFF750
:1025900081F90620ADF8080069464FF08040FFF74A
:1025A000CDF801218807FFF743FC0122114690076F
:1025B000FFF7A7F900204FF08041888401218807A8
:1025C000FFF77AF907B000BD00B587B001210846D2
:1025D000FEF706FD01210220FEF70FFD0121042078
:1025E000FEF7FEFCC020ADF8180048208DF81B0057
:1025F00003208DF81A0006A95D48FEF73DFA012276
:1026000040215B48FEF7E7FA012280215848FEF797
:10261000E2FA44F62060ADF810000020ADF80C009E
:10262000ADF81200ADF80E0003A95848FEF714FEED
:102630000A231A4603215548FFF7FFF96846FFF7BA
:1026400029F90620ADF8080069465048FFF776F8EA
:1026500001214E48FFF7ECFB012211464B48FFF7E2
:1026600050F9002049492431088001214748FFF7EB
:1026700023F907B000BD00B587B001210846FEF779
:10268000AFFC01210420FEF7B8FC01210820FEF771
:10269000A7FCC020ADF8180048208DF81B000320CF
:1026A0008DF81A0006A93848FEF7E6F90122402104
:1026B0003548FEF790FA012280213348FEF78BFA65
:1026C00044F62060ADF810000020ADF80C00ADF825
:1026D0001200ADF80E0003A92D48FEF7BDFD0A2338
:1026E0001A4603212A48FFF7A8F96846FFF7D2F8EF
:1026F0000620ADF8080069462548FFF71FF80121BC
:102700002348FFF795FB012211462148FFF7F9F80E
:1027100000201F492431088001211D48FFF7CCF813
:1027200007B000BD00B587B001210846FEF758FC90
:1027300001210820FEF761FC01210420FEF750FC76
:102740000320ADF8180048208DF81B0003208DF8F9
:102750001A0006A90648FEF78FF90122114604481F
:10276000FEF739FA012202210148FEF734FA11E09E
:1027700000080140002C01400010014000340140DD
:102780000002300000031800000C0140000400406B
:102790000008004044F62060ADF810000020ADF8BD
:1027A0000C00ADF81200ADF80E0003A9FE48FEF7CC
:1027B00053FD0A231A460321FB48FFF73EF96846FA
:1027C000FFF768F80620ADF808006946F648FEF7FE
:1027D000B5FF0121F448FFF72BFB01221146F24817
:1027E000FFF78FF80020F049243108800121EE48DE
:1027F000FFF762F807B000BD0EB501211020FEF70B
:10280000FCFB41F28730ADF804004720ADF8000032
:102810000020ADF80600ADF802008DF8080069460A
:10282000E248FEF719FD0121E048FFF793FA012283
:102830001146DE48FFF765F80121DC48FFF73CF858
:102840000EBD0EB501212020FEF7D7FB41F28730E7
:10285000ADF804004720ADF800000020ADF80600F8
:10286000ADF802008DF808006946D148FEF7F4FC87
:102870000121CF48FFF76EFA01221146CC48FFF73D
:1028800040F80121CA48FFF717F80EBD10B5FFF751
:1028900058FDFFF7BEFDFFF724FEFFF795FEFFF79B
:1028A000EAFEFFF73FFFFFF7A7FFFFF7CAFF10BDE4
:1028B00010B541F62C23984200DD1846BD4B9842D6
:1028C00000DA1846002802DA4142012201E00146FE
:1028D00000222AB10023B84C2380241D218004E06B
:1028E000B54C21800023241D238010BD10B541F676
:1028F0002C23984200DD1846AE4B984200DA184669
:10290000002802DA4142012201E00146002232B1F0
:102910000023A94C08342380241D218005E0A64C07
:10292000083421800023241D238010BD10B541F6FA
:102930002C23984200DD18469E4B984200DA184638
:10294000002802DA4142012201E0014600222AB1B8
:1029500000239A4C2380241D218004E0974C218081
:102960000023241D238010BD10B541F62C2398426E
:1029700000DD18468F4B984200DA1846002802DA2C
:102980004142012201E00146002232B100238B4C7A
:1029900008342380241D218005E0884C08342180E0
:1029A0000023241D238010BD08B501214820FEF717
:1029B00017FB4FF46040ADF8000010208DF80300C5
:1029C00003208DF8020069467D48FEF755F84FF464
:1029D00000417B48FEF7FDF84FF480417848FEF750
:1029E000F8F84FF400517648FEF7F3F808BD10B53B
:1029F0006FF00400FDF79AFE10BD014601EBC10225
:102A000022F060424FF47A735A434FF0E0235A6148
:102A100000229A6101221A6100BF4FF0E022106982
:102A200010F0010F02D010F4803FF6D000224FF0DA
:102A3000E0231A619A617047014601EBC10222F05E
:102A400060424FF0E0235A6100229A6101221A612C
:102A500000BF4FF0E022106910F0010F02D010F417
:102A6000803FF6D000224FF0E0231A619A61704750
:102A700000B585B001215348FEF7BFFA4FF400605E
:102A8000ADF8100004208DF8130004A94C48FDF7A0
:102A9000F3FF4D4800900020ADF80400ADF80600AB
:102AA0004FF48060ADF808000020ADF80C00042061
:102AB000ADF80A0069464548FFF715FA0121434879
:102AC000FFF79DFA05B000BD00B58BB001210846A7
:102AD000FEF779FA3D48001D00903D480190002026
:102AE0000290122003900020049080200590002086
:102AF00006900790202008904FF440500990002045
:102B00000A9069463348FDF7D1FE01213148FDF7AF
:102B1000F8FE012202212F48FDF7FFFE0BB000BD99
:102B200010B5FFF7A3FBFFF7B1FEFFF73DFFFFF77F
:102B30005EFFFFF79DFFFFF7C7FF012240212348FB
:102B4000FFF78EFA10BD10B54FF08042928C12B292
:102B5000214B1A811A469169B2F90830B2F9102056
:102B600040F27124624303EB4210421A12B21A4B34
:102B70001A8013E0184A128A521E12B2164B1A8299
:102B80001A46B2F90830B2F9102040F271246243BB
:102B900003EB4210421A12B20F4B1A800E4AB2F9DE
:102BA000002042F2107319E0000C004000100040B9
:102BB00000140040D4E5FFFF342C014034340140C0
:102BC000000C014008000400A086010000480040FD
:102BD00074000020300002409C0000209A42C9DCB2
:102BE00013E08A4A128A521C12B2884B1A821A4681
:102BF000B2F90830B2F9102040F27124624303EBBD
:102C00004210421A12B2814B1A80804AB2F9002057
:102C10007F4B9A42E5DB7D4A906110BD10B57D4A3D
:102C2000128812B2794B5A811A46D169B2F90A3028
:102C3000B2F9122040F27124624303EB4210421AAF
:102C400012B2724B5A8013E0704A528A521E12B26C
:102C50006E4B5A821A46B2F90A30B2F9122040F28B
:102C60007124624303EB4210421A12B2674B5A803E
:102C7000664AB2F9022042F210739A42E4DC13E091
:102C8000624A528A521C12B2604B5A821A46B2F9F8
:102C90000A30B2F9122040F27124624303EB421071
:102CA000421A12B2594B5A80584AB2F90220584B74
:102CB0009A42E5DB554AD06110BD10B5564A1288DC
:102CC00012B2524B9A811A46116AB2F90C30B2F91B
:102CD000142040F27124624303EB4210421A12B2F4
:102CE0004A4B9A8013E0494A928A521E12B2474BCD
:102CF0009A821A46B2F90C30B2F9142040F27124CB
:102D0000624303EB4210421A12B2404B9A803F4A90
:102D1000B2F9042042F210739A42E4DC13E03B4A19
:102D2000928A521C12B2394B9A821A46B2F90C306E
:102D3000B2F9142040F27124624303EB4210421AAC
:102D400012B2324B9A80314AB2F90420304B9A4287
:102D5000E5DB2E4A106210BD10B5304A128812B25F
:102D60002A4BDA811A46516AB2F90E30B2F91620AE
:102D700040F27124624303EB4210421A12B2234B19
:102D8000DA8013E0214AD28A521E12B21F4BDA8235
:102D90001A46B2F90E30B2F9162040F2712462439D
:102DA00003EB4210421A12B2184BDA80174AB2F9FA
:102DB000062042F210739A42E4DC13E0134AD28AEE
:102DC000521C12B2114BDA821A46B2F90E30B2F925
:102DD000162040F27124624303EB4210421A12B2F1
:102DE0000A4BDA80094AB2F90620094B9A42E5DB20
:102DF000064A506210BD00B5FFF7A5FEFFF70EFFB3
:102E0000FFF75BFFFFF7A8FF00BD00009C0000205C
:102E1000F0D8FFFF2404004024080040240C0040A8
:102E20002DE9F04104460021206800F07FFC03D228
:102E3000206880F0004020600021606800F076FC8F
:102E400003D2606880F0004060600021A06800F05C
:102E50006DFC03D2A06880F00040A0600021E06813
:102E600000F064FC03D2E06880F00040E06020697C
:102E7000E0612169206A00F06FFB20620021E068B8
:102E800000F0D8FB13D0E168206A00F056FD02D2B2
:102E9000E06820620BE0E06880F000452846216A87
:102EA00000F04BFD03D2E06880F000402062A16991
:102EB000206900F07DFD60622069A061616AA06800
:102EC00000F068FC0646216A606800F063FC074673
:102ED000E169206800F05EFC8046394600F03CFB6A
:102EE0000546314600F038FB6061BDE8F0812DE910
:102EF000F05F04460021206800F018FC03D220682F
:102F000080F0004020600021606800F00FFC03D2D8
:102F1000606880F0004060600021A06800F006FC5E
:102F200003D2A06880F00040A060A169E06800F0D2
:102F30003FFD8046E5684FF08040A16900F02AFC23
:102F40008146E16800F02AFD0746E16900F004FBD4
:102F50000646A069E061E068A0613146A06800F023
:102F600019FC81462946606800F014FC82464146FF
:102F7000206800F00FFC8346514600F0EDFA07464A
:102F8000494600F0E9FA20610021206800F052FB78
:102F90000CD10021606800F04DFB07D10021A06832
:102FA00000F048FB02D10020606104E0D4E9041085
:102FB00000F0D2FA6061BDE8F09F10B504466948A0
:102FC000B0F9020068490860684804600146096871
:102FD000654A1268881A00F07DFB654908616549F9
:102FE000088800F08FFB624908606249488800F059
:102FF00089FB5F4948605F49888800F083FB5C4932
:1030000088605C49C88800F07DFB5949C860084663
:10301000FFF706FF5649486900F040FB5649086033
:1030200008460068FFF782FC10BD10B504464D4805
:10303000B0F906005149086051480460014609682A
:103040004E4A1268881A00F045FB4E49086149490A
:10305000088800F057FB4B4908604649488800F053
:1030600051FB484948604349888800F04BFB45497B
:1030700088604049C88800F045FB4249C86008465E
:10308000FFF7CEFE3F49486900F008FB3E49086063
:1030900008460068FFF768FC10BD10B504463148CB
:1030A000B0F90400394908603948046001460968EC
:1030B000364A1268881A00F00DFB36490861364816
:1030C00008604FF081404860002088602949C88826
:1030D00000F018FB2F49C8600846FFF7A1FE2D49F4
:1030E000486900F0DBFA2D49086008460068FFF7E0
:1030F000DFFB10BD10B504461A48B0F9000028499E
:1031000008602848046001460968254A1268881A40
:1031100000F0E0FA244908611649088800F0F2FA44
:10312000214908601349488800F0ECFA1E494860BC
:103130001049888800F0E6FA1B4988600D49C88864
:1031400000F0E0FA1849C8600846FFF769FE164922
:10315000486900F0A3FA154908600B480068FFF7BA
:10316000C5FB10BD9C0000202C0000202800002082
:10317000C40000206401002030000020380000203E
:1031800034000020EC0000203C000020440000201F
:1031900040000020140100200000C8414800002029
:1031A000500000204C0000203C0100205400002072
:1031B0002DE9F0410A2021490880032048800020A1
:1031C00088804FF47A70C8801D494988A1F58060D5
:1031D00000F0ADF8064600221A4B00F0BFF8044696
:1031E00000F076F800B2184908801549C988C1F581
:1031F000806000F09CF804460022124B00F0AEF80C
:10320000064600F065F800B2104908800E48B0F993
:1032100000000A4908810C480088404200B24881F9
:103220000A48B0F9000088810948007820B90020D8
:10323000088148818881C881BDE8F081640100204F
:103240008600002000002540600000206200002071
:1032500058000020704770477047754600F028F806
:10326000AE4605006946534620F00700854618B073
:1032700020B5FDF7F9F9BDE820404FF000064FF00A
:1032800000074FF000084FF0000B21F00701AC469B
:10329000ACE8C009ACE8C009ACE8C009ACE8C009BA
:1032A0008D4670470446AFF300802046FCF789FF47
:1032B00000487047740100200048704778010020E2
:1032C00001491820ABBEFEE726000200704700004F
:1032D0004FEA41034FEA5353A3F58063D3F11E0332
:1032E000C8BFD3F1210C0CDD4FF0004242EAC122ED
:1032F00042EA505232FA03FC8CEAE17CACEBE1701A
:103300007047102BC4BF0020704703F5787CBCF1D8
:10331000FF3F04D06FF0004282EA2100704770B591
:1033200000F0C6F84992248000207047F2E710F0C0
:10333000004248BF4042B0FA80F310FA03F10AD0CD
:10334000C3F11D0303F580634FEA415002EB0352C2
:1033500002EBD12170474FF000007047DFF848C101
:1033600070B51CEA111E1EBF1CEA13159EEA0C0F55
:1033700095EA0C0F00F06F8081EA030423EA4C13F6
:103380004EEAD47E21EA4C1141F4801143F48013BB
:10339000AE44A1FB024CA0FB0365AEF17F7E361963
:1033A00055EB0C05A1FB034C4CF10003A0FB021CE8
:1033B00016EB0C06654153F10003094218BF46F0B5
:1033C000010613F4007F0BD14FEA03314FEA0530B9
:1033D000340341EA155140EA16506FF003020AE047
:1033E0004FEAC3214FEAC520F40241EA555140EAB1
:1033F00056506FF0020202EB2E4201EB025585EAB5
:10340000CE710AD05FEA440C18BF24F0004450F19A
:10341000000041F1000120EAD47040F2FE7C6245D8
:1034200000D270BDA84214BF4FF080444FF040441A
:10343000002E08BF0024BEF1806FA8BFA1F1C041DB
:10344000BDE8704080F282804FF0000001F1C04181
:1034500001F0004170479EEA0C0F0CEA131518BFEB
:1034600095EA0C0F06D04FF0000081EA030E0EF033
:10347000004170BD00F01CF88900013E00F007B863
:1034800000F009B84FEA430C5FEA5C5C08D081EABF
:10349000030100F05BB84FEA410C5FEA5C5CF6D1D7
:1034A0004FF00000014970470000FF070000F87F5F
:1034B0000EF1020E2EF0030E5EF8046B364205D4B8
:1034C000012A43EB030515F5001F12D8012841EB33
:1034D000010C1CF5001F0CD80ED14FEAD17C15F55C
:1034E000001F0CEB4C0C0CF1020C08BF4CEBD37C16
:1034F00004E04FF0080C01E04FEAD37C0CEB4C05E4
:1035000026FA05F606F00706B6F1040C06D20EEB15
:10351000860CBDE870404CF0010C6047DFE80CF011
:10352000090B02024FF000414FF00000A1F500210D
:1035300070BD19461046012851EB010418BFD4F59F
:10354000001484BF002001F0004170BD0808A0F500
:1035500000114FEA3101704790EA010F48BF81F036
:10356000004100F12C82421A3CBF801A89184FEAB0
:10357000D0524FF07F4C1CEA410FA2EBD15318BF41
:103580009CEA026F00F03B804FF0004C4CEA0020B8
:103590004CEA012121FA03FC10EB0C0C1ED202F1C3
:1035A000FF325FEA1C2040EBC25038BF70471CF06E
:1035B0007F0F4FEA400C18BFBCF17F4F38BF7047F8
:1035C000C3F12003994008BF20F00100BCF17F4FF8
:1035D00038BF7047A0F1C04000F0AAB94FEA3C00E4
:1035E000000A40EBC25028BF1CF0FF0F4FEA400C0E
:1035F000E6D018BFBCF17F4F38BF7047EAE79CEABE
:10360000026F05D010EA5C0F08BF00F00040704761
:1036100010B500F040F900BF64FBBE3E401058BF3B
:10362000C0F14040491058BFC1F140418142EFF321
:103630000080704750EA010C00F113801CF5000F68
:1036400058BFBCF5000F01D48842704707D710F56A
:10365000000F58BF11F5000F15D4884270478942FA
:1036600070471CF5000F04D5BCF5000FF7D581425B
:1036700070474FF0807C1CEB400F38BF1CEB410FB4
:1036800001D28142704710B500F005F9922449003B
:103690004FF000504FF08051FFF7C0BF41000B0EBC
:1036A000D3F19E0208D950F400034FEA032323FA12
:1036B00002F048BF4042704710B500F0ECF800BF80
:1036C00049922480002070476FF0004282EA200077
:1036D0007047000010F0004148BF4042B0FA80F34C
:1036E00010FA03F2C3F19D030BD051EAC35101EB71
:1036F0001220530638BF704700F1010008BF20F0C8
:1037000001007047B0FA80F310FA03F2C3F19D0391
:103710000AD0D90501EB1220530638BF704700F1DB
:10372000010008BF20F001007047000050EA010CC2
:1037300000F113801CF5000F58BFBCF5000F01D439
:103740008842704707D710F5000F58BF11F5000FDA
:1037500015D488427047894270471CF5000F04D584
:10376000BCF5000FF7D5814270474FF0807C1CEB11
:10377000400F38BF1CEB410F01D28142704710B59A
:1037800000F089F8922449004FF000504FF080512A
:10379000FFF744BF4FF47F0C1CEAD0121EBF1CEA97
:1037A000D11392EA0C0F93EA0C0F00F0478090EAD5
:1037B000010F48BF42F480724FF0004C4CEA0020E9
:1037C0004CEA012102EB0302A0FB0113A2F5000267
:1037D000002918BF43F001035B0028BF4FEA330301
:1037E00042EB22425FEA132C4CEBC2502EBFBCEBE3
:1037F000436FB2F57C0F70474FEA036CBCF1004F8A
:1038000008BF20F00100B2F57C0F38BF70470BD520
:1038100082F0FF0212F5803FC8BF704700F1C04040
:10382000D8BF00F00040704700F5000C5FEA4C0C78
:1038300048BF7047B0F1C04000F07AB890EA010F7D
:103840000CEAD11348BF42F48072624538BF634529
:1038500004D280EA010000F00040704710B500F08B
:103860001AF800BF8900013E00F007B800F009B85F
:103870005FEA410C5FEA1C6C08D080EA010000F0AE
:1038800057B85FEA400C5FEA1C6CF6D14FF000407D
:10389000A0F5800070470EF1020E2EF0030E5EF8C8
:1038A000044B244204D44FEA4102B2F17F4F11D8B5
:1038B0004FEA4003B3F17F4F0CD80ED14FEAD07CD2
:1038C000B2F17F4F0CEB4C0C0CF1020C08BF4CEB2F
:1038D000D17C04E04FF0080C01E04FEAD17C0CEB06
:1038E0004C0324FA03F404F00704B4F1040C06D2E8
:1038F0000EEB840CBDE810404CF0010C6047DFE893
:103900000CF0070802024FF00040A0F5800010BD47
:103910000846420018BFD2F1807288BF00F0004014
:1039200010BD10B5FFF7C8FC4FF00001016010BDDD
:10393000FF2141EAD050C005704751EA000C00F168
:1039400013801CF5000F58BFBCF5000F01D4814255
:10395000704707D711F5000F58BF10F5000F15D4A9
:1039600081427047894270471CF5000F04D5BCF5B1
:10397000000FF7D5884270474FF0807C1CEB410F59
:1039800038BF1CEB400F01D28842704780EA01002B
:1039900081EA000180EA0100FFF7F1BE80F00040FB
:1039A00090EA010F7FF5DFAD81F0004100F007B82C
:1039B00090EA010F48BF81F000413FF5D4AD421AB3
:1039C00004D882F00042A0EB020011444FEAD0522A
:1039D0004FF07F4C1CEA410FA2EBD15318BF9CEA79
:1039E000026F4AD04FF0004C4CEA00204CEA012113
:1039F00021FA03FCB0EB0C0C0FD412F0FE0F36D002
:103A00005FEA4C001DD5001240EBC25038BF704732
:103A10001CF03F0F18BF70470BE0A2F101025FEAF4
:103A20001C2040EBC25038BF70471CF07F0F18BFFE
:103A30007047C3F12003994014BF401E20F00100DD
:103A4000704780084FEA122308BF7047B0FA80FC25
:103A5000A2EB0C02CCF1280C60FA0CF093EA122FC6
:103A600004BF00EBC25070474FEAC3707047130A9F
:103A70005FEADC1008BF7047F6E79CEA026F04D0EB
:103A800010EA5C0F08BF0020704710B5FFF703FF76
:103A900040DFF63E81F0004070470000BC3A00086D
:103AA00000000020740000006C010008303B00089A
:103AB00074000020640700008801000800A24A0486
:103AC00000000000000000000102030406070809CE
:103AD00000000000010203040102030406070809B4
:103AE00002040608000000000000000000000000C2
:103AF00000000000000000000000000000000000C6
:103B000000000000000000000000000000000000B5
:103B100000000000000000000000000000000000A5
:103B20000000000000000000000000000000000095
:0400000508000131BD
:00000001FF
